:020000040000fa
:080000000001040000000000f3
:020000040000fa
:100008009801000098010000980100009801000084
:100018009801000098010000980100009801000074
:10002800980100009801000098010000ac1200003f
:100038009801000098010000021400002814000034
:100048009801000098010000980100009801000044
:100058009801000098010000980100009801000034
:100068009801000098010000980100009801000024
:100078009801000098010000980100009801000014
:100088009801000098010000980100009801000004
:1000980098010000980100009801000098010000f4
:1000a80098010000980100009801000098010000e4
:1000b80098010000980100009801000098010000d4
:1000c80098010000980100006c14000098010000dd
:1000d80098010000980100009801000098010000b4
:1000e80098010000980100009801000098010000a4
:0800f8009801000098010000ce
:020000040000fa
:100108009801000098010000980100009801000083
:100118009801000098010000980100009801000073
:10012800980100009801000098010000ac1200003e
:100138009801000098010000021400002814000033
:100148009801000098010000980100009801000043
:100158009801000098010000980100009801000033
:100168009801000098010000980100009801000023
:100178009801000098010000980100009801000013
:100188009801000098010000980100009801000003
:1001980098010000980100009801000098010000f3
:1001a80098010000980100009801000098010000e3
:1001b80098010000980100009801000098010000d3
:1001c80098010000980100006c14000098010000dc
:1001d80098010000980100009801000098010000b3
:1001e80098010000980100009801000098010000a3
:0801f8009801000098010000cd
:020000040000fa
:100200000f8120000e7f22000e01880000000000f8
:1002100000012000200288000c0007006068210017
:100220000100200011000700000020000000e00095
:1002300002003200000002000000000090120200e4
:10024000000000000040da000000fe004440a90069
:10025000c00020000000e000030032000000200089
:10026000a00188004440a800000006009101880019
:10027000800078000000eb0015003700e2804000ad
:1002800032a0b4009101ba00e280400032a0b40074
:100290009102ba00e280400032a0b4000002eb00fc
:1002a000472bde00f507b200602ce10004003a00a5
:1002b0000059eb008301e900fdff3e000400370018
:1002c0006128e100010032000082eb000400070019
:1002d0001101ba000200e000e8ff3a000000060049
:1002e0003159ba008301e9000c0032002159ba00eb
:1002f0008301e900080032000400e00003003a0036
:10030000e280400032a0b400f5ff370011d9ba00f6
:100310008301e900faff3a008100e800e180400033
:1003200032a0b400000006000a0e04000000000025
:100330000040da000000fe00401188003111880002
:1003400000000600839f68000100e00002003d00fd
:1003500060001000e08018000300e00002003d0093
:1003600060011100e0811900810007004f00e000ea
:1003700002003b0060001000e08018000000060052
:100380000001be00220007000470a70003f0a100d6
:100390006509b100160032000d0035006828e10043
:1003a00006003500f0ff2f00f1ff27000300e000fa
:1003b00013003b0001002800000005000000400081
:1003c000818048008502e900fcff3a000800370000
:1003d000f88f420002003c008000eb0000000500a6
:1003e0008100d1000080d3008502e800fcff3a00c4
:1003f0000300e00002003b0060001000e0801800f5
:10040000000006004f89de00820178006b00370093
:10041000c70ade00f107b200f50fb2000800320093
:10042000e1cf4200020032000170a000240005006c
:10043000810f70000100320004080500440005002f
:10044000810f700002003a00140005008502e900e7
:100450000000400081c04800fcff3b000170a0008c
:1004600024000500811f78000100e00002003d002b
:1004700060001000e08018000300e00002003d0072
:1004800060011100e0811900490007004f00e00001
:1004900002003b0060001000e08018000000060031
:1004a000889fbe008a9fbe008c1f7800a8000700ae
:1004b000af00330003866c006450e100240032007a
:1004c0006420e100270032006150e1002200320088
:1004d0006120e100210032008b854200eb07b10072
:1004e0000134b800003ab8000804420089844a0088
:1004f000013ab8000030b8008880400009014a0085
:1005000004003300000040008180480002014900df
:100510008b05e900c909dd0083017000010032008c
:1005200013002000c814de004814dd004709de0077
:100530001200b200c808de00088470005e000700e8
:1005400001f0a1000cf0a70001f0a000910037001d
:100550006120e100930032000801be000200be00ed
:10056000f7ff37006150e100fcff3a008d003700d3
:100570006022b800060220000000d0008180d20076
:100580000482d2008582d2000000a0000202520044
:1005900083825a00030031000202420083824a0033
:1005a0000000a1000603e900f3ff3a000000060086
:1005b000efff07000400be0000000600881f78005f
:1005c000030478000300e00007003d006000100015
:1005d000e080180060011900e081190002003b0072
:1005e00001f02d00030037000400070008f0a70009
:1005f00001f0a0004f04780000000600889fbe00b4
:100600008a9fbe00008270000402710004827100a3
:10061000260032000004be000200be006011b800d7
:100620006b092000950220000182cf000a003900ea
:100630000541b1000082cf00070039000541b1003b
:100640000982cf00040039000541b1000882cf00c3
:10065000010039000541b10005425200120032008c
:100660000a003b0082817100610164008100d100b9
:100670000080d3008984d3000884d3008b05e80070
:100680000442e800f7ff3a0007003700080444007e
:1006900089844c0000004800818048008b05e900f7
:1006a0000442e900f9ff3a00030007004f05be00cd
:1006b0004f04be000000060081002000618055004c
:1006c0000b003d000b00200061fe2f000100e10047
:1006d0001d00340082817100610164008904d10031
:1006e0000884d3000000e800faff3a0071002000ff
:1006f0006100640003007000020060000900320025
:1007000061044400e0844c000988a5000500320023
:100710008b05e8006808e10002003a008904d10076
:100720000884d300f20f20000258e10005003d00cc
:10073000c75ddd00f907b200898075000800780008
:10074000000006000bf827008b0078000000050071
:100750000004be002eff07000003be000405be001b
:100760000200be002aff0700844f7500000006004b
:100770000200be006450e100050036006420e10084
:10078000020036000968a30001003a000800be001c
:100790000160a0004f0678004f05be004f04be0068
:1007a00000000600f0ff2f00f1ff2700f9ff3700df
:1007b0000002780002003700315a78000201e90097
:1007c000e00f5100fcff3a00000006000002780034
:1007d00084027800050278000043eb00b44f130058
:1007e000fbff3a0031427800845a7800e04f520013
:1007f000fcff3a0000000600000278008042eb0097
:10080000b4cf1200fdff3a000080ea000000420071
:0408100000000600de
:020000040000fa
:100814002e000000200000003a0000007374000065
:08082400617200007400000085
:020000040000fa
:10082c000000fa00043a80000480a1000490a000ab
:10083c0004a0a00004b0a000043a88009140a900d4
:10084c004187a80000000000053a80000400220047
:10085c0004826200e00f5200fbff32008940a900c5
:10086c00440580000480a1000490a00004a0a00016
:10087c00440588009140a8000080fa0000000600a2
:10088c000800fa0020079800310798006022b80091
:10089c00048fbe006022b800048fbe000400370035
:1008ac0014002000050020001e0f42005e974a0035
:1008bc002e029000be0290001e03be00840f530057
:1008cc00858f5b00f6ff35000080fa000000060003
:1008dc000e00fa0040079800510798006207980034
:1008ec006e029000eb0242000042eb00844a78005a
:1008fc000042eb00044f7800a4002000140798007d
:10090c004e029000de029000e00f5200e08f5a0081
:10091c0008003a001e029000ee0290008482420011
:10092c0004c3b300844a78001e0290000402e9005c
:10093c00140798004e029000de029000e00f520067
:10094c00e08f5a0029003d004e029000de0290001c
:10095c0060021200e0821a004407980055079800c4
:10096c0000c2eb00044f7800200037004e029000cc
:10097c00de02900024079800350798002e029000a4
:10098c00be029000a2002000030020000400be0064
:10099c00b1fe07000002be0024079800350798003e
:1009ac001e029000ee029000848242002e02900003
:1009bc00044278000443b000844a78001e02900080
:1009cc000402e900140798004e029000de02900029
:1009dc00a2002000030020000400be0056fe070009
:1009ec000002be0044079800550798004e02900084
:1009fc00de029000e00f5200e08f5a00dbff3c005b
:100a0c001e427800e14f420008003a001e0290009e
:100a1c00ee02900084824200d4c2b300844a780073
:100a2c001e0290000402e900140798001e029000b8
:100a3c000402e800040078000080fa0000000600c0
:100a4c000800fa0010079800210798003207980058
:100a5c000e8fe8001e02780014427800be0290004f
:100a6c00844a78003e0290008402e8001e02e800ee
:100a7c0014427800844a78003e0290008482e80098
:100a8c001e82e80014427800844a78003e029000ee
:100a9c00e30242001e037800630243001442780014
:100aac00844a78000080fa00000006000200fa0078
:100abc00d222a900d242a9003516800004f02f00e2
:100acc000482720034168800d642a900d622a900ee
:100adc00900120000100200069ff070044168000ef
:100aec00040f7800d622a80035168000f40f2000e1
:100afc0004826200341688001e02780044168800b6
:100b0c00d642a80090012000010020005cff0700e5
:100b1c001e02780048a2de000442780004c2ea00fb
:100b2c00044078000080fa00000006000600fa007d
:100b3c0010079800414798001e029000e8024200fe
:100b4c000042eb00844a78000002eb00040f7800ae
:100b5c00140037001e0278009e029000848242002e
:100b6c004e42900061426200844a78001e02780076
:100b7c009e029000848242001e0278001e039000a8
:100b8c0004024300144278000443b000844a780005
:100b9c004e4290000402fb000482d10044479800ae
:100bac001e0fe8001e027800e70f5200e9ff340028
:100bbc000080fa00000006000000fa000002eb00c2
:100bcc00f41688001602a900b41080000410a100cd
:100bdc000420a100b410880016a2a900b4092000ba
:100bec00f410880017e2a8001942a8000080fa004f
:100bfc00000006000000fa003504800004202000ec
:100c0c0004826200e00f520002003a0014c0b300ec
:100c1c00020037008720a9000042eb000440780056
:100c2c000080fa00000006000200fa00004f780075
:100c3c009e4278000582fb00d41088000000000062
:100c4c00ecff070000427800e04f5200fcff3a0036
:100c5c000080fa00000006000200fa00000f780085
:100c6c00050037001e027800144278001e0fe800c1
:100c7c0004407800ecff07001e0278001442780054
:100c8c00e04f5200f7ff3a000080fa000000060027
:100c9c000600fa0010079800210798000002eb00ec
:100cac00040f78000002eb00040f780008003700f6
:100cbc001e029000144278009e0290008502e8000b
:100ccc001507980004407800d7ff07001e0fe800b6
:100cdc002e0290009e027800848f5200f4ff3500a3
:100cec000080fa00000006000000fa000002eb0091
:100cfc0024088800240880000440a0000450a000b0
:100d0c00240888000453270014088800a4048000d9
:100d1c0004c0a00004d0a00004e0a100a40488003a
:100d2c008460a9008c60a80005e1a8000080fa008e
:100d3c00000006000000fa000002eb0084088800a6
:100d4c00840880000440a1000450a100840888009d
:100d5c006404200064088800b40480000480a000af
:100d6c000490a10004a0a000b404880084c0a900d1
:100d7c008cc0a80011e1a8000080fa000000060059
:100d8c000000fa000002eb00940888009408800030
:100d9c000440a0000450a0009408880004712200b4
:100dac0074088800b404800004c0a10004d0a10021
:100dbc0004e0a000b404880084e0a9008ce0a80042
:100dcc0013e1a8000080fa00000006000200fa00ff
:100ddc00c602a8000042eb00044f780044168000c5
:100dec000442780061426200844278001e4278001e
:100dfc0004c24200044f78001000200001002000c3
:100e0c009ffe070044168000044278006142620095
:100e1c00844278001e42780004c24200044f7800dd
:100e2c00100020000100200095fe070044168000f1
:100e3c000442780061426200844278001e427800cd
:100e4c0004c24200044f7800100020000100200072
:100e5c008bfe07001e427800e14f52000200340066
:100e6c0014c0b300010037000042eb0004407800ce
:100e7c000080fa00000006000200fa00c622a8005a
:100e8c000042eb00044f7800441680000402d100ad
:100e9c0061426200844278001e42780004c2420023
:100eac00044f7800100020000100200074fe0700a1
:100ebc00441680000402d100614262008442780032
:100ecc001e42780004c24200044f7800100020003b
:100edc00010020006afe0700441680000402d100c5
:100eec0061426200844278001e42780004c24200d3
:100efc00044f7800100020000100200060fe070065
:100f0c001e427800e14f52000200340014c0b300be
:100f1c00010037000042eb00044078000080fa002a
:100f2c00000006000200fa00c602a800c622a800b3
:100f3c00d262a800a416800068026200e00f520082
:100f4c00100032006480200014427800e04f520000
:100f5c000c003a005480200014427800e14f42000b
:100f6c0003003a006022b800044088001540880055
:100f7c0054802000144278000442e80004407800b9
:100f8c0005e8b700a41680004322de00614262002f
:100f9c000440780006e8b70044168000044278004c
:100fac00634f620044802000144278000402fb006e
:100fbc00cfa2de003600200007002000860f520072
:100fcc00878f5a0058003e0004600100160037005d
:100fdc002800370001003700390037001e42780026
:100fec00e34f520006003a00044080001540800098
:100ffc0061024200e0824a000440880015408800eb
:10100c001e427800e04f520040003a00044080003d
:10101c001540800061025200e0825a0004408800b2
:10102c0015408800400037001e427800e24f520005
:10103c0006003a0004408000154080006102420026
:10104c00e0824a0004408800154088001e42780067
:10105c00e14f52002f003a00044080001540800000
:10106c0061025200e0825a0004408800154088005a
:10107c002d0037001e427800e04f520006003a0067
:10108c00044080001540800061024200e0824a006a
:10109c0004408800154088001e427800e34f52003f
:1010ac001e003a000440800015408000610252008e
:1010bc00e0825a0004408800154088001a0037006e
:1010cc001e427800e14f520006003a0004408000b6
:1010dc001540800061024200e0824a000440880012
:1010ec00154088001e427800e24f52000d003a0075
:1010fc00044080001540800061025200e0825a00da
:10110c0004408800154088000700370000000000ec
:10111c00050037000000000003003700000000004d
:10112c0001003700000000001e40780004e8b70002
:10113c000080fa00000006000000fa000640800063
:10114c00174080004440800055408000040253004a
:10115c0085825b00644088007540880004408000f4
:10116c001540800044408800554088006440800051
:10117c00754080000400be000080fa0000000600ec
:10118c000c00fa00500798000440800015408000c5
:10119c004e2bdd004222de0004027300c2aade00e8
:1011ac00048fbe001e00be0093fc07000002be00b0
:1011bc00d2cc2c00c3e423000400be00b5fc070015
:1011cc000002be000400be006afc07000002be0064
:1011dc0024079800350798005e0190002e009000bf
:1011ec00be009000bafd070000027800044f980082
:1011fc000e4a9000044078000080fa0000000600bf
:10120c000000fa00e442a900e462a900dec2a900d1
:10121c0095168000f40f200004826200941688005a
:10122c00e842a900e862a900d762a800d742a90049
:10123c00d722a900d702a900e2c2a90040062000cb
:10124c00010020008efd0700d762a9004006200097
:10125c00010020008afd0700d762a800d742a90030
:10126c00d722a900d702a900e2c2a800400620009c
:10127c000100200082fd0700d762a9000071220046
:10128c00010020007efd07000080fa00000006002f
:10129c000200fa00004f7800e442a900e462a900c1
:1012ac00dec2a90095168000f40f200004826200b3
:1012bc0094168800e842a900e862a900d762a80049
:1012cc009e02fb00040820008482620014c0b3005c
:1012dc00e08f520001003c000042eb000482fb0056
:1012ec00610262004a22dd00b6168000f5bf2f00b5
:1012fc008502630004827200b41688009e02fb0013
:10130c00040420008482620014c0b300e08f5200f9
:10131c0001003c000042eb000482fb006102620011
:10132c004922dd00b6168000f5df2f008502630030
:10133c0004827200b41688009e02fb000402200096
:10134c008482620014c0b300e08f520001003c00a4
:10135c000042eb000482fb00610262004822dd00c7
:10136c00b6168000f5ef2f00850263000482720030
:10137c00b41688001e02fb00f002620014c0b30019
:10138c00e08f520001003c000042eb000482fb00a5
:10139c00610262004622dd0016178000f5fb2f006b
:1013ac008502630004827200141788004006200036
:1013bc000100200032fd0700d762a9004006200082
:1013cc00010020002efd0700d762a8001e02fb00c2
:1013dc004422dd00044f78009e02fb00040820002c
:1013ec008482620014c0b300e08f520001003c0004
:1013fc000042eb000482fb00610262004a22dd0025
:10140c00b6168000f5bf2f008502630004827200bf
:10141c00b41688009e02fb00040420008482620043
:10142c0014c0b300e08f520001003c000042eb00fe
:10143c000482fb00610262004922dd00b6168000c6
:10144c00f5df2f008502630004827200b416880059
:10145c009e02fb00040220008482620014c0b300d0
:10146c00e08f520001003c000042eb000482fb00c4
:10147c00610262004822dd00b6168000f5ef2f00f5
:10148c008502630004827200b41688001e02fb0001
:10149c00f002620014c0b300e08f520001003c0067
:1014ac000042eb000482fb00610262004622dd0078
:1014bc0016178000f5fb2f00850263000482720072
:1014cc00141788004006200001002000ecfc0700e7
:1014dc00d762a9004006200001002000e8fc0700ac
:1014ec000080fa00000006000000fa00e442a900a7
:1014fc00e462a900dec2a90095168000f40f20005a
:10150c000482620094168800e842a900e862a900ef
:10151c00d762a800d742a900d722a900d702a800f9
:10152c00e2c2a9004006200001002000d4fc070004
:10153c00d762a9004006200001002000d0fc070063
:10154c00d762a800d742a900d722a900d702a800c9
:10155c00e2c2a9004006200001002000c8fc0700e0
:10156c00d762a9004006200001002000c4fc07003f
:10157c00d762a800d742a800d722a800d702a8009b
:10158c00e2c2a8004006200001002000bcfc0700bd
:10159c00d762a9004006200001002000b8fc07001b
:1015ac00e842a900e862a900d762a800d742a900c6
:1015bc00d722a900d702a900e2c2a9004006200048
:1015cc0001002000aefc0700d762a90040062000f5
:1015dc0001002000aafc0700d762a800d742a8008f
:1015ec00d722a800d702a900e2c2a9004006200019
:1015fc0001002000a2fc0700d762a90040062000d1
:10160c00010020009efc0700fdfe0700e842a90037
:10161c00e862a900d762a800d742a900d722a90086
:10162c00d702a900e2c2a900400620000100200058
:10163c0093fc0700d762a90040062000010020009f
:10164c008ffc0700d762a800d742a900d722a800b8
:10165c00d702a800e2c2a900400620000100200029
:10166c0087fc0700d762a90040062000010020007b
:10167c0083fc070000c8b30005ff070080bb2000f7
:10168c00010020007efc07000080fa00000006002c
:10169c000800fa00881f7800300798000002eb0061
:1016ac002407980014002000040f780000c8b30031
:1016bc00f7fe07002e0290000402e80014079800c1
:1016cc00ca003700e842a800e862a900d762a80067
:1016dc001e0290000402e900be0290000482420047
:1016ec00144278008402fb0004082000848262000b
:1016fc0014c0b300e08f520001003c000042eb002c
:10170c000482fb00610262004a22dd00b6168000f2
:10171c00f5bf2f008502630004827200b4168800a6
:10172c001e0290000402e900be02900004824200f6
:10173c00144278008402fb000404200084826200be
:10174c0014c0b300e08f520001003c000042eb00db
:10175c000482fb00610262004922dd00b6168000a3
:10176c00f5df2f008502630004827200b416880036
:10177c001e0290000402e900be02900004824200a6
:10178c00144278008402fb00040220008482620070
:10179c0014c0b300e08f520001003c000042eb008b
:1017ac000482fb00610262004822dd00b616800054
:1017bc00f5ef2f008502630004827200b4168800d6
:1017cc001e0290000402e900be0290000482420056
:1017dc00144278000402fb00f002620014c0b30053
:1017ec00e08f520001003c000042eb000482fb0041
:1017fc00610262004622dd0016178000f5fb2f0007
:10180c00850263000482720014178800e001200036
:10181c00010020001afc0700d762a900e00120009b
:10182c000100200016fc0700d762a8001e029000e1
:10183c000402e900be0290000482420014427800c7
:10184c000402fb00e802620014c0b300e08f5200f7
:10185c0001003c000042eb000482fb0061026200cc
:10186c004a22dd00b6168000f5bf2f00850263000a
:10187c0004827200b41688001e0290000402e90073
:10188c00be02900004824200144278000402fb0065
:10189c00e402620014c0b300e08f520001003c006f
:1018ac000042eb000482fb00610262004922dd0071
:1018bc00b6168000f5df2f008502630004827200eb
:1018cc00b41688001e0290000402e900be029000cb
:1018dc0004824200144278000402fb00e20262001f
:1018ec0014c0b300e08f520001003c000042eb003a
:1018fc000482fb00610262004822dd00b616800003
:10190c00f5ef2f008502630004827200b416880084
:10191c001e0290000402e900be0290000482420004
:10192c00144278000402fb00e102620014c0b30010
:10193c00e08f520001003c000042eb000482fb00ef
:10194c00610262004622dd0016178000f5fb2f00b5
:10195c00850263000482720014178800e0012000e5
:10196c0001002000c6fb0700d762a900e00120009f
:10197c0001002000c2fb07001e0290006f026200f3
:10198c00e00f520016003a001e027800e20f5200df
:10199c0009003200e30f52000c003200e10f52003c
:1019ac000f003a0000ccb30039fe070024002000e1
:1019bc00040f78000a00370000c9b30034fe07009a
:1019cc0034002000040f78000500370000cdb30070
:1019dc002ffe070044002000040f780000000000d8
:1019ec001e0290000402e800140798001e049000e8
:1019fc003e0090007dfb0700000278008402780016
:101a0c002e029000048242000402e800840f54006d
:101a1c002cff39004f0478000080fa00000006000b
:101a2c000400fa000002eb00040f78000002eb0047
:101a3c0014079800e4c2a900e4e2a900e502a8009a
:101a4c00007d2000010020008dfb0700c40329004d
:101a5c00040f7800f4fb2d00140798009e009000f2
:101a6c001e00780031fa07000080fa000000060022
:101a7c000200fa00000f78008740a9004511800091
:101a8c000440200004826200e00f52000300320088
:101a9c001e0278005411880004003700f40f200057
:101aac001e026200541188000000000034118000f6
:101abc0062026200e00f5200fcff3a0000000000de
:101acc00350480000440200004826200e00f5200c4
:101adc00fbff320054118000040f78000080fa00e4
:101aec00000006000000fa0026c2a9000002eb006c
:101afc005411880000000000341180006102620063
:101b0c00e00f5200fcff32003411800061026200d1
:101b1c00e00f52000c00320026c2a90045118000d3
:101b2c000440200004826200e00f520003003200e7
:101b3c0054118000044278000400370054118000d6
:101b4c00044278000100370000c2eb00044078002a
:101b5c000080fa00000006000000fa00a4e020005b
:101b6c0001082000f008200004000100a4e020007f
:101b7c00310020003008200004000100a4e0200007
:101b8c00310120004008200004000100a4e02000e6
:101b9c00110120005008200004000100a4e02000e6
:101bac00310120006008200004000100a4e02000a6
:101bbc00310120002008200004000100a4e02000d6
:101bcc00810420001008200004000100a4e0200083
:101bdc008000eb000008200004000100a4e02000bd
:101bec008000eb00f0082000040001000080fa00e7
:101bfc00000006000000fa00e5a2a90088ff07001b
:101c0c000080fa00000006000200fa00004f780085
:101c1c0011479800e5a2a900e9a2a8009e4278000d
:101c2c000582fb000400780091ff07001e42900023
:101c3c000482fb00040078008dff0700e5a2a900d8
:101c4c00e9a2a9000080fa00000006000400fa00d6
:101c5c0020479800e5a2a900e9a2a8002e42900016
:101c6c000482fb000400780081ff07009dff070041
:101c7c0000427800044f7800e5a2a900e9a2a9006f
:101c8c001e427800044078000080fa000000060034
:101c9c000200fa000040eb00ecff07000042780065
:101cac00044f78001e4278008482fb00f407200069
:101cbc000482620044a2de00144798001e42900089
:101ccc006a22b90004027800144798009e427800fa
:101cdc006fc262009e42900004c2420014479800fa
:101cec001e429000044078000080fa0000000600bc
:101cfc000200fa0010c0b300d4ff070000427800c5
:101d0c00044f78001e4278008482fb00f407200008
:101d1c000482620044a2de00144798001e42900028
:101d2c006a22b90004027800144798009e42780099
:101d3c006fc262009e42900004c242001447980099
:101d4c001e429000044078000080fa00000006005b
:101d5c000200fa0020c0b300bcff0700004278006c
:101d6c00044f78001e4278008482fb00f4032000ac
:101d7c000482620044a2de00144798001e429000c8
:101d8c006a22b90004027800144798009e42780039
:101d9c006fc262009e42900004c242001447980039
:101dac001e429000044078000080fa0000000600fb
:101dbc000200fa0030c0b300a4ff07000042780014
:101dcc00044f78001e427800044078000080fa002e
:101ddc00000006000200fa0040c0b3009bff0700a1
:101dec0000427800044f78001e4278008482fb0089
:101dfc00f40720000482620044a2de00144798001d
:101e0c001e4290006a22b900040278001447980020
:101e1c009e4278006fc262009e42900004c2420053
:101e2c00144798001e429000044078000080fa008d
:101e3c00000006000200fa0050c0b30083ff070048
:101e4c0000427800044f78001e4278008482fb0028
:101e5c00f40720000482620044a2de0014479800bc
:101e6c001e4290006a22b9000402780014479800c0
:101e7c009e4278006fc262009e42900004c24200f3
:101e8c00144798001e429000044078000080fa002d
:101e9c00000006000200fa0060c0b3006bff0700f0
:101eac0000427800044f78009e4278000582fb00c7
:101ebc004422de00144798001e4290006a22b900aa
:101ecc0004027800144798009e4278006fc26200aa
:101edc009e42900004c24200144798001e4290009b
:101eec00044078000080fa00000006005e00fa0052
:101efc00602f98006a02470022000900001aeb00cc
:101f0c00d4f42600e546260054079800650798008f
:101f1c00149627000500200074079800050f980000
:101f2c000002eb00140f980044552700553627008b
:101f3c00240f9800350f98004416260095072000b2
:101f4c00440f9800550f98000002eb00640f9800a6
:101f5c007e0247007655260047e62600068abe001c
:101f6c00640242005636270047162600068abe0039
:101f7c006402420095072000050a78000482e800fc
:101f8c00840220000e0242004685260057272700b7
:101f9c00068abe00640242003647260017962700c8
:101fac00068abe00640242008002eb00050a78003b
:101fbc000482e8006424270095462600141f98002c
:101fcc00251f98001496270005002000341f980048
:101fdc00451f98000002eb00541f9800c40320001a
:101fec000e0242003615260047572700068abe000f
:101ffc00640242002647260017962700068abe0078
:10200c00640242008002eb00050a78000482e800ba
:10201c0034552700e54626003427980045279800bc
:10202c001496270005002000542798006527980077
:10203c000002eb007427980015ff0700004278009f
:10204c00044f78002aff07000042780014479800dc
:10205c003fff070000427800244798008dff0700df
:10206c00004278000482fb002407980071ff0700ef
:10207c00004278006447980056ff07000042780041
:10208c00744798004aff070000427800044f9800fc
:10209c00ae029000047d200004824200cfa2de003c
:1020ac00060520000e034300060178000400be0064
:1020bc0007fa070000027800144f98001e4a90009f
:1020cc000402fb00050520008e82420004824200bf
:1020dc00840078006e289000b9f907006e289000f3
:1020ec00c2f9070000027800ee2a90000482420038
:1020fc0022002000a140280004007800a9f9070064
:10210c006e4290000402fb00cfa2de000605200008
:10211c000e034300060178000400be00ecf9070032
:10212c0000027800144f98001e4a90000402fb0035
:10213c00050520008e824200048242008400780053
:10214c006e2890009ef907006e289000a7f90700f2
:10215c0000027800ee2a9000048242002200200047
:10216c00a1402800040078008ef907007e42900000
:10217c000402fb00cfa2de00060520000e03430084
:10218c00060178000400be00d1f9070000027800b7
:10219c00144f98001e4a90000402fb000505200015
:1021ac008e82420004824200840078006e289000e7
:1021bc0083f907006e2890008cf907000002780064
:1021cc00ee2a90000482420022002000c140280028
:1021dc000400780073f907002e4290000402fb0003
:1021ec00cfa2de00060520000e0343000601780096
:1021fc000400be00b6f9070000027800144f9800e6
:10220c001e4a90000402fb00050520008e8242004d
:10221c0004824200840078006e28900068f9070060
:10222c006e28900071f9070000027800ee2a9000e9
:10223c000482420022002000e140280004007800c3
:10224c0058f907001e4290000402fb00cfa2de00ea
:10225c00060520000e034300060178000400be00b2
:10226c009bf9070000027800144f98001e4a90005a
:10227c000402fb00050520008e824200048242000d
:10228c00840078006e2890004df907006e289000ad
:10229c0056f9070000027800ee2a900004824200f2
:1022ac0022002000e1402800040078003df90700de
:1022bc001e4278000402fb00cfa2de0006052000bf
:1022cc000e034300060178000400be0080f90700ed
:1022dc0000027800144f98001e4a90000402fb0084
:1022ec00050520008e8242000482420084007800a2
:1022fc006e28900032f907006e2890003bf9070019
:10230c0000027800ee2a9000048242002200200095
:10231c00c14028000400780022f907006a03470036
:10232c000e4a90000402fb000402e9006a22b90084
:10233c000402780004024300840078006e289000a8
:10234c001ff907000080fa00000006000000fa00e8
:10235c00e582a900b2fd07000080fa00000006002b
:10236c000000fa00e582a900e982a90060002000c3
:10237c00bffd0700e582a900e982a8000080fa00f1
:10238c00000006000800fa001007980021079800ca
:10239c0032079800f2ff0700e582a900e982a90044
:1023ac0020002000b2fd07001e0290004822de0033
:1023bc0004007800aefd07009e029000f40f200090
:1023cc000482620004007800a9fd07000002eb0003
:1023dc00040f7800090037002e0290001442780098
:1023ec000402fb00ae0290008502e800250798006d
:1023fc00040078009efd07001e0fe8003e029000ce
:10240c009e027800848f5200f3ff3500e582a9000c
:10241c00e982a8000080fa00000006000800fa001b
:10242c00100798002107980032079800e582a90050
:10243c00e982a900300020008dfd07001e029000eb
:10244c004822de000400780089fd07009e029000ff
:10245c00f40f2000048262000400780084fd070061
:10246c000002eb00040f7800080037009dfd070008
:10247c0000427800ae029000844a78002e02900050
:10248c000402e800240798001e0fe8003e029000aa
:10249c009e027800848f5200f4ff3500e582a9007b
:1024ac00e982a8000080fa00000006000200fa0091
:1024bc00e582a900e982a900500020006cfd07000c
:1024cc0088fd070000427800044f7800e582a900df
:1024dc00e982a8001e427800044078000080fa00cf
:1024ec00000006000600fa000e82e8004200200000
:1024fc00840078000000eb00c8ff07000e8fe80096
:10250c001e0278001402be000400be000080fa0017
:10251c00000006000400fa00000f78001107980074
:10252c000082eb0044158800effb0700b1fd0700ab
:10253c0086ff0700baf807009ff907000041280042
:10254c0053fc07000b010700ffff37003600f800b3
:10255c00809fbe00829fbe00849fbe00869fbe00ef
:10256c003400f80000002000a00188005400fa009c
:10257c008460a900cda2a900841680004d22de0043
:10258c006142620015c0b30004c252006142620095
:10259c000482fb00610262004d22dd008616800081
:1025ac00f5ff2d00850263000482720084168800fa
:1025bc00d202a900b4168000044278006142620085
:1025cc0015c0b30004c25200614262000482fb00d9
:1025dc0061026200b6168000e5ff2f0085026300e1
:1025ec0004827200b416880030f9070000427800ab
:1025fc00044f78006022b800140798002507980053
:10260c00660247001b000900001aeb000e82e8006e
:10261c000400780035fe07000a0037000e82e8003f
:10262c000400780071f80700000278008e82e80040
:10263c000482420022002000c140280004007800df
:10264c0058f807000e82e8000400780067f80700cd
:10265c0000027800ff0f5200f0ff3600e403200068
:10266c000e02420004007800c5fa07000042780010
:10267c00144798001e4290000402fb00e503200062
:10268c008e824200848242000e82e800850078002f
:10269c00040078004af807000e82e8000400780075
:1026ac0052f80700000278008e82e8000482420093
:1026bc0022002000c14028000400780039f80700ef
:1026cc0054802000144278000402fb00cfa2de00ec
:1026dc00e60320000e034300060178000400be0050
:1026ec007bf8070000027800144798001e42900007
:1026fc000402fb00e50320008e824200848242002b
:10270c000e82e80085007800040078002cf80700a1
:10271c000a0037000e82e8000400780033f8070046
:10272c00000278008e82e800048242002200200021
:10273c00c1402800040078001af807000e82e80057
:10274c000400780029f8070000027800f502200048
:10275c00850f5200efff3600a40420000e02420049
:10276c009e40780004007800f0f80700a5042000d3
:10277c008e8242000e82e80085007800040078000a
:10278c000ff807000a0037000e82e80004007800fa
:10279c0016f80700000278008e82e80004824200de
:1027ac0022002000c140280004007800fdf707003b
:1027bc000e82e800040078000cf807000002780094
:1027cc00f5032000850f5200efff36000e82e80063
:1027dc0004007800aefb07000080fa003400f9001a
:1027ec004f03be004f02be004f01be004f00be00a3
:1027fc003600f900004006003600f800809fbe004d
:10280c00829fbe00849fbe00869fbe003400f800ed
:10281c0000002000a00188000000fa0084c0a9007c
:10282c00c0f907000080fa003400f9004f03be0025
:10283c004f02be004f01be004f00be003600f90033
:10284c00004006003600f800809fbe00829fbe004c
:10285c00849fbe00869fbe003400f800000020005c
:10286c00a00188000000fa0084e0a900cdc2a900f4
:10287c00841680004e22de006142620015c0b30057
:10288c0004c25200614262000482fb0061026200d9
:10289c004e22dd0086168000f5ff2b0085026300ba
:1028ac00048272008416880023fa07000080fa0064
:1028bc003400f9004f03be004f02be004f01be00b2
:1028cc004f00be003600f900004006003600f8004c
:1028dc00809fbe00829fbe00849fbe00869fbe006c
:1028ec003400f80000002000a00188000400fa0069
:1028fc008940a90004408000154080000e0178003a
:10290c000400be004ef80700420020008e00780044
:10291c000000eb009bfe07000080fa003400f90079
:10292c004f03be004f02be004f01be004f00be0061
:10293c003600f900004006001000fa0004012000e7
:10294c00040f7800445f20001407980004e1200075
:10295c002407980084be2000340798000201200050
:10296c008e0078000000eb0086fe07000080fa0065
:10297c00000006000200fa00000f7800020120009f
:10298c009e0078000000eb00a4fe07000080fa0017
:10299c00000006001600fa00200f98000e82e800d6
:1029ac0004007800f3ff07009e0290002e0a9000ae
:1029bc000402420004824200048fe80072024700c5
:1029cc0022002000840078001e00780093fe07008f
:1029dc001e0a9000040078000080fa000000060037
:1029ec001600fa00100f9800210f98000e82e800d4
:1029fc0004007800dfff07009e0290001e0a900082
:102a0c000402420004824200048fe8007402470072
:102a1c0022002000840078001e00780059fe070078
:102a2c000080fa00000006001600fa00640247005d
:102a3c0004007800cfff07000082eb00040f780041
:102a4c002e0290000482e800140798001200370050
:102a5c007402470022002000840078001e009000c1
:102a6c006efe07002e0a9000e00f520007003a009d
:102a7c009e0290002e02900004825200040242003a
:102a8c00040f78001e0fe900090037001e029000a9
:102a9c000482e800140798009e0290002e03900018
:102aac003e02900004024300848f5200e8ff39007c
:102abc001e027800040078000080fa000000060076
:102acc001600fa006402470004007800a9ff070012
:102adc000082eb00040f7800ae0290003e029000e2
:102aec0004824200140798000e003700740247005d
:102afc0012002000840078001e00900047fe0700a2
:102b0c004e529000e04f520003003a001e0290001b
:102b1c00040f78000b0037001e0290006a0242007e
:102b2c00140798009e0290002e0390003e02900025
:102b3c00040343004e02900004024300848f5200b1
:102b4c00eaff39001e027800040078000080fa00c9
:102b5c00000006000400fa00000f7800110798002e
:102b6c000e82e800a2002000840078001e0078008d
:102b7c0004fe07000080fa00000006000400fa00c2
:102b8c00000f7800110798000e82e800a2002000c8
:102b9c00840078001e00780020fe07000080fa00f8
:102bac00000006002200fa006602470004007800cc
:102bbc0070ff07000082eb00040f78000082eb002e
:102bcc0014079800be0290004e029000048242004e
:102bdc0024079800190037007602470012002000e5
:102bec00840078002e0090000cfe07006e529000be
:102bfc00e04f520005003a001e027800e10f42003f
:102c0c0002003a002e029000040f78006e529000e1
:102c1c00e04f5200060032001e027800e10f420025
:102c2c00030032002e029000140798000b003700ae
:102c3c002e0290006a02420024079800be02900007
:102c4c004e029000848242005e0290008482420018
:102c5c002e029000848f5200dfff3e001e02900077
:102c6c00e10f420019003a000042eb00210037004e
:102c7c0077024700840078001e009000bfff070019
:102c8c007e529000e04f520002003a0014c0b30094
:102c9c001800370077024700840078001e00780087
:102cac00acff0700120020008000eb001e0090001b
:102cbc00b4fd07001e0290006a024200140798003f
:102ccc001e0278006a0f420001003700000000006d
:102cdc00be0290004e029000848242005e02900080
:102cec00848242001e029000848f5200e0ff3e005e
:102cfc0014c0b300044078000080fa000000060005
:020000040000fa
:102d0c00000800001000000002000000000000009d
:102d1c0000ffff00000000000000000000000000a9
:082d2c0000000000000000009f
:020000040000fa
:0200000401f009
:04000000e7bf000056
:020000040000fa
:0200000401f009
:04000400ff7f00007a
:020000040000fa
:0200000401f009
:040008004fff0000a6
:020000040000fa
:0200000401f009
:04000c00ffff0000f2
:020000040000fa
:0200000401f009
:04001000ffff0000ee
:020000040000fa
:0200000401f009
:04001400ffff0000ea
:020000040000fa
:0200000401f009
:04001800ffff0000e6
:00000001FF
