:020000040000fa
:080000000001040000000000f3
:020000040000fa
:10000800bc010000bc010000bc010000bc010000f4
:10001800bc010000bc010000bc010000bc010000e4
:10002800bc010000bc010000bc0100003218000047
:10003800bc010000bc010000301900005619000086
:10004800bc010000bc010000bc010000bc010000b4
:10005800bc010000bc010000bc010000bc010000a4
:10006800bc010000bc010000bc010000bc01000094
:10007800bc010000b6190000bc010000bc01000072
:10008800bc010000bc010000bc0100001e1a0000f9
:10009800bc010000bc010000bc010000bc01000064
:1000a800bc010000bc010000bc010000bc01000054
:1000b800bc010000bc010000bc010000bc01000044
:1000c800bc010000bc0100005a1a0000bc0100007d
:1000d800bc010000bc010000bc010000bc01000024
:1000e800bc010000bc010000bc010000bc01000014
:0800f800bc010000bc01000086
:020000040000fa
:10010800bc010000bc010000bc010000bc010000f3
:10011800bc010000bc010000bc010000bc010000e3
:10012800bc010000bc010000bc0100003218000046
:10013800bc010000bc010000301900005619000085
:10014800bc010000bc010000bc010000bc010000b3
:10015800bc010000bc010000bc010000bc010000a3
:10016800bc010000bc010000bc010000bc01000093
:10017800bc010000b6190000bc010000bc01000071
:10018800bc010000bc010000bc0100001e1a0000f8
:10019800bc010000bc010000bc010000bc01000063
:1001a800bc010000bc010000bc010000bc01000053
:1001b800bc010000bc010000bc010000bc01000043
:1001c800bc010000bc0100005a1a0000bc0100007c
:1001d800bc010000bc010000bc010000bc01000023
:1001e800bc010000bc010000bc010000bc01000013
:0801f800bc010000bc01000085
:020000040000fa
:10020000cf8d20000e7f22000e018800000000002c
:1002100000012000200288000c00070040d92200c5
:100220000100200011000700000020000000e00095
:100230000200320000000200000000001818020056
:10024000000000000040da000000fe004440a90069
:10025000800420000000e0000300320000002000c5
:10026000a00188004440a800000006009101880019
:10027000800078000000eb0015003700e2804000ad
:1002800032a0b4009101ba00e280400032a0b40074
:100290009102ba00e280400032a0b4000002eb00fc
:1002a000472bde00f507b200602ce10004003a00a5
:1002b0000059eb008301e900fdff3e000400370018
:1002c0006128e100010032000082eb000400070019
:1002d0001101ba000200e000e8ff3a000000060049
:1002e0003159ba008301e9000c0032002159ba00eb
:1002f0008301e900080032000400e00003003a0036
:10030000e280400032a0b400f5ff370011d9ba00f6
:100310008301e900faff3a008100e800e180400033
:1003200032a0b400000006009e110400000000008e
:10033000941c040000000000f61b040000000000f4
:100340003621040000000000ce2004000000000060
:100350007220040000000000f21c040000000000f5
:10036000661f040000000000461e0400000000009c
:10037000c81f0400000000000040da000000fe007a
:10038000901c8800a11c8800000006000002eb0001
:100390008180fb0009003700e04f5100030032006c
:1003a00065372000e14f5100010032006538200020
:1003b00065487a000402e8000000e800810f52005e
:1003c000f5ff350000000600401bde00070020009e
:1003d000e1cf520008003200e2cf52000a003200a2
:1003e000001b8800161b8800221b88000003eb00fe
:1003f0008483fb0012003700801a8800961a880058
:10040000a21a8800f9ff3700001a8800161a88001f
:10041000221a8800f5ff370060352000e1cf520036
:100420000400320060362000e2cf520001003a00a2
:100430006034200011707b000603e8008100e800b2
:10044000870f5300f4ff35006f426200e1cf520086
:1004500003003200e2cf520013003a0009003700d7
:10046000ef026200c32add00a61a800074f82f0094
:100470000402630005027200a41a88005e63a800eb
:1004800000000600ef026200c32add00261a800089
:1004900074f82f000402630005027200241a880019
:1004a0004e63a80000000600ef026200c32add00d0
:1004b000261b800074f82f000402630005027200fe
:1004c000241b88006e63a80000000600889fbe0001
:1004d000401cde00090020000003fb00cfb3de005b
:1004e000e50f5300e08f5b001e003e000660010038
:1004f00005003700070037000a0037000d003700fd
:100500001000370013003700011888001818880001
:1005100016003700411888005818880062188800b3
:10052000130037008118880098188800a2188800e6
:100530000f003700c1188800d8188800e21888001a
:100540000b0037000119880018198800221988004b
:10055000070037004119880058198800621988007f
:100560000300370001188800181888002218880036
:100570004f04be0000000600401ade000500200007
:10058000e04f500006003200e14f500004003a00f6
:10059000c1198800d4198800e219880000000600fb
:1005a0008119880094198800a219880000000600ab
:1005b000801c880000000600e04f5000040032005c
:1005c000e14f500002003a00f11b880000000600d5
:1005d000711c880000000600e14f5000030032004b
:1005e000e24f500005003a0002003700f11a88007f
:1005f00000000600711a880000000600711b8800c8
:10060000000006009623ef008760a900c01c880048
:10061000e7826000cc2add0006058000f4ff280098
:10062000040263000502720004058800e88060008f
:10063000c308de00e1806000cb08dd0074048000a8
:1006400004b0a100010272007404880000000600da
:100650004011880031118800000006000001eb0005
:1006600057000700040032000200200003f82300b6
:1006700001f0a6006601070000000600889fbe008a
:100680008a9fbe008c1f7800f2000700f90033003b
:1006900003866c006450e1002e0032006420e1000b
:1006a000330032006150e1002f0032006120e10090
:1006b0003100320085855500eb07b00009002000ad
:1006c00008042000050037000804440089844c0019
:1006d0000a0031000603430087834b0000015300ea
:1006e00081815b00f8ff33000203be000800a00018
:1006f0000804440089844c00f6ff3900c639dd0047
:100700008301730001003200130020008904d1002e
:100710000884d3000998a300050032000800a70050
:100720000300a0008904d1000884d3008b05e800f1
:100730008904d1000884d3000001eb000281d200bb
:100740008900070001f0a1000cf0a70001f0a00053
:10075000d10037006420e100d30032000801be0060
:100760000200be00f7ff37006120e100ce0032003a
:100770006000b800f3ff37000000200001f82700f8
:10078000f0ff3700839f68000100e00002003d0099
:1007900060001000e08018000300e00002003d004f
:1007a00060011100e0811900050107004f00e00021
:1007b00002003b0060001000e0801800000006000e
:1007c000889fbe008a9fbe000003be008c00070009
:1007d0008505780082815200020020006220e1003d
:1007e00004003a00f307b100040035007718e10077
:1007f000040035000600be00140037006000b80099
:100800000f003700f50f2000faff2f008502d100fe
:100810000a85d3008301e900fcff3b00818462006c
:1008200000046500890f7400f2ff32008582ea003f
:100830000a85ea0081846200000465004a0007001e
:1008400007f0a70001f0a0000081eb000200e0002b
:100850004f05be004f04be0000000600140020003b
:10086000480137000001be00650007000470a700c2
:1008700003f0a1006509b100160032000d0035003b
:100880006828e10006003500f0ff2f00f1ff270087
:100890000300e00013003b000100280000000500f9
:1008a00000004000818048008502e900fcff3a001a
:1008b00008003700f88f420002003c008000eb0087
:1008c000000005008100d1000080d3008502e8000f
:1008d000fcff3a000300e00002003b006000100053
:1008e000e0801800000006000001be004400070080
:1008f0000470a70003f0a10003f8a30013003a005e
:100900006509b10010003200090035006928e100d6
:100910000200350001002800000005000000400032
:10092000818048008502e900fcff3a0000000600d3
:10093000f88f4200050035008100d1000080d3000f
:100940008502e800fcff3a00000006008000eb0092
:10095000000005004f89de00820178002401370085
:100960006011b8003201370081002000618055001d
:100970000b003d000b00200061fe2f000100e10094
:100980001d00340082817100610164008904d1007e
:100990000884d3000000e800faff3a00710020004c
:1009a0006100640003007000020060000900320072
:1009b00061044400e0844c000988a5000500320071
:1009c0008b05e8006808e10002003a008904d100c4
:1009d0000884d300f20f20000258e10005003d001a
:1009e000c75ddd00f907b200898075000800780056
:1009f000000006000bf827008b00780000000500bf
:100a0000c70ade00f107b200f50fb200080032009d
:100a1000e1cf4200020032000170a0002400050076
:100a2000810f700001003200040805004400050039
:100a3000810f700002003a00140005008502e900f1
:100a40000000400081c04800fcff3b000170a00096
:100a5000240005000004be00e9ff07000003be00fb
:100a60000405be000200be00e5ff0700844f7500cc
:100a7000000006000200be006450e10005003600e0
:100a80006420e100020036000968a30001003a007a
:100a90000800be000160a0004f0678004f05be00b0
:100aa0004f04be0000000600f0ff2f00f1ff2700fa
:100ab000f9ff3700811f78000100e00002003d00cf
:100ac00060001000e08018000300e00002003d001c
:100ad00060011100e0811900490007004f00e000ab
:100ae00002003b0060001000e080180000000600db
:100af000889fbe008a9fbe008c1f7800d5ff07002c
:100b0000dcff330003866c006450e10024003200f7
:100b10006420e100270032006150e1002200320031
:100b20006120e100210032008b854200eb07b1001b
:100b30000134b800003ab8000804420089844a0031
:100b4000013ab8000030b8008880400009014a002e
:100b50000400330000004000818048000201490089
:100b60008b05e900c909dd00830170000100320036
:100b700013002000c814de004814dd004709de0021
:100b80001200b200c808de000884700076ff07007b
:100b900001f0a1000cf0a70001f0a000beff37009b
:100ba0006120e100c0ff32000801be000200be006b
:100bb000f7ff37006150e100fcff3a00baff370051
:100bc0006022b800060220000000d0008180d20020
:100bd0000482d2008582d2000000a00002025200ee
:100be00083825a00030031000202420083824a00dd
:100bf0000000a1000603e900f3ff3a000000060030
:100c0000efff07000400be000000060003f0a20092
:100c1000889fbe008a9fbe008c1f78008dff070052
:100c200094ff33006450e1004f0032006420e10083
:100c30005200320003826c0007003b000905d0001f
:100c40000306d000820f54000c065d00020039003c
:100c50000200320089017800030678008582550081
:100c600004003d000003fd008103fd008502ea0051
:100c70008b854200840f720002003b006000100070
:100c8000e08018006011b8000005eb007a28e10050
:100c90000a00390006007800c75ddd00f707b200e2
:100ca000878075002d003700828171000a0178006d
:100cb000610560008180d1000080d3008502e900d9
:100cc000f9ff3b00060440008784480002003b0017
:100cd00060041400e0841c000988a30007003200af
:100ce0008a81710082817100610164008904d100f0
:100cf0000884d3008b05e800170037000978a300ab
:100d000013003a000b00e000130034008b05e900eb
:100d10000804440089844c000a4474000978a30044
:100d20000d003a000b00e000070034008b05e900dd
:100d30000804440089844c0001003a000b002000a4
:100d40000978a300f7ff32000001eb000200370032
:100d5000828171000a01780003ff07000cf0a700f0
:100d600001f0a0004cff37006420e10002003a00cf
:100d7000838f6c004cff33000801be000200be00f0
:100d800045ff3700889fbe008a9fbe00841f780001
:100d900030ff07004f00780011003300f0ff2f00f4
:100da000838f6c0006003b00040565000a00a70065
:100db0000800370009f0a6001000200008003700e6
:100dc000820f5400838f5c00030039001000200064
:100dd00001003e000000200009f0a7000000ea002a
:100de0004f05be004f04be000000e00000000600fa
:100df000881f7800030478000300e00007003d002e
:100e000060001000e080180060011900e081190006
:100e100002003b0001f02d00030037000400070032
:100e200008f0a70001f0a0004f04780000000600c1
:100e3000889fbe008a9fbe0000827000040271007d
:100e400004827100260032000004be000200be00d1
:100e50006011b8006b092000950220000182cf00cc
:100e60000a0039000541b1000082cf0007003900b7
:100e70000541b1000982cf00040039000541b100ed
:100e80000882cf00010039000541b100054252003f
:100e9000120032000a003b0082817100610164008f
:100ea0008100d1000080d3008984d3000884d3005e
:100eb0008b05e8000442e800f7ff3a00070037001e
:100ec0000804440089844c000000480081804800e8
:100ed0008b05e9000442e900f9ff3a00a2fe070091
:100ee0004f05be004f04be0000000600000278005f
:100ef00002003700315a78000201e900e00f51008a
:100f0000fcff3a000000060000027800840278002e
:100f1000050278000043eb00b44f1300fbff3a00da
:100f200031427800845a7800e04f5200fcff3a00ca
:100f300000000600000278008042eb00b4cf1200ef
:100f4000fdff3a000080ea000000420000000600b9
:020000040000fa
:100f50002e000000200000003a000000646f000036
:100f60006e5f000061760000746f00005f3100006a
:100f7000006f0000735f0000330000007631000056
:100f80002e300000003100002e3000000063000011
:100f9000616e0000310000006d610000726b0000a6
:100fa0005f64000069730000746100006e630000fc
:100fb0006500000064650000666500006e63000067
:100fc000655f0000646900006167000072610000f5
:100fd0006d00000073740000617200007400000076
:020000040000fa
:100fe0000000fa00043a80000480a1000490a000f0
:100ff00004a0a00004b0a000043a88009140a90019
:101000004187a80000000000053a8000040022008b
:1010100004826200e00f5200fbff32008940a90009
:10102000440580000480a1000490a00004a0a0005a
:10103000440588009140a8000080fa0000000600e6
:101040000800fa0020079800310798006022b800d5
:10105000048fbe006022b800048fbe000400370079
:1010600014002000050020001e0f42005e974a0079
:101070002e029000be0290001e03be00840f53009b
:10108000858f5b00f6ff35000080fa000000060047
:101090000e00fa0040079800510798006207980078
:1010a0006e029000eb0242000042eb00844a78009e
:1010b0000042eb00044f7800a400200014079800c1
:1010c0004e029000de029000e00f5200e08f5a00c6
:1010d00008003a001e029000ee0290008482420056
:1010e00004c3b300844a78001e0290000402e900a1
:1010f000140798004e029000de029000e00f5200ac
:10110000e08f5a0029003d004e029000de02900060
:1011100060021200e0821a00440798005507980008
:1011200000c2eb00044f7800200037004e02900010
:10113000de02900024079800350798002e029000e8
:10114000be029000a2002000030020000400be00a8
:1011500058fe07000002be002407980035079800db
:101160001e029000ee029000848242002e02900047
:10117000044278000443b000844a78001e029000c4
:101180000402e900140798004e029000de0290006d
:10119000a2002000030020000400be0079fd07002b
:1011a0000002be0044079800550798004e029000c8
:1011b000de029000e00f5200e08f5a00dbff3c009f
:1011c0001e427800e14f420008003a001e029000e3
:1011d000ee02900084824200d4c2b300844a7800b8
:1011e0001e0290000402e900140798001e029000fd
:1011f0000402e800040078000080fa000000060005
:101200000800fa001007980021079800320798009c
:101210000e8fe8001e02780014427800be02900093
:10122000844a78003e0290008402e8001e02e80032
:1012300014427800844a78003e0290008482e800dc
:101240001e82e80014427800844a78003e02900032
:10125000e30242001e037800630243001442780058
:10126000844a78000080fa00000006000200fa00bc
:10127000d222a900d242a9003516800004f02f0026
:101280000482720034168800d642a900d622a90032
:10129000900120000100200069ff07004416800033
:1012a000040f7800d622a80035168000f40f200025
:1012b00004826200341688001e02780044168800fa
:1012c000d642a80090012000010020005cff07002a
:1012d0001e02780048a2de000442780004c2ea0040
:1012e000044078000080fa00000006000600fa00c2
:1012f00010079800414798001e029000e802420043
:101300000042eb00844a78000002eb00040f7800f2
:10131000140037001e0278009e0290008482420072
:101320004e42900061426200844a78001e027800ba
:101330009e029000848242001e0278001e039000ec
:1013400004024300144278000443b000844a780049
:101350004e4290000402fb000482d10044479800f2
:101360001e0fe8001e027800e70f5200e9ff34006c
:101370000080fa00000006000000fa000002eb0006
:10138000f41688001602a900b41080000410a10011
:101390000420a100b410880016a2a900b4092000fe
:1013a000f410880017e2a8001942a8000080fa0093
:1013b000000006000000fa00350480000420200030
:1013c00004826200e00f520002003a0014c0b30031
:1013d000020037008720a9000042eb00044078009b
:1013e0000080fa00000006000200fa00004f7800ba
:1013f0009e4278000582fb00d410880000000000a7
:10140000ecff070000427800e04f5200fcff3a007a
:101410000080fa00000006000200fa00000f7800c9
:10142000050037001e027800144278001e0fe80005
:1014300004407800ecff07001e0278001442780098
:10144000e04f5200f7ff3a000080fa00000006006b
:101450000600fa0010079800210798000002eb0030
:10146000040f78000002eb00040f7800080037003a
:101470001e029000144278009e0290008502e8004f
:101480001507980004407800d7ff07001e0fe800fa
:101490002e0290009e027800848f5200f4ff3500e7
:1014a0000080fa00000006000000fa000002eb00d5
:1014b00024088800240880000440a0000450a000f4
:1014c0002408880004352c0014088800a404800037
:1014d00004c0a10004d0a00004e0a100a40488007e
:1014e0008460a9008c60a80005e1a8000080fa00d3
:1014f000000006000000fa000002eb0084088800eb
:10150000840880000440a1000450a10084088800e1
:101510004406200064088800b40480000480a00011
:101520000490a10004a0a000b404880084c0a90015
:101530008cc0a80011e1a8000080fa00000006009d
:101540000000fa000002eb00940888009408800074
:101550000440a0000450a00094088800e449220040
:1015600074088800b404800004c0a10004d0a10065
:1015700004e0a000b404880084e0a9008ce0a80086
:1015800013e1a8000080fa00000006000000fa0045
:101590000002eb00f4088800f40880000440a0007a
:1015a0000450a000f4088800244e2000d4088800cd
:1015b000f40480000440a0000450a0000460a100d6
:1015c000f404880086a0a9008ea0a8001fe1a8004e
:1015d0000080fa00000006000200fa00c602a8001f
:1015e000c622a8004416800004427800634f6200bf
:1015f000248d2000144278000402fb00cfa2de00fc
:101600003600200007002000860f5200878f5a0006
:1016100058003e0004600100160037002800370023
:1016200001003700390037001e427800e34f5200b6
:1016300006003a0074468000854680006102520030
:10164000e0825a0074468800854688001e42780071
:10165000e04f520040003a0074468000854680000a
:1016600061024200e0824a00744688008546880094
:10167000400037001e427800e24f520006003a0058
:10168000744680008546800061025200e0825a0064
:1016900074468800854688001e427800e14f52005b
:1016a0002f003a00744680008546800061024200a7
:1016b000e0824a0074468800854688002d00370085
:1016c0001e427800e04f520006003a007446800047
:1016d0008546800061025200e0825a00744688000c
:1016e000854688001e427800e34f52001e003a00f3
:1016f000744680008546800061024200e0824a0014
:1017000074468800854688001a0037001e4278001b
:10171000e14f520006003a00744680008546800082
:1017200061025200e0825a007446880085468800b3
:101730001e427800e24f52000d003a0074468000cd
:101740008546800061024200e0824a0074468800bb
:1017500085468800070037000000000005003700bc
:101760000000000003003700000000000100370007
:10177000000000001e407800d2e8b7000080fa00a8
:10178000000006000000fa007446800085468000d4
:1017900004037800a4468000b54680000402780067
:1017a00004025300c44688007446800085468000c9
:1017b000a4468800b54688000080fa0000000600b4
:1017c0000c00fa005007980074468000854680009f
:1017d0004e2bdd004222de0004027300c2aade00ae
:1017e000048fbe001e00be005afc07000002be00af
:1017f0000200200003f023000400be00bcfc070030
:101800000002be000400be0016fc07000002be007d
:1018100024079800350798005e0190002e00900084
:10182000be0090001afe070000027800044f9800e6
:101830000e4a9000044078000080fa000000060084
:101840000800fa0074468000854680004e2bdd00bb
:101850004222de0004027300c2aade00048fbe0032
:101860001e00be003bfc07000002be00020020007c
:1018700003f023000400be009dfc07000002be0030
:101880000400be00f7fb07000002be00240798001a
:10189000350798002e029000be0290000400be00a2
:1018a0000080fa00000006000200fa00c446800032
:1018b00042a2de00040f78001e027800cfa2de00f4
:1018c0000400be0023fc07000002be00020020004e
:1018d00003f023000400be0085fc07000002be00e8
:1018e0000400be00dffb07000002be00040f78000a
:1018f0001e027800cfa2de000400be0015fc070027
:101900000002be00d2cc2c00c3dc23000400be00c9
:101910005afb07000002be000400be00d1fb070016
:101920000002be0004027800040078000080fa0083
:10193000000006000000fa00e442a900e462a900e9
:10194000dec2a90095168000f40f20000482620018
:1019500094168800e842a900e862a900d762a800ae
:10196000d742a900d722a900d702a900e2c2a90044
:101970004006200001002000b1fd0700d762a90049
:101980004006200001002000adfd0700d762a8003e
:10199000d742a900d722a900d702a900e2c2a80015
:1019a0004006200001002000a5fd0700d762a90025
:1019b0000071220001002000a1fd07000080fa0054
:1019c000000006000200fa00004f7800e442a9007f
:1019d000e462a900dec2a90095168000f40f200081
:1019e0000482620094168800e842a900e862a90017
:1019f000d762a8009e02fb000408200084826200d7
:101a000014c0b300e08f520001003c000042eb0024
:101a10000482fb00610262004a22dd00b6168000eb
:101a2000f5bf2f008502630004827200b41688009f
:101a30009e02fb00040420008482620014c0b300f4
:101a4000e08f520001003c000042eb000482fb00ea
:101a5000610262004922dd00b6168000f5df2f002a
:101a60008502630004827200b41688009e02fb00a7
:101a7000040220008482620014c0b300e08f520090
:101a800001003c000042eb000482fb0061026200a6
:101a90004822dd00b6168000f5ef2f0085026300b6
:101aa00004827200b41688001e02fb00f00262007d
:101ab00014c0b300e08f520001003c000042eb0074
:101ac0000482fb00610262004622dd0016178000de
:101ad000f5fb2f0085026300048272001417880052
:101ae000400620000100200055fd0700d762a90034
:101af000400620000100200051fd0700d762a80029
:101b00001e02fb004422dd00044f78009e02fb0011
:101b1000040820008482620014c0b300e08f5200e9
:101b200001003c000042eb000482fb006102620005
:101b30004a22dd00b6168000f5bf2f008502630043
:101b400004827200b41688009e02fb000404200088
:101b50008482620014c0b300e08f520001003c0098
:101b60000042eb000482fb00610262004922dd00ba
:101b7000b6168000f5df2f00850263000482720034
:101b8000b41688009e02fb000402200084826200da
:101b900014c0b300e08f520001003c000042eb0093
:101ba0000482fb00610262004822dd00b61680005c
:101bb000f5ef2f008502630004827200b4168800de
:101bc0001e02fb00f002620014c0b300e08f52005e
:101bd00001003c000042eb000482fb006102620055
:101be0004622dd0016178000f5fb2f0085026300fa
:101bf00004827200141788004006200001002000b3
:101c00000ffd0700d762a900400620000100200058
:101c10000bfd07000080fa00000006000000fa003b
:101c2000e442a900e462a900dec2a9009516800082
:101c3000f40f20000482620094168800e842a90094
:101c4000e862a900d762a800d742a900d722a9005c
:101c5000d702a800e2c2a90040062000010020002f
:101c6000f7fc0700d762a900400620000100200011
:101c7000f3fc0700d762a800d742a900d722a90029
:101c8000d702a800e2c2a9004006200001002000ff
:101c9000ebfc0700d762a9004006200001002000ed
:101ca000e7fc0700d762a800d742a800d722a80007
:101cb000d702a800e2c2a8004006200001002000d0
:101cc000dffc0700d762a9004006200001002000c9
:101cd000dbfc0700e842a900e862a900d762a8007f
:101ce000d742a900d722a900d702a900e2c2a900c1
:101cf0004006200001002000d1fc0700d762a900a7
:101d00004006200001002000cdfc0700d762a8009b
:101d1000d742a800d722a800d702a900e2c2a90092
:101d20004006200001002000c5fc0700d762a90082
:101d30004006200001002000c1fc0700fdfe070056
:101d4000e842a900e862a900d762a800d742a9002a
:101d5000d722a900d702a900e2c2a90040062000ac
:101d600001002000b6fc0700d762a9004006200051
:101d700001002000b2fc0700d762a800d742a900ea
:101d8000d722a800d702a800e2c2a900400620007e
:101d900001002000aafc0700d762a900400620002d
:101da00001002000a6fc070000c8b30005ff0700e3
:101db00080bb200001002000a1fc07000080fa0089
:101dc000000006000800fa00881f7800300798001d
:101dd0000002eb002407980014002000040f780094
:101de00000c8b300f7fe07002e0290000402e800ce
:101df00014079800ca003700e842a800e862a9006a
:101e0000d762a8001e0290000402e900be02900002
:101e100004824200144278008402fb00040820007f
:101e20008482620014c0b300e08f520001003c00c5
:101e30000042eb000482fb00610262004a22dd00e6
:101e4000b6168000f5bf2f00850263000482720081
:101e5000b41688001e0290000402e900be02900041
:101e600004824200144278008402fb000404200033
:101e70008482620014c0b300e08f520001003c0075
:101e80000042eb000482fb00610262004922dd0097
:101e9000b6168000f5df2f00850263000482720011
:101ea000b41688001e0290000402e900be029000f1
:101eb00004824200144278008402fb0004022000e5
:101ec0008482620014c0b300e08f520001003c0025
:101ed0000042eb000482fb00610262004822dd0048
:101ee000b6168000f5ef2f008502630004827200b1
:101ef000b41688001e0290000402e900be029000a1
:101f000004824200144278000402fb00f0026200e6
:101f100014c0b300e08f520001003c000042eb000f
:101f20000482fb00610262004622dd001617800079
:101f3000f5fb2f00850263000482720014178800ed
:101f4000e0012000010020003dfc0700d762a9004d
:101f5000e00120000100200039fc0700d762a80042
:101f60001e0290000402e900be02900004824200ba
:101f7000144278000402fb00e802620014c0b300bf
:101f8000e08f520001003c000042eb000482fb00a5
:101f9000610262004a22dd00b6168000f5bf2f0004
:101fa0008502630004827200b41688001e0290004d
:101fb0000402e900be02900004824200144278004c
:101fc0000402fb00e402620014c0b300e08f520080
:101fd00001003c000042eb000482fb006102620051
:101fe0004922dd00b6168000f5df2f008502630070
:101ff00004827200b41688001e0290000402e900f8
:10200000be02900004824200144278000402fb00e9
:10201000e202620014c0b300e08f520001003c00f5
:102020000042eb000482fb00610262004822dd00f6
:10203000b6168000f5ef2f0085026300048272005f
:10204000b41688001e0290000402e900be0290004f
:1020500004824200144278000402fb00e1026200a4
:1020600014c0b300e08f520001003c000042eb00be
:102070000482fb00610262004622dd001617800028
:10208000f5fb2f008502630004827200141788009c
:10209000e001200001002000e9fb0700d762a90051
:1020a000e001200001002000e5fb07001e02900077
:1020b0006f026200e00f520016003a001e02780024
:1020c000e20f520009003200e30f52000c00320010
:1020d000e10f52000f003a0000ccb30039fe0700b8
:1020e00024002000040f78000a00370000c9b30064
:1020f00034fe070034002000040f7800050037008c
:1021000000cdb3002ffe070044002000040f78002c
:10211000000000001e0290000402e800140798006e
:102120001e0490003e00900082fb07000002780031
:10213000840278002e029000048242000402e8002b
:10214000840f54002cff39004f0478000080fa00ff
:10215000000006000400fa000002eb00040f780003
:102160000002eb0014079800e4c2a900e4e2a90011
:10217000e502a800007d200001002000b0fb070060
:10218000c4032900040f7800f4fb2d001407980005
:102190009e0090001e0078002df907000080fa00d4
:1021a000000006000200fa00000f78008740a90036
:1021b000451180000440200004826200e00f5200bc
:1021c000030032001e02780054118800040037001a
:1021d000f40f20001e02620054118800000000006d
:1021e0003411800062026200e00f5200fcff3a00ee
:1021f00000000000350480000440200004826200da
:10220000e00f5200fbff320054118000040f7800f1
:102210000080fa00000006000000fa0026c2a900b3
:102220000002eb005411880000000000341180000f
:1022300061026200e00f5200fcff320034118000a6
:1022400061026200e00f52000c00320026c2a900b9
:10225000451180000440200004826200e00f52001b
:10226000030032005411800004427800040037005b
:1022700054118000044278000100370000c2eb00d6
:10228000044078000080fa00000006000000fa0018
:10229000e419210001082000f008200004000100da
:1022a000e419210031002000300820000400010062
:1022b000e419210031012000400820000400010041
:1022c000e419210011012000500820000400010041
:1022d000e419210031012000600820000400010001
:1022e000e419210031012000200820000400010031
:1022f000e4192100810420001008200004000100de
:10230000e41921008000eb00000820000400010017
:10231000e41921008000eb00f00820000400010017
:102320000080fa00000006000000fa00e5a2a90003
:1023300088ff07000080fa00000006000200fa0093
:10234000004f780011479800e5a2a900e9a2a80073
:102350009e4278000582fb000400780091ff070090
:102360001e4290000482fb00040078008dff0700ed
:10237000e5a2a900e9a2a9000080fa000000060079
:102380000400fa0020479800e5a2a900e9a2a800ed
:102390002e4290000482fb000400780081ff0700b9
:1023a0009dff070000427800044f7800e5a2a900d5
:1023b000e9a2a9001e427800044078000080fa00db
:1023c000000006000200fa000040eb00ecff0700ee
:1023d00000427800044f78001e4278008482fb009f
:1023e000f40720000482620044a2de001447980033
:1023f0001e4290006a22b900040278001447980037
:102400009e4278006fc262009e42900004c2420069
:10241000144798001e429000044078000080fa00a3
:10242000000006000200fa0010c0b300d4ff07004d
:1024300000427800044f78001e4278008482fb003e
:10244000f40720000482620044a2de0014479800d2
:102450001e4290006a22b9000402780014479800d6
:102460009e4278006fc262009e42900004c2420009
:10247000144798001e429000044078000080fa0043
:10248000000006000200fa0020c0b300bcff0700f5
:1024900000427800044f78001e4278008482fb00de
:1024a000f40320000482620044a2de001447980076
:1024b0001e4290006a22b900040278001447980076
:1024c0009e4278006fc262009e42900004c24200a9
:1024d000144798001e429000044078000080fa00e3
:1024e000000006000200fa0030c0b300a4ff07009d
:1024f00000427800044f78001e42780004407800c3
:102500000080fa00000006000200fa0040c0b3009c
:102510009bff070000427800044f78001e427800bd
:102520008482fb00f40720000482620044a2de00e3
:10253000144798001e4290006a22b90004027800f5
:10254000144798009e4278006fc262009e4290003d
:1025500004c24200144798001e42900004407800d4
:102560000080fa00000006000200fa0050c0b3002c
:1025700083ff070000427800044f78001e42780075
:102580008482fb00f40720000482620044a2de0083
:10259000144798001e4290006a22b9000402780095
:1025a000144798009e4278006fc262009e429000dd
:1025b00004c24200144798001e4290000440780074
:1025c0000080fa00000006000200fa0060c0b300bc
:1025d0006bff070000427800044f78009e427800ad
:1025e0000582fb004422de00144798001e42900042
:1025f0006a22b90004027800144798009e427800cd
:102600006fc262009e42900004c2420014479800cc
:102610001e429000044078000080fa00000006008e
:102620005e00fa00602f98006a024700220009004d
:10263000001aeb00d4f42600e54626005407980063
:10264000650798001496270005002000740798007d
:10265000050f98000002eb00140f98004455270066
:1026600055362700240f9800350f98004416260091
:1026700095072000440f9800550f98000002eb00ca
:10268000640f98007e0247007655260047e6260034
:10269000068abe006402420056362700471626000e
:1026a000068abe006402420095072000050a7800f1
:1026b0000482e800840220000e02420046852600c3
:1026c00057272700068abe006402420036472600cc
:1026d00017962700068abe00640242008002eb00c3
:1026e000050a78000482e800642427009546260045
:1026f000141f9800251f980014962700050020003d
:10270000341f9800451f98000002eb00541f9800ea
:10271000c40320000e02420036152600475727004a
:10272000068abe006402420026472600179627004c
:10273000068abe00640242008002eb00050a7800af
:102740000482e80034552700e54626003427980027
:10275000452798001496270005002000542798006c
:10276000652798000002eb007427980015ff07000a
:1027700000427800044f78002aff070000427800ea
:10278000144798003fff0700004278002447980054
:102790008dff0700004278000482fb0024079800a8
:1027a00071ff0700004278006447980056ff070059
:1027b00000427800744798004aff07000042780002
:1027c000044f9800ae029000047d20000482420075
:1027d000cfa2de00060520000e03430006017800ac
:1027e0000400be002afa070000027800144f980087
:1027f0001e4a90000402fb00050520008e82420064
:1028000004824200840078006e289000bef9070020
:102810006e289000c7f9070000027800ee2a9000a9
:102820000482420022002000817a280004007800ff
:10283000aef907006e4290000402fb00cfa2de005a
:10284000060520000e034300060178000400be00c8
:102850000ffa070000027800144f98001e4a9000fb
:102860000402fb00050520008e8242000482420023
:10287000840078006e289000a3f907006e2890006d
:10288000acf9070000027800ee2a900004824200b2
:1028900022002000817a28000400780093f90700c4
:1028a0007e4290000402fb00cfa2de00060520005d
:1028b0000e034300060178000400be00f4f907008f
:1028c00000027800144f98001e4a90000402fb009a
:1028d000050520008e8242000482420084007800b8
:1028e0006e28900088f907006e28900091f9070083
:1028f00000027800ee2a90000482420022002000ac
:10290000a17a28000400780078f907002e42900090
:102910000402fb00cfa2de00060520000e034300e8
:10292000060178000400be00d9f907000002780013
:10293000144f98001e4a90000402fb000505200079
:102940008e82420004824200840078006e2890004b
:102950006df907006e28900076f9070000027800f4
:10296000ee2a90000482420022002000c17a280052
:10297000040078005df907001e4290000402fb008d
:10298000cfa2de00060520000e03430006017800fa
:102990000400be00bef9070000027800144f980042
:1029a0001e4a90000402fb00050520008e824200b2
:1029b00004824200840078006e28900052f90700db
:1029c0006e2890005bf9070000027800ee2a900064
:1029d0000482420022002000c17a2800040078000e
:1029e00042f907001e4278000402fb00cfa2de007d
:1029f000060520000e034300060178000400be0017
:102a0000a3f9070000027800144f98001e4a9000b6
:102a10000402fb00050520008e8242000482420071
:102a2000840078006e28900037f907006e28900027
:102a300040f9070000027800ee2a9000048242006c
:102a400022002000a17a28000400780027f907005e
:102a50006a0347000e4a90000402fb000402e900ea
:102a60006a22b9000402780004024300840078005e
:102a70006e28900024f907000080fa00000006008c
:102a80000000fa00e582a900b2fd07000080fa000c
:102a9000000006000000fa00e582a900e982a90012
:102aa00060002000bffd0700e582a900e982a800c0
:102ab0000080fa00000006000800fa0010079800e5
:102ac0002107980032079800f2ff0700e582a9006d
:102ad000e982a90020002000b2fd07001e0290003c
:102ae0004822de0004007800aefd07009e02900040
:102af000f40f20000482620004007800a9fd0700a2
:102b00000002eb00040f7800080037001e02780076
:102b1000ae02900004824200144278000402fb00de
:102b2000040078009ffd07001e0fe8003e029000a1
:102b30009e027800848f5200f4ff3500e582a900e0
:102b4000e982a8000080fa00000006000800fa00f0
:102b5000881f780010079800210798003207980016
:102b6000e582a900e982a900300020008dfd070060
:102b70001e0290004822de000400780089fd070054
:102b80009e029000f40f200004826200040078008e
:102b900084fd07000002eb00040f780007003700f7
:102ba0001e027800ae029000048442009afd0700e5
:102bb00000427800044c78001e0fe8003e029000ae
:102bc0009e027800848f5200f5ff3500e582a9004f
:102bd000e982a8004f0478000080fa000000060097
:102be0000200fa00e582a900e982a9005000200055
:102bf0006cfd070088fd070000427800044f780054
:102c0000e582a900e982a8001e427800044078000d
:102c10000080fa00000006000600fa000e82e800bc
:102c200042002000840078000000eb00c7ff07008e
:102c30000e8fe8001e0278001402be000400be00e1
:102c40000080fa0000000600e400fa0037090700df
:102c500094e6260065062000048fbe0074c0b30011
:102c60004447980064002000340798000042eb00bd
:102c7000044f980064024700640242000400780098
:102c8000acf8070000027800e4024700e48242004a
:102c900004824200b2002000e17a2800040078009b
:102ca00092f807000042eb002457980064024700a6
:102cb0006e024200040078009ef8070000027800cf
:102cc000e4024700ee8242000482420052002000eb
:102cd000917b28000400780084f807000042eb0094
:102ce00064579800640247007202420004007800b2
:102cf00090f8070000027800e4024700f2824200e8
:102d00000482420052002000e17b28000400780089
:102d100076f807000042eb00245f98006402470049
:102d2000760242000400780082f807000002780072
:102d3000e4024700f6824200048242004200200082
:102d4000317c28000400780068f807000042eb009e
:102d5000545f980064024700790242000400780042
:102d600074f8070000027800e4024700f98242008c
:102d70000482420052002000717c28000400780088
:102d80005af8070064024700c301200004017800dc
:102d9000f1c0b3000e0078008605070000427800fd
:102da000e04f520002003a000042eb009d00370065
:102db0003447270015262700141798002517980078
:102dc00044f7250035072000341798004517980070
:102dd00004352c0005002000541798006517980052
:102de000a50220008e824200240220000e02420032
:102df000330020000501780001c1b3000400780011
:102e00006c05070000427800e04f520002003a00d3
:102e10000042eb0083003700e4f62600455626000a
:102e200074179800051f9800f495260045062000a9
:102e3000141f9800251f9800240020000500200082
:102e40005417980065179800a50220008e82420052
:102e5000e40220000e024200330020000501780049
:102e600001c1b30004007800520507000042780059
:102e7000e04f520002003a000042eb0069003700c8
:102e80006403200004024700c57c28000d000900ef
:102e9000355a78000400200005f02300242798000c
:102ea00035279800450420008e82420064032000ec
:102eb0000e024200430020000501780081c0b300eb
:102ec000040078003b05070000427800e04f520004
:102ed00002003a000042eb00520037008404200058
:102ee0000e0242008696260077862600068abe00dd
:102ef00064024200f655260047762600068abe0088
:102f00006402420055062000050a78000482e800a9
:102f100004352c0005002000541798006517980010
:102f2000a50220008e824200840420000e0242008e
:102f3000330020000501780001c1b30004007800cf
:102f40001c05070000427800e04f520002003a00e2
:102f50000042eb0033003700240520000e0242003f
:102f6000c6f6260077f72500068abe0064024200f6
:102f70005646260077562600068abe0064024200a6
:102f80008042eb00054a78000402e80004852f0027
:102f9000c50020005417980065179800a50220006e
:102fa0008e824200240520000e02420033002000e1
:102fb0000501780001c1b30004007800fd0407009a
:102fc00000427800e04f520002003a000042eb005d
:102fd00014003700b405200004024700a57d280036
:102fe0000f000900355a7800b50620008e82420095
:102ff000640320000e0242008307200005017800d0
:10300000f1c0b30004007800ea0407000042780031
:10301000e04f520002003a000042eb00010037008e
:1030200014c0b300044078000080fa0000000600dd
:103030000400fa00000f7800110798000082eb00ee
:1030400044158800f5fa0700b7fc07008cfe07005e
:10305000a07e28005bfb0700d2090700fafe0700ec
:10306000ffff37003600f800809fbe00829fbe0041
:10307000849fbe00869fbe003400f8000000200040
:10308000a00188005400fa008460a900cda2a90024
:10309000841680004d22de006142620015c0b3003c
:1030a00004c25200614262000482fb0061026200bd
:1030b0004d22dd0086168000f5ff2d00850263009d
:1030c000048272008416880068f8070000427800c5
:1030d000044f78006022b800140798002507980074
:1030e000660247001b000900001aeb000e82e80090
:1030f000040078004afd07000a0037000e82e8004d
:10310000040078008bf70700000278008e82e80048
:103110000482420022002000a17a280004007800e6
:1031200072f707000e82e8000400780081f70700bc
:1031300000027800ff0f5200f0ff3600e403200089
:103140000e024200040078009df90700004278005a
:10315000144798001e4290000402fb00e503200083
:103160008e824200848242000e82e8008500780050
:103170000400780064f707000a0037000e82e800b8
:10318000040078006bf70700000278008e82e800e8
:103190000482420022002000a17a28000400780066
:1031a00052f707000e82e8000400780061f707007c
:1031b00000027800f5022000850f5200efff360074
:1031c000a40420000e0242009e4078000400780013
:1031d00046f80700a50420008e8242000e82e80017
:1031e000850078000400780047f707000a003700e0
:1031f0000e82e800040078004ef707000002780015
:103200008e82e8000482420022002000a17a280079
:103210000400780035f707000e82e800040078000b
:1032200044f7070000027800f5032000850f5200e4
:10323000efff36000e82e80004007800e1fa070094
:103240000080fa003400f9004f03be004f02be00b8
:103250004f01be004f00be003600f90000400600de
:103260003600f800809fbe00829fbe00849fbe0093
:10327000869fbe003400f80000002000a0018800f6
:103280000000fa0084c0a900d3f807000080fa000b
:103290003400f9004f03be004f02be004f01be00d4
:1032a0004f00be003600f900004006003600f8006e
:1032b000809fbe00829fbe00849fbe00869fbe008e
:1032c0003400f80000002000a00188000000fa008f
:1032d00084e0a900d202a900b4168000044278005c
:1032e0006142620015c0b30004c252006142620034
:1032f0000482fb0061026200b6168000e5ff2f0029
:103300008502630004827200b4168800cdc2a90051
:10331000841680004e22de006142620015c0b300b8
:1033200004c25200614262000482fb00610262003a
:103330004e22dd0086168000f5ff2b00850263001b
:1033400004827200841688000ef907000080fa00db
:103350003400f9004f03be004f02be004f01be0013
:103360004f00be003600f900004006003600f800ad
:10337000809fbe00829fbe00849fbe00869fbe00cd
:103380003400f80000002000a00188001200fa00bc
:1033900086a0a90044f9070000027800040f780015
:1033a00027f907000002be001407980025079800bf
:1033b00004352c00050020003407980045079800cc
:1033c000047b200035ff2f00540798006507980004
:1033d0005e039000ee0390003e029000ce0290004b
:1033e0000603420087834a001e029000ae0290004e
:1033f0000402530085825b0074079800050f980053
:103400008002eb001e0278001e019000ae019000c9
:103410007e0090008e0890005f0007000080fa0098
:103420003400f9004f03be004f02be004f01be0042
:103430004f00be003600f900004006003600f800dc
:10344000809fbe00829fbe00849fbe00869fbe00fc
:103450003400f80000002000a00188000800fa00f5
:103460008760a9009603a900841c80006e02620098
:10347000ee0f520002003a0096c3a9000500370083
:103480000e0078009f0907000e007800a7000700d3
:103490008ee3a9000080fa003400f9004f03be005b
:1034a0004f02be004f01be004f00be003600f900c3
:1034b000004006003600f800809fbe00829fbe00dc
:1034c000849fbe00869fbe003400f80000002000ec
:1034d000a00188000000fa008940a900e48c2000c7
:1034e00042002000840078004041210072fd070066
:1034f0000080fa003400f9004f03be004f02be0006
:103500004f01be004f00be003600f900004006002b
:103510000800fa00204798003147980022079800d9
:10352000634798002e4290000482fb004822dd0091
:103530000408b000040f78003e4290000482fb00b3
:103540001e0f42006e419000ae0090001e007800f9
:10355000530907000080fa00000006000800fa0086
:1035600020479800210798006247980004582000df
:10357000040f78002e4290000482fb001e0f4200d0
:103580006e419000ae0090001e00780044090700d4
:103590000080fa00000006002800fa00600f980082
:1035a000710f9800021798001317980024179800bd
:1035b0003517980024c0b300044f78006402470018
:1035c00003000900001aeb007c0247001407980072
:1035d0001e02900014427800444798001e0290009a
:1035e0000402e80014427800544798001e0290003c
:1035f0000482e80014427800644798000402200026
:103600000e024200140798001e0290001442780037
:10361000744798001e0290000402e80014427800eb
:10362000044f98001e0290000482e80014427800c3
:10363000144f9800640247008041eb0004017800b9
:103640009e40780010c0b300b1ff07006c02470035
:1036500003000900001aeb002e1290000402ea0099
:1036600024179800440220000e024200140798001c
:103670001e02900014427800444f98001e029000f1
:103680000402e80014427800544f98002e12900073
:103690000402ea0024179800440220000e024200af
:1036a000140798001e02900014427800644f98009e
:1036b0001e0290000402e80014427800744f980043
:1036c000640220000e024200140798001e029000bf
:1036d00014427800245798001e0290000402e8006b
:1036e00014427800345798006c02470013c0b300ae
:1036f000040178009e40780020c0b30084ff0700da
:103700007402470003000900001aeb00740247002e
:1037100023c0b300040178009e40780030c0b3009d
:103720007bff07000080fa00000006000200fa009c
:10373000000f78001e0278009442780004c4b300a1
:1037400084cf520004003a0044c921001e007800d2
:1037500004000100230037001e02780014427800a4
:103760008402fb00040f2000848262000402200017
:10377000848f520004003a0064bf21001e007800cc
:1037800004000100170037001e0278001442780080
:103790008402fb00040e200004826200e00f52004d
:1037a00004003a00641322001e00780004000100a7
:1037b0000c0037001e0278009442780004c6b30063
:1037c00084cf5200050032001e0278009442780037
:1037d00004c7b30084cf520002003a00e40c220078
:1037e000040001000080fa00000006000e00fa004c
:1037f0006007980024c0b300044f78006e02900068
:103800006302420014427800144798006e02900050
:103810000402e800144278008402fb006e0290006b
:103820000482e800144278000402fb004822dd0014
:1038300004824200140798006e029000144278003f
:103840008402fb00340f2000848262000402200006
:10385000848f52000d003a001e02900054468800ea
:103860001e4290000482fb00644688006e029000b5
:1038700064024200144278000402fb0044468800bf
:103880000002eb00d4468800250037001e4290005d
:103890000482fb00e20f520003003200e40f5200ea
:1038a000080032001e0037006e02900064024200e1
:1038b00042002000840078001e009000750407007c
:1038c00004003700240722006e009000040001006d
:1038d0000000000004c6b300444798006e02900048
:1038e0000402e80014427800544798006e029000e9
:1038f0000482e80014427800644798006e02900049
:103900006302420014427800744798006402470042
:103910000041eb00840078001e4078000fff070094
:103920000080fa00000006000600fa002007980058
:103930002e0290006302420014427800044f780087
:103940002e0290000402e800144278008402fb007a
:103950002e0290000482e800144278000402fb006a
:103960004822dd0004824200140798009e02900065
:1039700004002200848f520004003a0024cf21006a
:103980002e00900004000100140037009e427800d1
:103990000582fb00e20f520008003200e40f5200e3
:1039a0000a003200e10f52000c003a0064f62100d8
:1039b0002e009000040001000800370064e421009c
:1039c0002e009000040001000400370084fc210058
:1039d0002e00900004000100000000000080fa00aa
:1039e000000006003600fa00201f980024c0b30033
:1039f000044f98000e027800c402b00003000900d2
:103a0000001aeb002e1a90000402e800144278001d
:103a10008402fb002e1a90000482e8001442780011
:103a20000402fb004822dd00048242005407980093
:103a30002e1a900063024200144278000402fb0038
:103a4000640798006e024700840078005e009000d2
:103a50006a03070000027800140798001e02900015
:103a6000e00f5200860032002e1a90000402e80097
:103a700014427800546f98002e1a90000482e800d7
:103a800014427800646f98002e1a9000630242007e
:103a900014427800746f98006e02900005002000b8
:103aa0006600200007002000860f5200878f5a0012
:103ab00038003e0004600100060037000b003700ac
:103ac00011003700170037001d00370023003700b2
:103ad00029003700b4c4b300446f98006e0f47004c
:103ae00014002000140798002a003700b4c4b30063
:103af000446f98006e024700048fe8002400200005
:103b0000140798002300370014c4b300446f9800d2
:103b10006e024700640f4200a400200014079800c2
:103b20001c00370034c4b300446f98006e02470095
:103b30006e0f420044002000140798001500370063
:103b400034c4b300446f98006e024700720f420005
:103b500044002000140798000e00370074c4b3001e
:103b6000446f98006e024700760f42003400200038
:103b7000140798000700370034c4b300446f98005e
:103b80006e024700790f420044002000140798009d
:103b900000000000ce6a900014c4b30084cf52002d
:103ba0001d003a001e02900004427800047798003d
:103bb0000042eb00147798000002eb002407980005
:103bc0000002eb00240798000a0037002e02900044
:103bd0001e024200144278002e039000058020004f
:103be00085024300844a78002e0290000402e80017
:103bf00024079800ae0290001e029000848f5200ad
:103c0000f2ff39000002eb00d44688001e0290004b
:103c100044468800130037000002eb003407980088
:103c20000002eb00340798000a0037003e029000c3
:103c3000e40242003e0290001e024200144278005c
:103c400085024700c46a98003e0290000402e80022
:103c500034079800be0290001e029000848f52002c
:103c6000f2ff3900c40220000e0242000041eb00c6
:103c7000840078000e48900038fe070001003700ed
:103c8000000000000080fa0000000600ac00fa000e
:103c90005097980024c0b300444798006c02470036
:103ca00003000900001aeb005e9290000402e80095
:103cb000144278008402fb005e9290000482e800c7
:103cc000144278000402fb004822dd000482420016
:103cd000340798003e009000580307000002780067
:103ce000044f980074024700840078003e00900062
:103cf000c202070000027800540798005e0290009c
:103d0000e00f52006e0032005e9290000402e80064
:103d100014427800544f98005e9290000482e800ac
:103d200014427800644f98005e9290006302420053
:103d300014427800744f98005e029000e40f520025
:103d40001e00360014c4b300444f98005e02900079
:103d500004427800045798005e0290004822de007a
:103d600004427800145798000002eb00040f78001a
:103d70000002eb00040f78000700370074024700d0
:103d80001e02420014427800058020009e824200fc
:103d9000844a78001e0fe8009e0278005e029000c0
:103da000848f5200f5ff39000002eb00d4468800f2
:103db0005e029000444688003b0037000e4a9000a7
:103dc0000402fb006123b900d4ff2f00f5ff2f0090
:103dd0000602420087824a00d60020000700200029
:103de000860f5200878f5a001b003e0004600100be
:103df0001300370018003700170037001300370092
:103e0000150037000b003700130037001200370091
:103e100011003700100037000f0037000e00370088
:103e20000d0037000000370074c4b300444f980001
:103e30000900370034c4b300444f9800060037002f
:103e4000b4c4b300444f980003003700b4c4b300b7
:103e5000444f9800000000000002eb001407980097
:103e60000002eb00140798000b0037001e029000c0
:103e7000e4024200740347001e0290000402430063
:103e80001442780085024700c44a98001e02900040
:103e90000402e800140798009e0290005e02900061
:103ea000848f5200f1ff39006c0247000041eb00a3
:103eb000840078004e409000a8fd07000100370004
:103ec000000000000080fa00000006001000fa0068
:103ed0007007980024c0b300044f78007e02900061
:103ee0000402e800144278008402fb007e02900085
:103ef0000482e800144278000402fb004822dd003e
:103f000004824200140798001e009000cb020700b4
:103f100000027800444798004e429000e14f420072
:103f200018003200b4c4b300544798007e029000d9
:103f30000402e80014427800644798007e02900072
:103f40000482e80014427800744798007e029000d2
:103f50006302420014427800044f98004e429000e1
:103f6000144f98000042eb00244f98006502470070
:103f70000041eb00840078001e40780077fd0700c8
:103f800001003700000000000080fa000000060079
:103f90002e00fa006017980024c0b300044f780088
:103fa0006502470007000900005aeb006e129000fe
:103fb0000402e800144278008402fb006e129000b4
:103fc0000482e800144278000402fb004822dd006d
:103fd00004824200140798006d02470084007800b4
:103fe0001e0090003b020700000278004447980042
:103ff0004e429000e04f5200370032006e129000a7
:104000000402e80014427800644798006e129000a1
:104010000482e80014427800744798006e12900001
:104020006302420014427800044f98004e42900010
:10403000e44f520010003e0045c0b3004e429000d5
:1040400004c25200250020000522dd003444b000e7
:10405000544798005e4a9000144f98006e4a9000b2
:10406000244f98007e4a9000344f98000e529000e2
:10407000444f98001200370014c4b300544798000e
:104080004e429000144f98000042eb00244f9800dd
:104090000042eb000400780000e8b7006d02470022
:1040a000840078000080200097f307000002eb00f6
:1040b000d44688004e4290000482fb0044468800ab
:1040c000650247000041eb00840078001e40780044
:1040d00022fd070001003700000000000080fa0008
:1040e000000006000c00fa00500798005e029000e5
:1040f0000402e800144278008402fb005e02900093
:104100000482e800144278000402fb004822dd002b
:1041100004824200140798005e0290001442780066
:104120000402fb006c02620042a2de0044479800d9
:104130000002eb00040f7800070037001e02780031
:1041400064024200de0290000482420014427800c1
:10415000544798001e0fe8004e4290000482fb0076
:10416000640212009e0f5200f4ff3c004e42900089
:104170000482fb0064021200840247000042eb004c
:10418000d442980065024700840078001e00900029
:10419000900207000080fa00000006000c00fa0000
:1041a00024c0b300244798006402470003000900bc
:1041b000001aeb00d4468000e8024200444680002a
:1041c000848f52001000360014c0b300444798009a
:1041d000d44680008442780044468000044278003f
:1041e00004c2520067424200344798004e42900099
:1041f000844278003e4290000442420004c24200e1
:1042000044479800020037000042eb004447980002
:1042100014002000040f78000a003700d546800003
:1042200004802000048242001442780064034700a6
:104230001e034300044b78000502e800d4468800c2
:104240001e0fe8001e027800e70f5200f3ff340053
:10425000640247000041eb00840078002e4090008b
:10426000befc07000080fa00000006001200fa0001
:10427000000f980024002000140798000002eb00b3
:10428000040f78000e0a9000144278000402fb002c
:104290006102620004427800e04f52002b003200bd
:1042a0000e0a9000144278000402fb006e026200c5
:1042b0000482d100444798000c003700d5468000a6
:1042c0001e0278000402e8000e0b90000402430076
:1042d000144278000680200006834200044b7800d8
:1042e0000502e800d44688001e0fe8004e42900008
:1042f0000482fb00670212009e0f5200efff3c0099
:104300004546800054468000050178000180200069
:1043100004007800df0107000f003700d546800059
:104320001e0278000402e8000e0b90000402430015
:10433000144278000680200006834200044b780077
:104340000502e800d44688001e0fe8001e0278002f
:10435000e60f5200f1ff3400a48c200034079800cf
:1043600004c6b300044f98003e0290001442780047
:10437000144f98003e0290000402e80014427800b6
:10438000244f98006446800004427800344f98001f
:104390001e02900004427800e80247000041eb0052
:1043a00085007800044078006cfc07000080fa006b
:1043b000000006004000fa00889fbe00401f9800e1
:1043c000217f9800621f9800731f980072024700b7
:1043d000040078004d0307002e7a9000246f9800a7
:1043e000b3020700000278000402e80034179800c6
:1043f0007e1a9000050020000400be0058f107005e
:104400000004be002e5a90000482fb00cfa2de0002
:104410000400be004ff107000002be000401be0010
:104420000800be0095f007000002be004407980097
:10443000550798004e009000de00900087f00700be
:104440000002be0044079800550798004e009000f7
:10445000de00900024f107000002be000442780054
:1044600004407800ab03070000027800040f7800d6
:104470001e027800e10f420002003a000042eb0009
:10448000a00037001e027800441798000002eb00dd
:1044900014079800110037002e5a90008482fb0008
:1044a0001e02900004aab90004027800ee1a9000df
:1044b00004824200840078001e0078008704070010
:1044c0001e0078004803070000027800040f7800ff
:1044d0001e0290000402e800140798001e029000db
:1044e000cfa2de000400be001af107000002be00e9
:1044f00018c0b3004e019000de0190000400be0021
:10450000d6f0070000027800e00f520001003500ed
:104510000044eb00e04f5400dfff3a00bc0307000b
:1045200000027800240798002e029000e10f42005c
:1045300002003a000042eb00720037004e18900073
:104540007cf2070000027800e30f52000e003e00ec
:104550000042eb0024679800240220000e02420073
:10456000ce1890000400780067f2070024022000b3
:104570000e024200840078002e009000de03070047
:1045800014c0b3005f003700f4c0b3002467980084
:104590004e18900067f20700000278000402e8005d
:1045a000050020000400be00edf007000004be007e
:1045b0003e5a90000482fb00cfa2de000400be0041
:1045c000e4f007000002be000401be000800be00c7
:1045d0002af007000002be006407980075079800e3
:1045e0006e009000fe0090001cf007000002be006c
:1045f0000400be009bf007000002be000402780029
:1046000064179800c40220000e024200040f9800b4
:104610000e0a900014427800346798000e0a900049
:104620000402e80014427800446798000042eb005e
:1046300054679800240220000e0242008400780093
:104640002e009000ac0307000002eb001407980056
:10465000270037003e5a90000482fb00ae02900013
:1046600004824200240798000002eb0034079800ff
:10467000120037003e5a90008482fb001e02900018
:1046800004aab900840278003e029000048242002d
:10469000ce1a90000482420014427800e602200004
:1046a0000e034300be02900085024300844a780056
:1046b0003e0290000402e800340798003e5a900041
:1046c0008482fb003e029000848f5200e9ff3c0090
:1046d000e40220000e024200840078002e009000c8
:1046e000850307001e0290000402e80014079800ea
:1046f0009e0290006e129000848f5200d5ff390008
:1047000014c0b300044078004f04be000080fa00db
:10471000000006002400fa00101798000042eb0089
:104720006447980068024700040078007702070099
:104730001e10900021020700000278001407980064
:1047400078024700840078001e009000770307007d
:104750007e0a900004007800150307000e5a9000ae
:10476000ef4f52001c003a001e5a90008402fb00da
:104770002e5a90000402fb00048242004822dd0011
:104780002407980014002000040f78000e00370062
:104790001e5290008482fb001e02780004aab90019
:1047a00004027800840278001e0290000482420015
:1047b000e60247001200200085007800040078001f
:1047c000bdf807001e0fe8002e0290000402e8006a
:1047d0009e0f5200eeff3c006602470012002000d0
:1047e000840078001e009000b3f807005c03070007
:1047f000044078000080fa00000006002400fa005f
:10480000001798001117980066024700040078000e
:104810003e0207000e109000e80107000002780039
:10482000240798002e029000e10f420002003a0097
:104830000002eb0024003700760247008400780075
:104840002e009000390307006e0a9000040f7800d4
:104850000002eb00140798006e4a90008482fb006f
:104860001e02900004aab900040278009e12900073
:1048700004824200840078001e007800b003070024
:104880001e0078005802070000027800040f78002c
:104890001e027800e10f420007003a001e0290005d
:1048a0008402e8006e4a90000482fb0004aab9006a
:1048b00004027800040037001e0290000402e800a1
:1048c00014079800e4ff3700040078000080fa0025
:1048d000000006003000fa00601798007117980079
:1048e0006802470004007800080207006e1090007c
:1048f000b201070000027800240798002e02900001
:10490000e10f420002003a000042eb00480037008d
:1049100078024700840078002e009000030307000f
:104920000e5a9000ef4f520036003a001e5a900087
:104930008402fb002e5a90000402fb004822dd0096
:10494000048242003407980014002000040f78000d
:10495000270037001e5290008482fb001e02780060
:1049600004aab900840278002e029000048242005a
:10497000250220008e824200850078000400780025
:10498000ea0207000002eb0014079800120037004b
:104990009e02e9001e5290000482fb0004aab900a6
:1049a000840278001e02900004824200fe129000f1
:1049b00084824200260220000e0343001e02900063
:1049c0000402430014427800844a78001e029000da
:1049d0000402e800140798001e5290008482fb0035
:1049e0001e029000848f5200e9ff3c001e0fe80079
:1049f0003e0290000402e8009e0f5200d5ff3e00e8
:104a000007003700fe1290000042eb00844a780055
:104a100078024700840078007e1090003af1070089
:104a20007e10900043f107000002780004427800f5
:104a3000044078000080fa00000006001e00fa0022
:104a4000600f98000e82e80004007800af010700b4
:104a50006e0890005901070000027800040f7800ea
:104a60001e027800e10f420002003a0000c2eb0093
:104a70000500370072024700840078001e007800ad
:104a8000aa0207002e5a9000044078000080fa0025
:104a9000000006002a00fa00889fbe002017980038
:104aa00031179800421798006a0247000400780006
:104ab000960107002e1090004001070000027800c8
:104ac000240798007a024700840078002e009000a6
:104ad000960207000e129000040f78004e1290000c
:104ae000050020000400be009def07000004be008a
:104af0002e5290000482fb00cfa2de000400be0014
:104b000094ef07000002be000401be000800be00d2
:104b1000daee07000002be0034079800450798004f
:104b20003e009000ce009000ccee07000002be00d8
:104b300034079800450798000002eb00140798001e
:104b4000110037002e5290008482fb001e0290005c
:104b500004aab90004027800be1290000482420048
:104b6000840078001e007800dc0207001e00780038
:104b70009d01070000027800040f78001e029000db
:104b80000402e800140798001e029000cfa2de0085
:104b90000400be006fef07000002be0018c0b300a3
:104ba0003e019000ce0190000400be002bef0700f4
:104bb00000027800e00f5200010035000044eb00d5
:104bc000e04f5400dfff3a004f04be000080fa00bf
:104bd000000006003e00fa00889fbe00501f9800ab
:104be000611f980072024700040078004701070027
:104bf0000042eb00246798005e189000ef00070069
:104c00000002780044079800440220000e0242008f
:104c1000840078004e009000440207004e6290002d
:104c2000ef4f52001d003a005e6290008402fb00cc
:104c30006e6290000402fb00048242004822dd0004
:104c40005407980014002000040f78000f0037006c
:104c50003e5a90008482fb001e02780004aab9002c
:104c600004027800840278004e0290000482420020
:104c7000250220008e82420012002000850078006c
:104c8000040078008cf707001e0fe8005e02900019
:104c90000402e8009e0f5200edff3c0024022000b9
:104ca0000e02420012002000840078004e009000a6
:104cb00081f707002a020700d501070000027800eb
:104cc000140798001e029000e10f420002003a0013
:104cd0000042eb00720037006e18900095f007005c
:104ce00000027800e30f52000e003e000042eb008d
:104cf00044679800440220000e024200ee18900023
:104d00000400780080f00700440220000e024200f8
:104d1000840078001e009000f701070014c0b30063
:104d20005f003700f4c0b300446798006e1890002d
:104d300080f00700000278000402e800050020006f
:104d40000400be0006ef07000004be003e5a9000bb
:104d50000482fb00cfa2de000400be00fdee0700cf
:104d60000002be000401be000800be0043ee0700c2
:104d70000002be0064079800750798006e0090005e
:104d8000fe00900035ee07000002be000400be00e9
:104d9000b4ee07000002be00040278007417980009
:104da000e40220000e024200040f98000e0a900058
:104db00014427800546798000e0a90000402e8003c
:104dc00014427800646798000042eb007467980012
:104dd000440220000e024200840078001e00900071
:104de000c50107000002eb002407980027003700e8
:104df0003e5a90000482fb009e0290000482420012
:104e0000140798000002eb003407980012003700e6
:104e10003e5a90008482fb002e02900004aab90042
:104e2000840278003e02900004824200ee1a900054
:104e30000482420014427800060320000e0343005f
:104e4000be02900085024300844a78003e02900032
:104e50000402e800340798003e5a90008482fb0068
:104e60003e029000848f5200e9ff3c0004032000c2
:104e70000e024200840078001e0090009e01070090
:104e80002e0290000402e80024079800ae02900071
:104e90007e129000848f5200d5ff390014c0b300f9
:104ea000044078004f04be000080fa0000000600b5
:104eb0002000fa0066024700040078009300070013
:104ec0000002eb00040f7800be0290004e0290003a
:104ed0000482420014079800250037001e0290004b
:104ee000f602470085007800040078008f01070073
:104ef0006e529000e04f5200260032005e0a900091
:104f00009e0f5200020036005e0a9000040f7800e7
:104f10006e529000ef4f520010003a007e52900007
:104f20008402fb000e5a90000402fb004822dd00c0
:104f300004824200240798007e4a90008482fb008d
:104f40002e02900004aab900840278001e0290008c
:104f50000482420014079800000000007e4a90007e
:104f60000482fb009e029000048242001407980015
:104f70009e0290003e0390004e0290000403430006
:104f80005e02900004024300848f5200d3ff390078
:104f900001003700000000001e027800e00f520000
:104fa00002003a00f4ff2100010037001e027800e1
:104fb000040078000080fa00000006002200fa00d9
:104fc0000017980066024700040078004f000700b1
:104fd0000082eb00040f7800be0290004e029000a9
:104fe0000482420014079800270037001e02900038
:104ff000f602470085007800040078004b010700a6
:10500000de0a90000e129000848f520003003a00d6
:105010001e029000040f7800250037006e529000a9
:10502000ef4f520010003a007e5290008402fb00c5
:105030000e5a90000402fb004822dd000482420068
:10504000240798007e4a90008482fb002e02900084
:1050500004aab900840278001e0290000482420073
:1050600014079800030037006e529000e04f520082
:105070000e0032007e4a90000482fb009e029000e7
:1050800004824200140798009e0290003e039000a4
:105090004e029000040343005e02900004024300ad
:1050a000848f5200d1ff390001003700000000005a
:1050b0001e027800040078000080fa00000006005c
:1050c0001000fa0004012000040f7800445f200063
:1050d0001407980004e120002407980084be2000f3
:1050e0003407980044c0b300044f980094c0b30044
:1050f000144f9800020120008e0078000000eb00a1
:105100006df607000080fa00000006000200fa00b9
:10511000000f7800020120009e0078000000eb00e4
:105120008af607000080fa00000006001600fa0068
:105130000002eb00140f98000042eb004457980067
:10514000dfff07000e82e80004007800efff070091
:105150001e029000040f780006003700720247001c
:1051600022002000840078001e00780052f607001c
:105170001e8fe8009e0278001e0390002e02900011
:1051800004024300848f5200f4ff39009e02900015
:105190002e02900004824200040f780008003700bd
:1051a0007402470012002000840078001e0078007e
:1051b00041f607003e4a90000482fb001e0f4200a9
:1051c0009e0278001e0390002e029000040343000c
:1051d0003e02900004024300848f5200f0ff390029
:1051e0000080fa00000006001600fa00200f980068
:1051f0000e82e80004007800c4ff07009e029000c1
:105200002e0a90000402420004824200048fe8004b
:105210007202470022002000840078001e007800ff
:105220004af607001e0a9000040078000080fa0089
:10523000000006001600fa00100f9800210f9800d9
:105240000e82e80004007800b0ff07009e02900084
:105250001e0a90000402420004824200048fe8000b
:105260007402470022002000840078001e007800ad
:1052700011f607000080fa00000006001600fa0090
:105280006402470004007800a0ff07000082eb00e2
:10529000040f78002e0290000482e80014079800a2
:1052a00012003700740247002200200084007800ba
:1052b0001e00900025f607002e0a9000e00f520015
:1052c00007003a009e0290002e02900004825200d5
:1052d0000402d100040f78001e0fe9000900370016
:1052e0001e0290000482e800140798009e029000bd
:1052f0002e0390003e02900004024300848f52006f
:10530000e8ff39001e027800040078000080fa00ef
:10531000000006000a00fa00004f98000002eb00af
:105320002407980019003700d4ff07000002780016
:10533000340798003e029000e10f420002003a005c
:105340003e029000170037002e029000e00f52003e
:1053500004003200be0090001e007800b5ff070078
:10536000020037003e029000140798008080eb0096
:105370003e009000afff07003e029000040f78004f
:105380002e0290000402e800240798000e4a9000c4
:105390008482fb002e029000848f5200e2ff3c00ca
:1053a0001e029000040078000080fa000000060051
:1053b0001600fa00200f98006402470004007800ed
:1053c00052ff07002e0a9000040f780001003700fa
:1053d000000000001e00780083ff07000002780034
:1053e000140798008000eb001e00780091ff070072
:1053f0001e029000040f78001e029000e10f420090
:10540000f3ff3a00000000000080fa0000000600f0
:105410001a00fa0066024700040078003bff07000c
:105420000082eb00040f7800be0290004e02900054
:1054300004824200140798002300370076024700d8
:1054400032002000840078001e009000bff50700a5
:105450006e529000ef4f520010003a007e529000c2
:105460008402fb000e5a90000402fb004822dd007b
:1054700004824200240798007e4a90008482fb0048
:105480002e02900004aab900840278001e02900047
:105490000482420014079800060037006e52900004
:1054a000e04f520003003a001e029000040f780003
:1054b0000d0037007e4a90000482fb009e0290009f
:1054c00004824200140798009e0290003e03900060
:1054d0004e029000040343005e0290000402430069
:1054e000848f5200d5ff39001e0278000400780036
:1054f0000080fa00000006001400fa00000f980077
:10550000110f98000e00780000ff07001e4a90005f
:105510000482fb00040178009e0890000e089000b1
:1055200065f507000080fa00000006001400fa008c
:10553000000f9800110f98000e007800f3fe07008e
:105540001e4a90000482fb00040178009e0890002f
:105550000e0890007df507000080fa0000000600ac
:105560002200fa006602470004007800e7fe070008
:105570000082eb00040f78000082eb001407980013
:105580000042eb0074579800be0290004e0290005b
:1055900004824200240798001b003700760247006f
:1055a00012002000840078002e00900067f50700ac
:1055b0006e529000e04f520005003a001e02780043
:1055c000e10f420002003a002e029000040f780022
:1055d0006e529000e04f5200060032001e0278002a
:1055e000e10f4200030032002e02900014079800e1
:1055f0000d0037007e4a90000482fb00ae0290004e
:105600000482420024079800be0290004e029000df
:10561000848242005e029000848242002e0290004a
:10562000848f5200ddff3e001e029000e10f420019
:105630001d003a000042eb002500370078024700c9
:10564000840078001e009000b8ff07000e5a9000fa
:10565000e04f520002003a0014c0b3001c003700b3
:1056600078024700840078001e007800a2ff07003f
:105670007702470012002000840078001e0090008e
:105680000df507007e4a90000482fb009e02900008
:1056900004824200140798007e4a90000482fb00b6
:1056a0001e0f42000100370000000000be02900003
:1056b0004e029000848242005e029000848242008a
:1056c0001e029000848f5200dcff3e0014c0b30025
:1056d000044078000080fa00000006001600fa007e
:1056e000100f9800210f98000e82e8000400780047
:1056f00086fe07009e0290002e02900084824200e7
:105700003e029000048342002e4a90008482fb00f7
:105710001e0a900004aab90004027800040f430096
:105720002e4a90000482fb0004017800ae0890002d
:105730001e007800e0f407000080fa000000060078
:105740001600fa00100f9800210f98000e82e80052
:10575000040078006dfe07009e0290002e0290006b
:10576000848242003e029000048342002e4a900050
:105770008482fb001e0a900004aab900040278008b
:10578000040f43002e4a90000482fb0004017800bd
:10579000ae0890001e007800ecf407000080fa00cc
:1057a000000006000400fa0000c0200080eb0700a3
:1057b00000000000841c80004522de006742620079
:1057c0000482fb00e30f5200faff3400815b2000eb
:1057d00020002000eaea0700d1ff2f00300020005f
:1057e00088eb07002400200005002000048fbe0085
:1057f00004602000050020003e034200ae834a0002
:10580000047c2000050020000600780007037800d3
:10581000840378000502780007006000040263003a
:1058200005002000c022dd00040020000403be00ab
:105830006102b8000403730085837300423add00ff
:10584000ce32de00850272004232dd0004007800b4
:1058500004602000050020003e034200ae834a00a1
:105860000602be00422bdd00ce23de00870373005c
:105870004223dd0086027800f40f200004826200db
:105880000402700084027800c4ff210004826200d8
:105890006011b800840078000040eb000beb0700bb
:1058a0006011b800d1ff21000040eb0032eb07008f
:1058b00004602000050020003e034200ae834a0041
:1058c000047c200005002000060078000703780013
:1058d000840378000502780007006000040263007a
:1058e00005002000c022dd00040020000403be00eb
:1058f0006102b8000403730085837300423add003f
:10590000ce32de00850272004232dd0004007800f3
:1059100004602000050020003e034200ae834a00e0
:105920000602be00422bdd00ce23de00870373009b
:105930004223dd0086027800f40f2000048262001a
:105940000402700084027800c4ff21000482620017
:105950006011b8008400780010c0b300dbea0700d3
:105960006011b800d1ff210010c0b30002eb0700a6
:1059700004602000050020003e034200ae834a0080
:10598000047c200005002000060078000703780052
:1059900084037800050278000700600004026300b9
:1059a00005002000c022dd00040020000403be002a
:1059b0006102b8000403730085837300423add007e
:1059c000ce32de00850272004232dd000400780033
:1059d00004602000050020003e034200ae834a0020
:1059e0000602be00422bdd00ce23de0087037300db
:1059f0004223dd0086027800f40f2000048262005a
:105a00000402700084027800c4ff21000482620056
:105a10006011b8008400780020c0b300abea070032
:105a20006011b800d1ff210020c0b300d2ea070006
:105a3000310020000040eb00e7ea070041002000b1
:105a40000040eb00dcea07003100200010c0b3008a
:105a5000e1ea07004100200010c0b300d6ea0700c9
:105a60003100200020c0b300dbea07004100200025
:105a700020c0b300d0ea070000802a00ccea07006b
:105a800000000000851c8000040e200004826200db
:105a9000e00f5200fbff3a000080fa000000060011
:105aa0000600fa00000f780011079800424798009e
:105ab0004e4290009e039000057c20009e82620072
