:020000040000fa
:080000000001040000000000f3
:020000040000fa
:100008009401000094010000940100009401000094
:100018009401000094010000940100009401000084
:100028009401000094010000940100009e05000066
:100038009401000094010000f20500001806000079
:100048009401000094010000940100009401000054
:100058009401000094010000940100009401000044
:100068009401000094010000940100009401000034
:100078009401000094010000940100009401000024
:100088009401000094010000940100009401000014
:100098009401000094010000940100009401000004
:1000a80094010000940100009401000094010000f4
:1000b80094010000940100009401000094010000e4
:1000c80094010000940100009401000094010000d4
:1000d80094010000940100009401000094010000c4
:1000e80094010000940100009401000094010000b4
:0800f8009401000094010000d6
:020000040000fa
:100108009401000094010000940100009401000093
:100118009401000094010000940100009401000083
:100128009401000094010000940100009e05000065
:100138009401000094010000f20500001806000078
:100148009401000094010000940100009401000053
:100158009401000094010000940100009401000043
:100168009401000094010000940100009401000033
:100178009401000094010000940100009401000023
:100188009401000094010000940100009401000013
:100198009401000094010000940100009401000003
:1001a80094010000940100009401000094010000f3
:1001b80094010000940100009401000094010000e3
:1001c80094010000940100009401000094010000d3
:1001d80094010000940100009401000094010000c3
:1001e80094010000940100009401000094010000b3
:0801f8009401000094010000d5
:020000040000fa
:10020000ef8020000e7f22000e0188000000000019
:1002100000012000200288000c000700c0652000bb
:100220000100200011000700000020000000e00095
:1002300002003200000002000000000084050200fd
:10024000000000000040da000000fe004440a90069
:10025000600020000000e0000300320000002000e9
:10026000a00188004440a800000006009101880019
:10027000800078000000eb0015003700e2804000ad
:1002800032a0b4009101ba00e280400032a0b40074
:100290009102ba00e280400032a0b4000002eb00fc
:1002a000472bde00f507b200602ce10004003a00a5
:1002b0000059eb008301e900fdff3e000400370018
:1002c0006128e100010032000082eb000400070019
:1002d0001101ba000200e000e8ff3a000000060049
:1002e0003159ba008301e9000c0032002159ba00eb
:1002f0008301e900080032000400e00003003a0036
:10030000e280400032a0b400f5ff370011d9ba00f6
:100310008301e900faff3a008100e800e180400033
:1003200032a0b400000006000040da000000fe0029
:10033000839f68000100e00002003d0060001000a3
:10034000e08018000300e00002003d0060011100a1
:10035000e0811900140007004f00e00002003b009c
:1003600060001000e080180000000600811f780087
:100370000100e00002003d0060001000e080180075
:100380000300e00002003d0060011100e08119005f
:10039000150007004f00e00002003b006000100065
:1003a000e0801800000006006022b800060220006d
:1003b0000000d0008180d2000482d2008582d20069
:1003c0000000a0000202520083825a0003003100a4
:1003d0000202420083824a000000a1000603e900f5
:1003e000f3ff3a0000000600efff07000400be0024
:0403f0000000060003
:020000040000fa
:0c03f400537400006172000074000000ef
:020000040000fa
:100400000400fa00100798000002eb00040f7800c7
:100410000002eb00040f7800010037001e0fe80017
:100420001e0290009e027800848f5200fbff350070
:100430000080fa00000006000c00fa003007980067
:1004400041079800520798005e029000ff024200a8
:100450000042eb00844a7800e4012000040f780099
:100460003e029000ce029000e00f5200e08f5a0052
:1004700025003a001e027800de02900084824200cd
:1004800004c3b300844a78001e0fe9001e00370041
:100490003e029000ce0290001407980025079800b5
:1004a0001e029000ae029000a20020000300200077
:1004b0000400be00adff07000002be001407980054
:1004c000250798001e027800de0290008482420018
:1004d0001e029000044278000443b000844a780071
:1004e0001e0fe9003e029000ce029000a200200004
:1004f000030020000400be008dff07000002be00c4
:1005000034079800450798003e029000ce02900004
:10051000e00f5200e08f5a00ddff3c001e02e800b1
:10052000040078000080fa00000006000800fa00cd
:100530001007980021079800320798003e029000ab
:10054000e40242000042eb00844a78000e8fe8008b
:100550001e02780014427800be029000844a78009f
:100560003e0290008402e8001e02e8001442780077
:10057000844a78003e0290008482e8001e82e800ef
:1005800014427800844a78003e029000e302420060
:100590001e0378006302430014427800844a780006
:1005a0000080fa00000006000200fa00d222a90032
:1005b000d242a9003516800004f02f000482720098
:1005c00034168800d642a900d622a9009001200046
:1005d0008bff070044168000040f7800d622a80085
:1005e00035168000f40f2000048262003416880063
:1005f0001e02780044168800d642a8009001200010
:100600007fff07001e027800040078000080fa00d7
:10061000000006000000fa000002eb00f41688005b
:100620001602a900b41080000410a1000420a1004b
:10063000b410880016a2a900b4092000f4108800a4
:1006400017e2a8001942a8000080fa000000060086
:100650000000fa00350480000420200004826200bb
:10066000e00f520002003a0014c0b300020037004d
:100670008720a9000042eb00044078000080fa00c7
:10068000000006000200fa00004f78009e42780049
:100690000582fb00d410880000000000ecff07007a
:1006a00000427800e04f5200fcff3a000080fa0060
:1006b000000006000200fa00000f78000500370075
:1006c0001e027800144278001e0fe80004407800f3
:1006d000ecff07001e02780014427800e04f520041
:1006e000f7ff3a000080fa00000006000000fa0060
:1006f0000002eb0024088800240880000440a000c9
:100700000450a0002408880004352c001408880038
:10071000a404800004c0a00004d0a00004e0a10054
:10072000a40488008460a9008c60a80005e1a800ea
:100730000080fa00000006000000fa000002eb0052
:1007400084088800840880000440a1000450a100af
:10075000840888000405200064088800b404800030
:100760000480a0000490a10004a0a000b4048800ac
:1007700084c0a9008cc0a80011e1a8000080fa0084
:10078000000006000000fa000002eb009408880058
:10079000940880000440a0000450a0009408880041
:1007a0000471220074088800b404800004c0a10011
:1007b00004d0a10004e0a000b404880084e0a900f3
:1007c0008ce0a80013e1a8000080fa0000000600f9
:1007d0000200fa00c602a8000042eb00044f7800b5
:1007e000441680000442780061426200844278002e
:1007f0001e42780004c24200044f7800100020001e
:10080000fffe070044168000044278006142620047
:10081000844278001e42780004c24200044f7800ef
:1008200010002000f6fe0700441680000442780005
:1008300061426200844278001e42780004c2420095
:10084000044f780010002000edfe07001e427800e3
:10085000e14f52000200340014c0b3000100370021
:100860000042eb00044078000080fa00000006001f
:100870000200fa00c622a8000042eb00044f7800f4
:10088000441680000402d100614262008442780074
:100890001e42780004c24200044f7800100020007d
:1008a000d7fe0700441680000402d10061426200b6
:1008b000844278001e42780004c24200044f78004f
:1008c00010002000cefe0700441680000402d10074
:1008d00061426200844278001e42780004c24200f5
:1008e000044f780010002000c5fe07001e4278006b
:1008f000e14f52000200340014c0b3000100370081
:100900000042eb00044078000080fa00000006007e
:100910000200fa00c602a800c622a8004416800001
:1009200004427800634f6200448020001442780043
:100930000402fb00cfa2de003600200007002000ea
:10094000860f5200878f5a0058003e000460010055
:100950001600370028003700010037003900370043
:100960001e427800e34f520006003a000440800027
:100970001540800061024200e0824a000440880085
:10098000154088001e427800e04f520040003a00b7
:10099000044080001540800061025200e0825a004d
:1009a0000440880015408800400037001e4278004f
:1009b000e24f520006003a000440800015408000db
:1009c00061024200e0824a0004408800154088002d
:1009d0001e427800e14f52002f003a000440800090
:1009e0001540800061025200e0825a0004408800f5
:1009f000154088002d0037001e427800e04f52005d
:100a000006003a0004408000154080006102420068
:100a1000e0824a0004408800154088001e427800a9
:100a2000e34f52001e003a00044080001540800051
:100a300061025200e0825a0004408800154088009c
:100a40001a0037001e427800e14f520006003a00bb
:100a5000044080001540800061024200e0824a00ac
:100a600004408800154088001e427800e24f520082
:100a70000d003a00044080001540800061025200e1
:100a8000e0825a00044088001540880007003700c3
:100a900000000000050037000000000003003700e0
:100aa0000000000001003700000000001e40780038
:100ab00004e8b7000080fa00000006000000fa0019
:100ac0000640800017408000344080004540800090
:100ad0000402530085825b00544088006540880012
:100ae0000440800015408000344088004540880064
:100af00054408000654080000402780004007800c3
:100b00000080fa00000006000400fa00000f7800e0
:100b1000110798000082eb0044158800bdfe070015
:100b2000f2fe070004ff070016ff0700a41f2800bd
:100b300004007800dffe0700ffff37003600f800f2
:100b4000809fbe00829fbe00849fbe00869fbe0025
:100b50003400f80000002000a00188000600fa0020
:100b60008460a900cda2a900841680004d22de0079
:100b70006142620015c0b30004c2520061426200cb
:100b80000482fb00610262004d22dd0086168000b7
:100b9000f5ff2d0085026300048272008416880030
:100ba00081fe070054408000654080000e017800ff
:100bb0000400be005dfe07000e027800040078000d
:100bc000bcfe07000080fa003400f9004f03be00ad
:100bd0004f02be004f01be004f00be003600f900bc
:100be000004006003600f800809fbe00829fbe00d5
:100bf000849fbe00869fbe003400f80000002000e5
:100c0000a00188000000fa0084c0a90040ff07008e
:100c10000080fa003400f9004f03be004f02be000e
:100c20004f01be004f00be003600f9000040060034
:100c30003600f800809fbe00829fbe00849fbe00e9
:100c4000869fbe003400f80000002000a00188004c
:100c50000000fa0084e0a900cdc2a900841680003b
:100c60004e22de006142620015c0b30004c2520091
:100c7000614262000482fb00610262004e22dd00dc
:100c800086168000f5ff2b00850263000482720047
:100c90008416880089ff07000080fa003400f900fc
:100ca0004f03be004f02be004f01be004f00be000a
:080cb0003600f90000400600c7
:020000040000fa
:100cb800000800000e000000020000000000000014
:100cc80000ff00000000000000000000000000001d
:040cd8000000000018
:020000040000fa
:0200000401f009
:04000000e7bf000056
:020000040000fa
:0200000401f009
:04000400ff7f00007a
:020000040000fa
:0200000401f009
:040008007f7f0000f6
:020000040000fa
:0200000401f009
:04000c00ffff0000f2
:020000040000fa
:0200000401f009
:04001000ffff0000ee
:020000040000fa
:0200000401f009
:04001400ffff0000ea
:020000040000fa
:0200000401f009
:04001800ffff0000e6
:00000001FF
