:020000040000fa
:080000000001040000000000f3
:020000040000fa
:10000800c0010000c0010000c0010000c0010000e4
:10001800c0010000c0010000c0010000c0010000d4
:10002800c0010000c0010000c00100000a1d00005e
:10003800c0010000c00100000a1e0000441e0000ac
:10004800c0010000c0010000c0010000c0010000a4
:10005800c0010000c0010000c0010000c001000094
:10006800c0010000c0010000c0010000c001000084
:10007800c0010000d61e0000a21f0000c001000041
:10008800c0010000c0010000c0010000ca1f00003c
:10009800c0010000c0010000c0010000c001000054
:1000a800c0010000c0010000c0010000c001000044
:1000b800c0010000c001000026200000c0010000af
:1000c800c0010000c001000082200000c001000043
:1000d800c0010000c0010000c0010000c001000014
:1000e800c0010000c0010000c0010000c001000004
:0800f800c0010000c00100007e
:020000040000fa
:10010800c0010000c0010000c0010000c0010000e3
:10011800c0010000c0010000c0010000c0010000d3
:10012800c0010000c0010000c00100000a1d00005d
:10013800c0010000c00100000a1e0000441e0000ab
:10014800c0010000c0010000c0010000c0010000a3
:10015800c0010000c0010000c0010000c001000093
:10016800c0010000c0010000c0010000c001000083
:10017800c0010000d61e0000a21f0000c001000040
:10018800c0010000c0010000c0010000ca1f00003b
:10019800c0010000c0010000c0010000c001000053
:1001a800c0010000c0010000c0010000c001000043
:1001b800c0010000c001000026200000c0010000ae
:1001c800c0010000c001000082200000c001000042
:1001d800c0010000c0010000c0010000c001000013
:1001e800c0010000c0010000c0010000c001000003
:0801f800c0010000c00100007d
:020000040000fa
:10020000cf6c21000e7f22000e018800000000004c
:1002100000012000200288000c000700a02b240011
:100220000100200011000700000020000000e00095
:10023000020032000000020000000000d41c020096
:10024000000000000040da000000fe004440a90069
:10025000e00d20000000e00003003200000020005c
:10026000a00188004440a800000006009101880019
:10027000800078000000eb0015003700e2804000ad
:1002800032a0b4009101ba00e280400032a0b40074
:100290009102ba00e280400032a0b4000002eb00fc
:1002a000472bde00f507b200602ce10004003a00a5
:1002b0000059eb008301e900fdff3e000400370018
:1002c0006128e100010032000082eb000400070019
:1002d0001101ba000200e000e8ff3a000000060049
:1002e0003159ba008301e9000c0032002159ba00eb
:1002f0008301e900080032000400e00003003a0036
:10030000e280400032a0b400f5ff370011d9ba00f6
:100310008301e900faff3a008100e800e180400033
:1003200032a0b400000006001a0b04000000000018
:1003300062170400000000004623040000000000d3
:1003400072220400000000000628040000000000e3
:1003500098270400000000003c2704000000000073
:10036000a423040000000000242604000000000074
:10037000fe240400000000008c26040000000000a1
:100380000040da000000fe00901c8800a11c8800dc
:1003900000000600e14f500006003200e24f50001e
:1003a00006003200e04f500009003a00701b800048
:1003b00003003700f01a800001003700701a800037
:1003c000680060000000e9004f00de000000060049
:1003d0000040eb00000006000002eb008180fb0003
:1003e00009003700e04f510003003200653720005c
:1003f000e14f5100010032006538200065487a0065
:100400000402e8000000e800810f5200f5ff35000b
:1004100000000600401bde0007002000e1cf520074
:1004200008003200e2cf52000a003200001b8800b0
:10043000161b8800221b88000003eb008483fb004e
:1004400012003700801a8800961a8800a21a8800c5
:10045000f9ff3700001a8800161a8800221a88004f
:10046000f5ff370060352000e1cf52000400320074
:1004700060362000e2cf520001003a0060342000d4
:1004800011707b000603e8008100e800870f53002d
:10049000f4ff35006f426200e1cf52000a003200e3
:1004a000e2cf520011003200e0cf520018003a00b3
:1004b0006f0262004322dd0075f82f00261b8000ca
:1004c00086826200170037006f0262004322dd005f
:1004d00075f82f00a21a80008282620004827200e6
:1004e000a41a88005e63a800000006006f02620084
:1004f0004322dd0075f82f00261a800086826200f4
:1005000004827200241a88004e63a80000000600ce
:100510006f0262004322dd0075f82f00221b80006d
:100520008282620004827200241b88006e63a8002d
:1005300000000600889fbe00401cde00090020006d
:100540000003fb00cfb3de00e50f5300e08f5b003c
:100550001e003e000660010005003700070037005e
:100560000a0037000d003700100037001300370075
:1005700001188800181888001600370041188800f4
:100580005818880062188800130037008118880006
:1005900098188800a21888000f003700c11888003a
:1005a000d8188800e21888000b003700011988006d
:1005b000181988002219880007003700411988009f
:1005c0005819880062198800030037000118880054
:1005d00018188800221888004f04be00000006008a
:1005e000401ade0005002000e04f500006003200f7
:1005f000e14f500004003a00c1198800d419880066
:10060000e21988000000060081198800941988000a
:10061000a219880000000600801c88000000060067
:10062000e04f500004003200e14f500002003a0059
:10063000f11b880000000600711c88000000060005
:10064000e14f500003003200e24f500005003a0035
:1006500002003700f11a880000000600711a8800b5
:1006600000000600711b8800000006009022880030
:10067000a122880000000600e14f50000600320071
:10068000e24f500006003200e04f500009003a00ef
:100690007021800003003700f02080000100370047
:1006a00070208000680060000000e9004f00de005c
:1006b000000006000040eb00000006000002eb0016
:1006c0008180fb0009003700e04f51000300320039
:1006d00065432000e14f51000100320065442000d5
:1006e00065487a000402e8000000e800810f52002b
:1006f000f5ff350000000600401bde00070020006b
:10070000e1cf520008003200e2cf52000a0032006e
:100710000021880016218800222188000003eb00b8
:100720008483fb0012003700802088009620880018
:10073000a2208800f9ff37000020880016208800da
:1007400022208800f5ff370060412000e1cf5200f1
:100750000400320060422000e2cf520001003a0063
:100760006040200011707b000603e8008100e80073
:10077000870f5300f4ff35006f426200e1cf520053
:100780000a003200e2cf520011003200e0cf5200e6
:1007900018003a006f0262004322dd0075f82f0056
:1007a0002621800086826200170037006f026200f7
:1007b0004322dd0075f82f00a220800082826200b3
:1007c00004827200a42088001e64a80000000600b5
:1007d0006f0262004322dd0075f82f0026208000a2
:1007e0008682620004827200242088000e64a800c1
:1007f000000006006f0262004322dd0075f82f0042
:1008000022218000828262000482720024218800fa
:100810002e64a80000000600889fbe00401cde0079
:10082000090020000003fb00cfb3de00e50f5300fa
:10083000e08f5b001e003e000660010005003700ef
:10084000070037000a0037000d003700100037009e
:1008500013003700011e8800181e8800160037009c
:10086000411e8800581e8800621e88001300370051
:10087000811e8800981e8800a21e88000f00370085
:10088000c11e8800d81e8800e21e88000b003700b9
:10089000011f8800181f8800221f880007003700ea
:1008a000411f8800581f8800621f8800030037001e
:1008b000011e8800181e8800221e88004f04be00fa
:1008c00000000600401ade0005002000e04f500046
:1008d00006003200e14f500004003a00c11f8800ba
:1008e000d41f8800e21f880000000600811f8800d6
:1008f000941f8800a21f8800000006008022880044
:1009000000000600e04f500004003200e14f5000ac
:1009100002003a00f12188000000060071228800e0
:1009200000000600e14f500003003200e24f50008b
:1009300005003a0002003700f120880000000600a0
:100940007120880000000600712188000000060068
:100950009623ef008760a900c01c8800e782600032
:10096000cc2add00f4ff28000605800006026200a4
:100970000502720004058800e8806000c308de00fc
:10098000e1806000cb08dd00f47f2f00750480005b
:100990000502620001027200740488000000060073
:1009a0005624ef0088c0a900c0228800e7826000ba
:1009b000c82add00f48f2f00360580000602620091
:1009c0000502720034058800e8806000c308de007c
:1009d000e1806000c608dd00f4fb2f008504800084
:1009e0000502620001027200840488000000060013
:1009f00040118800311188000000060003f0a200b9
:100a0000889fbe008a9fbe008c1f78005701070098
:100a10005e0133006450e1004f0032006420e100c9
:100a20005200320003826c0007003b000905d00031
:100a30000306d000820f54000c065d00020039004e
:100a40000200320089017800030678008582550093
:100a500004003d000003fd008103fd008502ea0063
:100a60008b854200840f720002003b006000100082
:100a7000e08018006011b8000005eb007a28e10062
:100a80000a00390006007800c75ddd00f707b200f4
:100a9000878075002d003700828171000a0178007f
:100aa000610560008180d1000080d3008502e900eb
:100ab000f9ff3b00060440008784480002003b0029
:100ac00060041400e0841c000988a30007003200c1
:100ad0008a81710082817100610164008904d10002
:100ae0000884d3008b05e800170037000978a300bd
:100af00013003a000b00e000130034008b05e900fe
:100b00000804440089844c000a4474000978a30056
:100b10000d003a000b00e000070034008b05e900ef
:100b20000804440089844c0001003a000b002000b6
:100b30000978a300f7ff32000001eb000200370044
:100b4000828171000a017800cd0007000cf0a70037
:100b500001f0a000160137006420e10002003a0015
:100b6000838f6c00160133000801be000200be0036
:100b70000f0137000001eb005700070004003200ae
:100b80000200200003f8230001f0a6009cff0700ec
:100b900000000600889fbe008a9fbe008c1f780060
:100ba000f2000700f900330003866c006450e10096
:100bb0002e0032006420e100330032006150e10079
:100bc0002f0032006120e1003100320085855500a0
:100bd000eb07b000090020000804200005003700e2
:100be0000804440089844c000a00310006034300d5
:100bf00087834b000001530081815b00f8ff3300c5
:100c00000203be000800a0000804440089844c00d0
:100c1000f6ff3900c639dd008301730001003200a0
:100c2000130020008904d1000884d3000998a30090
:100c3000050032000800a7000300a0008904d100cd
:100c40000884d3008b05e8008904d1000884d30010
:100c50000001eb000281d2008900070001f0a10031
:100c60000cf0a70001f0a000d10037006420e100e3
:100c7000d30032000801be000200be00f7ff3700bb
:100c80006120e100ce0032006000b800f3ff3700c1
:100c90000000200001f82700f0ff3700839f680064
:100ca0000100e00002003d0060001000e08018003c
:100cb0000300e00002003d0060011100e081190026
:100cc000050107004f00e00002003b00600010003b
:100cd000e080180000000600889fbe008a9fbe00ca
:100ce0000003be008c000700850578008281520059
:100cf000020020006220e10004003a00f307b10086
:100d0000040035007718e100040035000600be003d
:100d1000140037006000b8000f003700f50f200006
:100d2000faff2f008502d1000a85d3008301e90074
:100d3000fcff3b008184620000046500890f7400a1
:100d4000f2ff32008582ea000a85ea0081846200af
:100d5000000465004a00070007f0a70001f0a000aa
:100d60000081eb000200e0004f05be004f04be0012
:100d70000000060014002000ea0037000001be0059
:100d8000650007000470a70003f0a1006509b10029
:100d9000160032000d0035006828e100060035001d
:100da000f0ff2f00f1ff27000300e00013003b00dd
:100db000010028000000050000004000818048007c
:100dc0008502e900fcff3a0008003700f88f420076
:100dd00002003c008000eb00000005008100d10013
:100de0000080d3008502e800fcff3a000300e00029
:100df00002003b0060001000e080180000000600c8
:100e00000001be00440007000470a70003f0a10029
:100e100003f8a30013003a006509b1001000320086
:100e2000090035006928e1000200350001002800b2
:100e30000000050000004000818048008502e900b4
:100e4000fcff3a0000000600f88f42000500350064
:100e50008100d1000080d3008502e800fcff3a0049
:100e6000000006008000eb00000005004f89de0056
:100e700082017800c60037006011b800d400370046
:100e800081002000618055000b003d000b00200018
:100e900061fe2f000100e1001d003400828171001d
:100ea000610164008904d1000884d3000000e800d7
:100eb000faff3a0071002000610064000300700036
:100ec000020060000900320061044400e0844c002c
:100ed0000988a500050032008b05e8006808e100dc
:100ee00002003a008904d1000884d300f20f2000e8
:100ef0000258e10005003d00c75ddd00f907b200c2
:100f00008980750008007800000006000bf82700b3
:100f10008b00780000000500c70ade00f107b20070
:100f2000f50fb20008003200e1cf420002003200ab
:100f30000170a00024000500810f70000100320044
:100f40000408050044000500810f700002003a000b
:100f5000140005008502e9000000400081c048003f
:100f6000fcff3b000170a000240005000004be004f
:100f7000e9ff07000003be000405be000200be003a
:100f8000e5ff0700844f7500000006000200be0068
:100f90006450e100050036006420e10002003600e4
:100fa0000968a30001003a000800be000160a0002b
:100fb0004f0678004f05be004f04be00000006003b
:100fc000f0ff2f00f1ff2700f9ff3700811f7800a5
:100fd0000100e00002003d0060001000e080180009
:100fe0000300e00002003d0060011100e0811900f3
:100ff000490007004f00e00002003b0060001000c5
:10100000e080180000000600889fbe008a9fbe0096
:101010008c1f7800d5ff0700dcff330003866c00cf
:101020006450e100240032006420e1002700320017
:101030006150e100220032006120e1002100320015
:101040008b854200eb07b1000134b800003ab800cc
:101050000804420089844a00013ab8000030b80010
:101060008880400009014a0004003300000040006d
:1010700081804800020149008b05e900c909dd00b3
:10108000830170000100320013002000c814de004c
:101090004814dd004709de001200b200c808de0077
:1010a0000884700076ff070001f0a1000cf0a70093
:1010b00001f0a000beff37006120e100c0ff320058
:1010c0000801be000200be00f7ff37006150e100da
:1010d000fcff3a00baff37006022b8000602200089
:1010e0000000d0008180d2000482d2008582d2002c
:1010f0000000a0000202520083825a000300310067
:101100000202420083824a000000a1000603e900b7
:10111000f3ff3a0000000600efff07000400be00e6
:1011200000000600889fbe008a9fbe00841f7800d2
:101130008eff07004f00780011003300f0ff2f00f2
:10114000838f6c0006003b00040565000a00a700c1
:101150000800370009f0a600100020000800370042
:10116000820f5400838f5c000300390010002000c0
:1011700001003e000000200009f0a7000000ea0086
:101180004f05be004f04be000000e0000000060056
:10119000881f7800030478000300e00007003d008a
:1011a00060001000e080180060011900e081190063
:1011b00002003b0001f02d0003003700040007008f
:1011c00008f0a70001f0a0004f047800000006001e
:1011d000889fbe008a9fbe000082700004027100da
:1011e00004827100260032000004be000200be002e
:1011f0006011b8006b092000950220000182cf0029
:101200000a0039000541b1000082cf000700390013
:101210000541b1000982cf00040039000541b10049
:101220000882cf00010039000541b100054252009b
:10123000120032000a003b008281710061016400eb
:101240008100d1000080d3008984d3000884d300ba
:101250008b05e8000442e800f7ff3a00070037007a
:101260000804440089844c00000048008180480044
:101270008b05e9000442e900f9ff3a0000ff07008e
:101280004f05be004f04be000000060000027800bb
:1012900002003700315a78000201e900e00f5100e6
:1012a000fcff3a000000060000027800840278008b
:1012b000050278000043eb00b44f1300fbff3a0037
:1012c00031427800845a7800e04f5200fcff3a0027
:1012d00000000600000278008042eb00b4cf12004c
:1012e000fdff3a000080ea00000042000000060016
:020000040000fa
:1012f000646f00006e5f000061760000746f000094
:101300005f310000006f0000735f000031000000db
:10131000763100002e300000003100002e30000039
:1013200000630000616e0000310000006d6100008c
:10133000726b00005f64000069730000746100005c
:101340006e63000065000000737900006e630000aa
:10135000687200006f6e0000697a0000617400001e
:10136000696f00006e000000737900006e6300007a
:10137000685f00007a6f00006e650000006f00007b
:1013800076650000725f00007269000073650000fe
:101390005f7a00006f6e0000655f00006c6f0000f8
:1013a000770000006f760000657200005f72000039
:1013b00069730000655f00007a6f00006e650000d1
:1013c0005f68000069670000680000006465000055
:1013d000665f000064690000616700005f720000e2
:1013e0006576000000640000656600005f64000030
:1013f00069610000675f000067720000757a000095
:1014000000640000656600005f6400006961000020
:10141000675f00006c7500006469000000640000f4
:10142000656600005f64000069610000675f00009e
:101430006e650000676100006200000067690000df
:101440007374000065720000657a00006973000023
:101450005f6e0000756c00006c000000765f00009d
:10146000636f000065660000666900006369000044
:10147000656e000074000000615f0000636f000093
:10148000656600006669000063690000656e000023
:10149000740000002e000000200000003a00000050
:0c14a00073740000617200007400000012
:020000040000fa
:1014ac000000fa000180200020002200af1307008a
:1014bc004180200030002200ac1307008180200006
:1014cc0040002200a91307004640800057408000ce
:1014dc00483add00c832de00850272004832dd0079
:1014ec0044408800554088004440800055408000ae
:1014fc00e00f5200e08f5a0002003d00f40fb000e4
:10150c000580b000482bdd004822de000402730089
:10151c00c8aade004440880055408800c1802000e5
:10152c005000220091130700664080007740800035
:10153c00483add00c832de00850272004832dd0018
:10154c0064408800754088006440800075408000cd
:10155c00e00f5200e08f5a0002003d00f40fb00083
:10156c000580b000482bdd004822de000402730029
:10157c00c8aade0064408800754088000181200004
:10158c0060002200791307004181200070002200c6
:10159c0076130700c181200080002200731307001e
:1015ac00018220009000220070130700a4b12000db
:1015bc0082a0200081822000a000220004000100f3
:1015cc00a4b1200082cd200081af2000b000220009
:1015dc0004000100a4b1200082fa200081dc20006c
:1015ec00c000220004000100a4b1200082272100c9
:1015fc0081092100d0002200040001008136210065
:10160c00e000220059130700c1362100f00022002f
:10161c005613070001372100000122005313070065
:10162c000080fa0000000600fc00fa0030bf9800b1
:10163c0041bf980052bf98006602470084007800b2
:10164c003eb89000491307000002eb00040f78002d
:10165c001c003700660347001e0278006622b900a2
:10166c000402780004024300140798006603470044
:10167c001e0278006622b90004027800640242005f
:10168c0004024300240798001e0290001402be00be
:10169c001e0378004233dd0006034700e607b00066
:1016ac00048bbe002e029000940278001e0278007b
:1016bc000402420004024700e40cb000050a780062
:1016cc001e0fe8001e027800f30f5200e1ff3400f9
:1016dc00e50c20008e824200e40720000e0242003e
:1016ec00deb990004eb990008500780004007800b7
:1016fc008b1907000080fa00000006000200fa00b7
:10170c00000f78001e0278006123b900f4ff2d0051
:10171c00f5ff2f000602420087824a00f6002000e7
:10172c0007002000860f5200878f5a009c003e0055
:10173c00046001000f003700270037002a00370033
:10174c002d003700450037005d0037006000370082
:10175c006300370066003700690037006f00370000
:10176c00750037007b00370081003700840037009c
:10177c0087003700416a210010002200fb1207008d
:10178c0026b5800037b58000483add00c832de004f
:10179c00850272004832dd0024b5880035b588001a
:1017ac0024b5800035b58000e00f5200e08f5a0060
:1017bc0002003d00f40fb0000580b000482bdd00a6
:1017cc004822de0004027300c8aade0024b588009b
:1017dc0035b58800720037000180200020002200ff
:1017ec00e21207006e00370041802000300022001a
:1017fc00de1207006a0037008180200040002200c2
:10180c00da1207004640800057408000483add005d
:10181c00c832de00850272004832dd004440880088
:10182c00554088004440800055408000e00f520035
:10183c00e08f5a0002003d00f40fb0000580b000ac
:10184c00482bdd004822de0004027300c8aade002b
:10185c00444088005540880051003700c18020006a
:10186c0050002200c11207006640800077408000c3
:10187c00483add00c832de00850272004832dd00d5
:10188c00644088007540880064408000754080008a
:10189c00e00f5200e08f5a0002003d00f40fb00040
:1018ac000580b000482bdd004822de0004027300e6
:1018bc00c8aade00644088007540880038003700f4
:1018cc000181200060002200a812070034003700bc
:1018dc004181200070002200a41207003000370064
:1018ec00c181200080002200a01207002c003700cc
:1018fc0001822000900022009c1207002800370073
:10190c0085a02000848220000501780084007800e6
:10191c00a000220044ff07002100370085cd2000e5
:10192c0084af20000501780084007800b00022000c
:10193c003dff07001a00370085fa200084dc2000e8
:10194c000501780084007800c000220036ff0700f3
:10195c001300370085272100840921000501780038
:10196c0084007800d00022002fff07000c00370005
:10197c0081362100e00022007c12070008003700ad
:10198c00c1362100f0002200781207000400370055
:10199c000137210000012200741207000000000032
:1019ac000080fa00000006000000fa00043a8000f3
:1019bc000480a1000490a00004a0a00004b0a0002a
:1019cc00043a88009140a9004187a800000000005b
:1019dc00053a80000400220004826200e00f5200ed
:1019ec00fbff32008940a900440580000480a1005f
:1019fc000490a00004a0a000440588009140a80019
:101a0c000080fa00000006000800fa002007980089
:101a1c00310798006022b800048fbe006022b80025
:101a2c00048fbe00040037001400200005002000c5
:101a3c001e0f42005e974a002e029000be029000dc
:101a4c001e03be00840f5300858f5b00f6ff35002c
:101a5c000080fa00000006000e00fa004007980013
:101a6c0051079800620798006e029000eb0242004a
:101a7c000042eb00844a78000042eb00044f7800ef
:101a8c00a4002000140798004e029000de02900083
:101a9c00e00f5200e08f5a0008003a001e0290003e
:101aac00ee0290008482420004c3b300844a7800a2
:101abc001e0290000402e900140798004e029000e8
:101acc00de029000e00f5200e08f5a0029003d002a
:101adc004e029000de02900060021200e0821a00ba
:101aec00440798005507980000c2eb00044f78009b
:101afc00200037004e029000de0290002407980070
:101b0c00350798002e029000be029000a200200023
:101b1c00030020000400be0029fd07000002be00e7
:101b2c0024079800350798001e029000ee029000e2
:101b3c00848242002e029000044278000443b000dc
:101b4c00844a78001e0290000402e90014079800f1
:101b5c004e029000de029000a20020000300200044
:101b6c000400be004afc07000002be0044079800b7
:101b7c00550798004e029000de029000e00f5200d4
:101b8c00e08f5a00dbff3c001e427800e14f420020
:101b9c0008003a001e029000ee029000848242007f
:101bac00d4c2b300844a78001e0290000402e900fb
:101bbc00140798001e0290000402e800040078004c
:101bcc000080fa00000006000800fa0010079800d8
:101bdc0021079800320798000e8fe8001e0278004b
:101bec0014427800be029000844a78003e029000b5
:101bfc008402e8001e02e80014427800844a78004f
:101c0c003e0290008482e8001e82e80014427800b4
:101c1c00844a78003e029000e30242001e037800e2
:101c2c006302430014427800844a78000080fa0072
:101c3c00000006000200fa00d222a900d242a9003c
:101c4c003516800004f02f000482720034168800d0
:101c5c00d642a900d622a900900120000100200044
:101c6c0069ff070044168000040f7800d622a800f4
:101c7c001e02780048a2de0004427800044078007e
:101c8c000080fa00000006000400fa0020479800cb
:101c9c00314798002e4290000482ea0024479800b5
:101cac00256a2100954278002e42900004c2620001
:101cbc0004407800a2f6b700256a2100954278000e
:101ccc003e42900004c2720004407800a2f6b700b5
:101cdc00246a21001442780004cfea00d222a90021
:101cec00d242a9003516800004f02f000482720045
:101cfc0034168800d642a900d622a80035168000da
:101d0c00f40f200004826200341688001e02fb00cf
:101d1c004822dd0044168800d642a800900120001d
:101d2c000100200038ff0700d642a90090012000d6
:101d3c000100200034ff07000080fa0000000600bc
:101d4c000000fa00246a21001442780004c2ea0060
:101d5c00044078000080fa00000006000600fa003b
:101d6c0010079800414798001e029000e8024200bc
:101d7c000042eb00844a78000002eb00040f78006c
:101d8c00140037001e0278009e02900084824200ec
:101d9c004e42900061426200844a78001e02780034
:101dac009e029000848242001e0278001e03900066
:101dbc0004024300144278000443b000844a7800c3
:101dcc004e4290000402fb000482d100444798006c
:101ddc001e0fe8001e027800e70f5200e9ff3400e6
:101dec000080fa00000006000000fa000002eb0080
:101dfc00f41688001602a900b41080000410a1008b
:101e0c000420a100b410880016a2a900b409200077
:101e1c00f410880017e2a8001942a8000080fa000c
:101e2c00000006000000fa003504800004202000a9
:101e3c0004826200e00f520002003a0014c0b300aa
:101e4c00020037008720a9000042eb000440780014
:101e5c000080fa00000006000200fa00004f780033
:101e6c009e4278000582fb00d41088000000000020
:101e7c00ecff070000427800e04f5200fcff3a00f4
:101e8c000080fa00000006000200fa00000f780043
:101e9c00050037001e027800144278001e0fe8007f
:101eac0004407800ecff07001e0278001442780012
:101ebc00e04f5200f7ff3a000080fa0000000600e5
:101ecc000600fa0010079800210798000002eb00aa
:101edc00040f78000002eb00040f780008003700b4
:101eec001e029000144278009e0290008502e800c9
:101efc001507980004407800d7ff07001e0fe80074
:101f0c002e0290009e027800848f5200f4ff350060
:101f1c000080fa00000006000000fa000002eb004e
:101f2c0024088800240880000440a0000450a0006d
:101f3c002408880004352c0014088800a4048000b0
:101f4c0004c0a10004d0a00004e0a100a4048800f7
:101f5c008460a9008c60a80005e1a8000080fa004c
:101f6c00000006000000fa000002eb008408880064
:101f7c00840880000440a1000450a100840888005b
:101f8c00a40a200064088800b40480000480a10026
:101f9c000490a00004a0a000b404880084c0a90090
:101fac008cc0a80011e1a8000080fa000000060017
:101fbc000000fa000002eb009408880094088000ee
:101fcc000440a0000450a00094088800e4492200ba
:101fdc0074088800b404800004c0a00004d0a100e0
:101fec0004e0a000b404880084e0a9008ce0a80000
:101ffc0013e1a8000080fa00000006000000fa00bf
:10200c000002eb00f4088800f40880000440a000f3
:10201c000450a000f4088800241c2000d408880078
:10202c00f40480000440a1000450a1000460a0004e
:10203c00f404880086a0a9008ea0a8001fe1a800c7
:10204c000080fa00000006000000fa000002eb001d
:10205c0004098800040980000440a0000450a0007a
:10206c0004098800840c2000e4088800f404800033
:10207c000480a0000490a00004a0a100f404880037
:10208c0086c0a9008ec0a80021e1a8000080fa003b
:10209c00000006000200fa00c602a800c622a80032
:1020ac004416800004427800634f6200846a210069
:1020bc00144278000402fb00cfa2de0036002000a0
:1020cc0007002000860f5200878f5a0058003e00f0
:1020dc0004600100160037002800370001003700ab
:1020ec00390037001e427800e34f520006003a00d8
:1020fc0024b5800035b5800061025200e0825a00a0
:10210c0024b5880035b588001e427800e04f520097
:10211c0040003a0024b5800035b5800061024200d1
:10212c00e0824a0024b5880035b5880040003700ad
:10213c001e427800e24f520006003a0024b580009f
:10214c0035b5800061025200e0825a0024b5880047
:10215c0035b588001e427800e14f52002f003a003e
:10216c0024b5800035b5800061024200e0824a004f
:10217c0024b5880035b588002d0037001e42780044
:10218c00e04f520006003a0024b5800035b58000bf
:10219c0061025200e0825a0024b5880035b58800ef
:1021ac001e427800e34f52001e003a0024b5800016
:1021bc0035b5800061024200e0824a0024b58800f7
:1021cc0035b588001a0037001e427800e14f5200e6
:1021dc0006003a0024b5800035b58000610252003b
:1021ec00e0825a0024b5880035b588001e4278007c
:1021fc00e24f52000d003a0024b5800035b5800046
:10220c0061024200e0824a0024b5880035b588009e
:10221c000700370000000000050037000000000038
:10222c000300370000000000010037000000000030
:10223c001e407800a8f6b7000080fa0000000600e7
:10224c000000fa0056b5800067b580000082eb00f4
:10225c008082eb00840f5300858f5b0004003a00f2
:10226c0024b5800035b5800054b5880065b588006c
:10227c0024b5800035b580000403780054b5800087
:10228c0065b58000040278000402530074b5880020
:10229c0024b5800035b5800054b5880065b588003c
:1022ac000080fa00000006000c00fa0050079800ad
:1022bc0024b5800035b580004e2bdd004222de00b7
:1022cc0004027300c2aade00048fbe001e00be0012
:1022dc00e3fa07000003be00244080003540800074
:1022ec000401be000600be0044fb07000002be0055
:1022fc000400be009efa07000002be0024079800ee
:10230c00350798005e0190002e009000be009000f2
:10231c00d1fd070000027800044f98000e4a90008f
:10232c00044078000080fa00000006000800fa0063
:10233c0024b5800035b580004e2bdd004222de0036
:10234c0004027300c2aade00048fbe001e00be0091
:10235c00c3fa07000003be00244080003540800013
:10236c000401be000600be0024fb07000002be00f4
:10237c000400be007efa07000002be00240798008d
:10238c00350798002e029000be0290000400be009b
:10239c000080fa00000006000800fa0020079800f0
:1023ac00310798002e009000be009000acfa070098
:1023bc000003be0024408000354080000401be00b4
:1023cc000600be00f0f907000002be000400be00cb
:1023dc0067fa07000002be00048fbe001e03be0099
:1023ec00423add00ce32de00850272004232dd0060
:1023fc00048fbe001e02be000400be000080fa0066
:10240c00000006000200fa00889fbe0074b5800030
:10241c0042a2de00040f78001e027800cfa2de007c
:10242c000400be008efa07000004be0026408000a7
:10243c0037408000649b8000759b80000401be00c7
:10244c000600be00edfa07000002be000401be004b
:10245c000800be00e9fa07000002be000400be003e
:10246c0043fa07000002be00040f78001e02780039
:10247c00cfa2de000400be0079fa07000002be0005
:10248c0072f92f0003d923000400be00bef9070027
:10249c000002be000400be0035fa07000002be00b8
:1024ac0004027800040078004f04be000080fa009b
:1024bc00000006000000fa00e442a900e462a90052
:1024cc00dec2a90095168000f40f20000482620081
:1024dc0094168800e842a900e862a900d762a80017
:1024ec00d742a900d722a900d702a900e2c2a900ad
:1024fc00400620000100200043fd0700d762a90020
:10250c0040062000010020003ffd0700d762a80014
:10251c00d742a900d722a900d702a900e2c2a8007d
:10252c00400620000100200037fd0700d762a900fb
:10253c00007122000100200033fd07000080fa002a
:10254c00000006000200fa00004f7800e442a900e7
:10255c00e462a900dec2a90095168000f40f2000e9
:10256c000482620094168800e842a900e862a9007f
:10257c00d762a8009e02fb0004082000848262003f
:10258c0014c0b300e08f520001003c000042eb008d
:10259c000482fb00610262004a22dd00b616800054
:1025ac00f5bf2f008502630004827200b416880008
:1025bc009e02fb00040420008482620014c0b3005d
:1025cc00e08f520001003c000042eb000482fb0053
:1025dc00610262004922dd00b6168000f5df2f0093
:1025ec008502630004827200b41688009e02fb0010
:1025fc00040220008482620014c0b300e08f5200f9
:10260c0001003c000042eb000482fb00610262000e
:10261c004822dd00b6168000f5ef2f00850263001e
:10262c0004827200b41688001e02fb00f0026200e5
:10263c0014c0b300e08f520001003c000042eb00dc
:10264c000482fb00610262004622dd001617800046
:10265c00f5fb2f00850263000482720014178800ba
:10266c004006200001002000e7fc0700d762a9000b
:10267c004006200001002000e3fc0700d762a80000
:10268c001e02fb004422dd00044f78009e02fb007a
:10269c00040820008482620014c0b300e08f520052
:1026ac0001003c000042eb000482fb00610262006e
:1026bc004a22dd00b6168000f5bf2f0085026300ac
:1026cc0004827200b41688009e02fb0004042000f1
:1026dc008482620014c0b300e08f520001003c0001
:1026ec000042eb000482fb00610262004922dd0023
:1026fc00b6168000f5df2f0085026300048272009d
:10270c00b41688009e02fb00040220008482620042
:10271c0014c0b300e08f520001003c000042eb00fb
:10272c000482fb00610262004822dd00b6168000c4
:10273c00f5ef2f008502630004827200b416880046
:10274c001e02fb00f002620014c0b300e08f5200c6
:10275c0001003c000042eb000482fb0061026200bd
:10276c004622dd0016178000f5fb2f008502630062
:10277c00048272001417880040062000010020001b
:10278c00a1fc0700d762a900400620000100200030
:10279c009dfc07000080fa00000006000000fa0013
:1027ac00e442a900e462a900dec2a90095168000eb
:1027bc00f40f20000482620094168800e842a900fd
:1027cc00e862a900d762a800d742a900d722a900c5
:1027dc00d702a800e2c2a900400620000100200098
:1027ec0089fc0700d762a9004006200001002000e8
:1027fc0085fc0700d762a800d742a900d722a90000
:10280c00d702a800e2c2a900400620000100200067
:10281c007dfc0700d762a9004006200001002000c3
:10282c0079fc0700d762a800d742a800d722a800dd
:10283c00d702a800e2c2a800400620000100200038
:10284c0071fc0700d762a90040062000010020009f
:10285c006dfc0700e842a900e862a900d762a80055
:10286c00d742a900d722a900d702a900e2c2a90029
:10287c00400620000100200063fc0700d762a9007d
:10288c0040062000010020005ffc0700d762a80072
:10289c00d742a800d722a800d702a900e2c2a900fb
:1028ac00400620000100200057fc0700d762a90059
:1028bc00400620000100200053fc0700fdfe07002d
:1028cc00e842a900e862a900d762a800d742a90093
:1028dc00d722a900d702a900e2c2a9004006200015
:1028ec000100200048fc0700d762a9004006200028
:1028fc000100200044fc0700d762a800d742a900c1
:10290c00d722a800d702a800e2c2a90040062000e6
:10291c00010020003cfc0700d762a9004006200003
:10292c000100200038fc070000c8b30005ff0700b9
:10293c0080bb20000100200033fc07000080fa005f
:10294c00000006000800fa00881f78003007980085
:10295c000002eb002407980014002000040f7800fc
:10296c0000c8b300f7fe07002e0290000402e80036
:10297c0014079800ca003700e842a800e862a900d2
:10298c00d762a8001e0290000402e900be0290006b
:10299c0004824200144278008402fb0004082000e8
:1029ac008482620014c0b300e08f520001003c002e
:1029bc000042eb000482fb00610262004a22dd004f
:1029cc00b6168000f5bf2f008502630004827200ea
:1029dc00b41688001e0290000402e900be029000aa
:1029ec0004824200144278008402fb00040420009c
:1029fc008482620014c0b300e08f520001003c00de
:102a0c000042eb000482fb00610262004922dd00ff
:102a1c00b6168000f5df2f00850263000482720079
:102a2c00b41688001e0290000402e900be02900059
:102a3c0004824200144278008402fb00040220004d
:102a4c008482620014c0b300e08f520001003c008d
:102a5c000042eb000482fb00610262004822dd00b0
:102a6c00b6168000f5ef2f00850263000482720019
:102a7c00b41688001e0290000402e900be02900009
:102a8c0004824200144278000402fb00f00262004f
:102a9c0014c0b300e08f520001003c000042eb0078
:102aac000482fb00610262004622dd0016178000e2
:102abc00f5fb2f0085026300048272001417880056
:102acc00e001200001002000cffb0700d762a90025
:102adc00e001200001002000cbfb0700d762a8001a
:102aec001e0290000402e900be0290000482420023
:102afc00144278000402fb00e802620014c0b30028
:102b0c00e08f520001003c000042eb000482fb000d
:102b1c00610262004a22dd00b6168000f5bf2f006c
:102b2c008502630004827200b41688001e029000b5
:102b3c000402e900be0290000482420014427800b4
:102b4c000402fb00e402620014c0b300e08f5200e8
:102b5c0001003c000042eb000482fb0061026200b9
:102b6c004922dd00b6168000f5df2f0085026300d8
:102b7c0004827200b41688001e0290000402e90060
:102b8c00be02900004824200144278000402fb0052
:102b9c00e202620014c0b300e08f520001003c005e
:102bac000042eb000482fb00610262004822dd005f
:102bbc00b6168000f5ef2f008502630004827200c8
:102bcc00b41688001e0290000402e900be029000b8
:102bdc0004824200144278000402fb00e10262000d
:102bec0014c0b300e08f520001003c000042eb0027
:102bfc000482fb00610262004622dd001617800091
:102c0c00f5fb2f0085026300048272001417880004
:102c1c00e0012000010020007bfb0700d762a90027
:102c2c00e00120000100200077fb07001e0290004d
:102c3c006f026200e00f520016003a001e0278008c
:102c4c00e20f520009003200e30f52000c00320078
:102c5c00e10f52000f003a0000ccb30039fe070020
:102c6c0024002000040f78000a00370000c9b300cc
:102c7c0034fe070034002000040f780005003700f4
:102c8c0000cdb3002ffe070044002000040f780095
:102c9c00000000001e0290000402e80014079800d7
:102cac001e0490003e00900087f907000002780097
:102cbc00840278002e029000048242000402e80094
:102ccc00840f54002cff39004f0478000080fa0068
:102cdc00000006000400fa000002eb00040f78006c
:102cec000002eb0014079800e4c2a900e4e2a9007a
:102cfc00e502a800007d20000100200042fb070037
:102d0c00c4032900040f7800f4fb2d00140798006d
:102d1c009e0090001e00780032f707000080fa0039
:102d2c00000006000200fa00000f78008740a9009e
:102d3c00451180000440200004826200e00f520024
:102d4c00030032001e027800541188000400370082
:102d5c00f40f20001e0262005411880000000000d5
:102d6c003411800062026200e00f5200fcff3a0056
:102d7c00800220000100200023fb0700541180007a
:102d8c00040f780014c0b300044078000080fa00ef
:102d9c00000006000000fa0026c2a9000002eb00a9
:102dac0054118800000000003411800061026200a0
:102dbc00e00f5200fcff320034118000610262000f
:102dcc00e00f52000c00320026c2a9004511800011
:102ddc000440200004826200e00f52000300320025
:102dec005411800004427800040037005411800014
:102dfc00044278000100370014c0b300044078008e
:102e0c000080fa00000006000000fa002476210081
:102e1c0001082000f00820000400010024762100a5
:102e2c00310020003008200004000100247621002d
:102e3c00310120004008200004000100247621000c
:102e4c00110120005008200004000100247621000c
:102e5c0031012000600820000400010024762100cc
:102e6c0031012000200820000400010024762100fc
:102e7c0081042000100820000400010024762100a9
:102e8c008000eb00000820000400010024762100e3
:102e9c008000eb00f0082000040001000080fa0024
:102eac00000006000000fa00e5a2a90089ff070057
:102ebc000080fa00000006000200fa00004f7800c3
:102ecc0011479800e5a2a900e9a2a8009e4278004b
:102edc000582fb000400780092ff07001e42900060
:102eec000482fb00040078008eff0700e5a2a90015
:102efc00e9a2a9000080fa00000006000400fa0014
:102f0c0020479800e5a2a900e9a2a8002e42900053
:102f1c000482fb000400780082ff07009dff07007d
:102f2c0000427800044f7800e5a2a900e9a2a900ac
:102f3c001e427800044078000080fa000000060071
:102f4c000200fa000040eb00ecff070000427800a2
:102f5c00044f78001e4278008482fb00f4072000a6
:102f6c000482620044a2de00144798001e429000c6
:102f7c006a22b90004027800144798009e42780037
:102f8c006fc262009e42900004c242001447980037
:102f9c001e429000044078000080fa0000000600f9
:102fac000200fa0010c0b300d4ff07000042780002
:102fbc00044f78001e4278008482fb00f407200046
:102fcc000482620044a2de00144798001e42900066
:102fdc006a22b90004027800144798009e427800d7
:102fec006fc262009e42900004c2420014479800d7
:102ffc001e429000044078000080fa000000060099
:10300c000200fa0020c0b300bcff070000427800a9
:10301c00044f78001e4278008482fb00f4032000e9
:10302c000482620044a2de00144798001e42900005
:10303c006a22b90004027800144798009e42780076
:10304c006fc262009e42900004c242001447980076
:10305c001e429000044078000080fa000000060038
:10306c000200fa0030c0b300a4ff07000042780051
:10307c00044f78001e427800044078000080fa006b
:10308c00000006000200fa0040c0b3009bff0700de
:10309c0000427800044f78001e4278008482fb00c6
:1030ac00f40720000482620044a2de00144798005a
:1030bc001e4290006a22b90004027800144798005e
:1030cc009e4278006fc262009e42900004c2420091
:1030dc00144798001e429000044078000080fa00cb
:1030ec00000006000200fa0050c0b30083ff070086
:1030fc0000427800044f78001e4278008482fb0066
:10310c00f40720000482620044a2de0014479800f9
:10311c001e4290006a22b9000402780014479800fd
:10312c009e4278006fc262009e42900004c2420030
:10313c00144798001e429000044078000080fa006a
:10314c00000006000200fa0060c0b3006bff07002d
:10315c0000427800044f78009e4278000582fb0004
:10316c004422de00144798001e4290006a22b900e7
:10317c0004027800144798009e4278006fc26200e7
:10318c009e42900004c24200144798001e429000d8
:10319c00044078000080fa00000006005e00fa008f
:1031ac00602f98006a02470022000900001aeb0009
:1031bc00d4f42600e54626005407980065079800cd
:1031cc00149627000500200074079800050f98003e
:1031dc000002eb00140f98004455270055362700c9
:1031ec00240f9800350f98004416260095072000f0
:1031fc00440f9800550f98000002eb00640f9800e4
:10320c007e0247007655260047e62600068abe0059
:10321c00640242005636270047162600068abe0076
:10322c006402420095072000050a78000482e80039
:10323c00840220000e0242004685260057272700f4
:10324c00068abe0064024200364726001796270005
:10325c00068abe00640242008002eb00050a780078
:10326c000482e8006424270095462600141f980069
:10327c00251f98001496270005002000341f980085
:10328c00451f98000002eb00541f9800c403200057
:10329c000e0242003615260047572700068abe004c
:1032ac00640242002647260017962700068abe00b5
:1032bc00640242008002eb00050a78000482e800f8
:1032cc0034552700e54626003427980045279800fa
:1032dc0014962700050020005427980065279800b5
:1032ec000002eb007427980015ff070000427800dd
:1032fc00044f78002aff070000427800144798001a
:10330c003fff070000427800244798008dff07001c
:10331c00004278000482fb002407980071ff07002c
:10332c00004278006447980056ff0700004278007e
:10333c00744798004aff070000427800044f980039
:10334c00ae029000047d200004824200cfa2de0079
:10335c00060520000e034300060178000400be00a1
:10336c00bdf9070000027800144f98001e4a900027
:10337c000402fb00050520008e82420004824200fc
:10338c00840078006e289000c4f707006e28900027
:10339c00cdf7070000027800ee2a9000048242006c
:1033ac0022002000a1a4280004007800b4f7070034
:1033bc006e4290000402fb00cfa2de000605200046
:1033cc000e034300060178000400be00a2f90700ba
:1033dc0000027800144f98001e4a90000402fb0073
:1033ec00050520008e824200048242008400780091
:1033fc006e289000a9f707006e289000b2f707001e
:10340c0000027800ee2a9000048242002200200084
:10341c00a1a428000400780099f707007e429000d0
:10342c000402fb00cfa2de00060520000e034300c1
:10343c00060178000400be0087f90700000278003e
:10344c00144f98001e4a90000402fb000505200052
:10345c008e82420004824200840078006e28900024
:10346c008ef707006e28900097f70700000278008f
:10347c00ee2a90000482420022002000c1a4280001
:10348c00040078007ef707002e4290000402fb0037
:10349c00cfa2de00060520000e03430006017800d3
:1034ac000400be006cf9070000027800144f98006d
:1034bc001e4a90000402fb00050520008e8242008b
:1034cc0004824200840078006e28900073f7070095
:1034dc006e2890007cf7070000027800ee2a90001e
:1034ec000482420022002000e1a42800040078009d
:1034fc0063f707001e4290000402fb00cfa2de001f
:10350c00060520000e034300060178000400be00ef
:10351c0051f9070000027800144f98001e4a9000e1
:10352c000402fb00050520008e824200048242004a
:10353c00840078006e28900058f707006e289000e1
:10354c0061f7070000027800ee2a90000482420026
:10355c0022002000e1a428000400780048f70700ae
:10356c001e4278000402fb00cfa2de0006052000fc
:10357c000e034300060178000400be0036f9070074
:10358c0000027800144f98001e4a90000402fb00c1
:10359c00050520008e8242000482420084007800df
:1035ac006e2890003df707006e28900046f7070044
:1035bc0000027800ee2a90000482420022002000d3
:1035cc00c1a42800040078002df707006a03470007
:1035dc000e4a90000402fb000402e9006a22b900c2
:1035ec000402780004024300840078006e289000e6
:1035fc002af707000080fa00000006000000fa001d
:10360c00e582a900b3fd070000fa200001002000ac
:10361c00fdf807000080fa00000006000000fa0028
:10362c00e582a900e982a90060002000bdfd070029
:10363c00e582a900e982a8000080fa0000000600db
:10364c000800fa001007980021079800320798002c
:10365c00f2ff0700e582a900e982a9002000200002
:10366c00b0fd070000427800e04f52002400320009
:10367c001e0290004822de0004007800a9fd07001d
:10368c0000427800e04f52001f0032009e02900072
:10369c00f40f20000482620004007800a1fd0700f2
:1036ac0000427800e04f5200190032000002eb009b
:1036bc00040f78000b0037001e027800ae02900059
:1036cc0004824200144278000402fb0004007800db
:1036dc0094fd070000427800e04f52000e003200cb
:1036ec001e0fe8003e0290009e027800848f52006c
:1036fc00f1ff3500e582a900e982a8000700370038
:10370c000000000005003700000000000300370037
:10371c000000000001003700000000000080fa00eb
:10372c00000006000800fa00881f780010079800b7
:10373c002107980032079800e582a900e982a900c8
:10374c003000200077fd070000427800e04f520067
:10375c00210032001e0290004822de000400780096
:10376c0070fd070000427800e04f52001c00320050
:10377c009e029000f40f2000048262000400780086
:10378c0068fd070000427800e04f5200160032003e
:10379c000002eb00040f7800070037001e027800cf
:1037ac00ae029000048442007afd070000427800cb
:1037bc00044c78001e0fe8003e0290009e02780038
:1037cc00848f5200f5ff3500e582a900e982a8003c
:1037dc000000000005003700000000000300370067
:1037ec000000000001003700000000004f047800ca
:1037fc000080fa00000006000200fa00e582a90031
:10380c00e982a9005000200046fd070061fd070079
:10381c0000427800044f7800e582a900e982a800f4
:10382c001e427800044078000080fa000000060078
:10383c000600fa000e82e8004200200084007800a6
:10384c000000eb00b7ff07000e8fe8001e027800a7
:10385c001402be000400be000080fa000000060046
:10386c000600fa004047980084408000e00f5200a8
:10387c0002003a000042eb0045003700abfa0700ab
:10388c000002be00048fbe004e4290000402fb00fa
:10389c006102620004427800e04f52001b003200cb
:1038ac00a44080006123b900644080007540800012
:1038bc000602420087824a00be0f5200ae8f5a00a9
:1038cc00320034006640800077408000a4408000c5
:1038dc00cfa2de000402530085825b00be0f5200b3
:1038ec00ae8f5a0029003d00644080007540800076
:1038fc000400be00a8fa07000002be0024b5880030
:10390c0035b5880014c0b300210037004e4290003a
:10391c000402fb0062026200e00f52001b00320046
:10392c004640800057408000a4408000cfa2de00bb
:10393c000402530085825b00be0f5200ae8f5a000a
:10394c0012003d00a44080006123b9004440800077
:10395c00554080000602420087824a00be0f52008a
:10396c00ae8f5a000900340044408000554080005e
:10397c000400be0088fa07000002be0024b58800cf
:10398c0035b5880014c0b300010037000042eb00cd
:10399c00044078000080fa00000006000400fa00e1
:1039ac00000f7800110798000082eb004415880086
:1039bc007afb07003bfd070010ff07009c0c07007b
:1039cc00416a210010002200680a0700b4f60700c3
:1039dc00f5f7070031c0b30030c4b300aaf80700f4
:1039ec00e00507009e0607004bf907005df907008c
:1039fc006ff9070081f9070093f9070000a528006b
:103a0c00d0fb0700ffff37003600f800809fbe0098
:103a1c00829fbe00849fbe00869fbe003400f800cb
:103a2c0000002000a00188005400fa008460a90066
:103a3c00cda2a900841680004d22de0061426200f6
:103a4c0015c0b30004c25200614262000482fb0044
:103a5c00610262004d22dd0086168000f5ff2d000c
:103a6c0085026300048272008416880071f80700d6
:103a7c0000427800044f78006022b80014079800c8
:103a8c0025079800660247001b000900001aeb008e
:103a9c000e82e80004007800c0fd07000a00370021
:103aac000e82e8000400780007f607000002780098
:103abc008e82e8000482420022002000c1a428006b
:103acc0004007800eef507000e82e8000400780090
:103adc00fdf5070000027800ff0f5200f0ff3600e2
:103aec00e40320000e02420004007800eef9070007
:103afc0000427800144798001e4290000402fb001c
:103b0c00e50320008e824200848242000e82e8008f
:103b1c008500780004007800e0f507000a00370003
:103b2c000e82e80004007800e7f507000002780038
:103b3c008e82e8000482420022002000c1a42800ea
:103b4c0004007800cef507000e82e800040078002f
:103b5c00ddf5070000027800f5022000850f520009
:103b6c00efff36001ec2ea00a50420008e82420040
:103b7c00844078000500780078f80700a504200040
:103b8c008e8242000e82e8008500780004007800e6
:103b9c00c2f507000a0037000e82e8000400780026
:103bac00c9f50700000278008e82e800048242000a
:103bbc0022002000c1a4280004007800b0f5070002
:103bcc000e82e80004007800bff5070000027800c0
:103bdc00f5032000850f5200efff36000e82e8003f
:103bec000400780057fb07000080fa003400f9004d
:103bfc004f03be004f02be004f01be004f00be007f
:103c0c003600f900004006003600f800809fbe0028
:103c1c00829fbe00849fbe00869fbe003400f800c9
:103c2c0000002000a00188000000fa0084c0a90058
:103c3c0018f9070084b580000402e80084b58800f8
:103c4c0085b5800004712200848f520003003a0075
:103c5c000002eb0084b5880079f907000080fa00b7
:103c6c003400f9004f03be004f02be004f01be00ee
:103c7c004f00be003600f900004006003600f80088
:103c8c00809fbe00829fbe00849fbe00869fbe00a8
:103c9c003400f80000002000a00188000800fa00a1
:103cac0084e0a900d202a900b41680000442780076
:103cbc006142620015c0b30004c25200614262004e
:103ccc000482fb0061026200b6168000e5ff2f0043
:103cdc008502630004827200b4168800cdc2a9006c
:103cec00841680004e22de006142620015c0b300d3
:103cfc0004c25200614262000482fb006102620055
:103d0c004e22dd0086168000f5ff2b008502630035
:103d1c000482720084168800c6f7070000427800ff
:103d2c00044f78001e407800cdfe07007ff9070095
:103d3c000002be000400be00c81107001e02fb00fa
:103d4c00040078004f1107001e4078002d11070069
:103d5c00acf90700000278001407980073f907000b
:103d6c000002be0024079800350798009e41780099
:103d7c001e0190002e009000be0090002b11070039
:103d8c000080fa003400f9004f03be004f02be0061
:103d9c004f01be004f00be003600f9000040060087
:103dac003600f800809fbe00829fbe00849fbe003c
:103dbc00869fbe003400f80000002000a00188009f
:103dcc002000fa0086a0a9008ef9070000027800f6
:103ddc00040f780055f907000002be001407980084
:103dec002507980044408000554080003407980017
:103dfc004507980064408000754080005407980087
:103e0c00650798005e039000ee0390003e02900060
:103e1c00ce0290000603420087834a001e029000e7
:103e2c00ae0290000402530085825b007407980078
:103e3c00050f98000002eb00140f98007df70700a7
:103e4c0000427800445798004e5290000402fb0048
:103e5c00840178001e0178001e009000ae009000d6
:103e6c008110070000027800340f9800b4f70700a7
:103e7c0000427800ce529000055f98008042eb0023
:103e8c00155f98008042eb00255f98008042eb00a4
:103e9c00355f9800445f98000042eb00545f980037
:103eac000042eb00645f98000042eb00745f9800e6
:103ebc007802470015002000851f780084037800e5
:103ecc001e0b9000be0a90001e0278001e0190008e
:103edc00ae0190007e0090008e089000d10007008b
:103eec008f87e9007802470025002000851f7800a5
:103efc00840378001e0b9000be0a90001e0278000e
:103f0c001e019000ae0190007e0090008e08900083
:103f1c00c40007008f87e9000080fa003400f90024
:103f2c004f03be004f02be004f01be004f00be004b
:103f3c003600f900004006003600f800809fbe00f5
:103f4c00829fbe00849fbe00869fbe003400f80096
:103f5c0000002000a00188000000fa0086c0a90023
:103f6c0060060700bd0607000080fa003400f90067
:103f7c004f03be004f02be004f01be004f00be00fb
:103f8c003600f900004006003600f800809fbe00a5
:103f9c00829fbe00849fbe00869fbe003400f80046
:103fac0000002000a00188000a00fa008760a90028
:103fbc009603a9009623a900841c80006e0262005f
:103fcc00ee0f520002003a0096c3a900140037000d
:103fdc00446a210042002000840078004043210004
:103fec0097fd0700041c80004222de00f57f2000b4
:103ffc0005026200040f78000e82e80004007800cd
:10400c00f40607000e82e8001200200084007800fd
:10401c001e007800f20007008ee3a9007ee3a900e1
:10402c000080fa003400f9004f03be004f02be00be
:10403c004f01be004f00be003600f90000400600e4
:10404c003600f800809fbe00829fbe00849fbe0099
:10405c00869fbe003400f80000002000a0018800fc
:10406c000a00fa0088c0a9005604a9005624a90029
:10407c00842280006e026200ee0f520002003a00b1
:10408c0056c4a90014003700446a210042002000e5
:10409c00840078004043210069fd07000422800061
:1040ac004222de00f57f200005026200040f78003a
:1040bc000e82e80004007800cf0607000e82e800ac
:1040cc0022002000840078001e007800c400070045
:1040dc004ee4a9003ee4a9000080fa003400f90087
:1040ec004f03be004f02be004f01be004f00be008a
:1040fc003600f900004006003600f800809fbe0034
:10410c00829fbe00849fbe00869fbe003400f800d4
:10411c0000002000a00188000000fa008940a900de
:10412c00446a2100420020008400780040432100b2
:10413c0043fd07000080fa003400f9004f03be0075
:10414c004f02be004f01be004f00be003600f9000a
:10415c00004006000800fa002047980031479800fc
:10416c002207980063479800744798002e429000ed
:10417c000482fb004822dd000408b000040f780024
:10418c003e4290000482fb001e0f42007e429000d3
:10419c00e14f520005003a006e419000ae009000d5
:1041ac001e0078006d050700040037006e4190007a
:1041bc00ae0090001e007800990507000080fa0000
:1041cc00000006000800fa0020479800210798001c
:1041dc00624798007347980004582000040f780039
:1041ec002e4290000482fb001e0f42007e42900083
:1041fc00e14f520005003a006e419000ae00900075
:10420c001e00780055050700040037006e41900031
:10421c00ae0090001e007800810507000080fa00b7
:10422c00000006002600fa00300f9800410f98009d
:10423c00520f9800630f9800740f980005179800a0
:10424c00161798002717980004408000044f780038
:10425c006602470003000900001aeb0076024700d3
:10426c00140798001e0290001442780064479800ce
:10427c001e0290000402e800144278007447980073
:10428c001e0290000482e80014427800044f98004b
:10429c007a024700140798001e029000144278001e
:1042ac00144f98001e0290000402e800144278009b
:1042bc00244f98001e0290000482e80014427800fb
:1042cc00344f9800e60247000efa970023c0b30063
:1042dc00050178009e40780010c0b3009dff0700d8
:1042ec006e02470003000900001aeb007e0a9000e2
:1042fc000402ea00740f98007e024700140798002d
:10430c001e02900014427800644f98001e02900028
:10431c000402e80014427800744f98007e0a900062
:10432c000402ea00740f98007e02470014079800fc
:10433c001e02900014427800045798001e02900050
:10434c000402e8001442780014579800040220007c
:10435c000e024200140798001e02900014427800ce
:10436c00245798001e0290000402e80014427800c2
:10437c0034579800240220000e02420014079800c3
:10438c001e02900014427800445798001e029000c0
:10439c000402e8001442780054579800ee024700db
:1043ac000efa970013c0b300050178009e40780008
:1043bc0020c0b30067ff07002e129000240798005e
:1043cc000efa97008041eb002e0190009e40780081
:1043dc0030c0b3005fff07000080fa000000060049
:1043ec000600fa00000f7800110798004247980069
:1043fc00047820009e02620004602000848f52002a
:10440c0032003a004e429000044078009cf6b7000f
:10441c000471220044b688001e0290009442780079
:10442c0004c4b30084cf520004003a006434220068
:10443c001e00900004000100250037001e029000b1
:10444c00144278008402fb00040f20008482620076
:10445c0004022000848f520004003a00242722001a
:10446c001e00900004000100190037001e0290008d
:10447c00144278008402fb00040e200004826200c7
:10448c00e00f520004003a00648022001e009000ed
:10449c00040001000e0037001e02900094427800c8
:1044ac0004c6b30084cf5200050032001e029000f7
:1044bc009442780004c7b30084cf520004003a0041
:1044cc008479220004000100010037000000000084
:1044dc000080fa00000006001600fa00200f980079
:1044ec0004408000044f78002e0a900063024200c2
:1044fc0014427800144798002e0a90000402e80039
:10450c00144278008402fb002e0a90000482e8001a
:10451c00144278000402fb004822dd0004824200b1
:10452c00140798002e0a9000144278008402fb00b5
:10453c00340f20008482620004022000848f520019
:10454c0023003a001e029000c4b488001e42900062
:10455c000482fb00d4b488002e0a9000640242004e
:10456c00144278000402fb00b4b488000002eb0093
:10457c0034b6880004c6b300444f98002e0a90004d
:10458c000402e80014427800544f98002e0a900060
:10459c000482e80014427800644f98002e0a9000c0
:1045ac006302420014427800744f9800c4692100e1
:1045bc0014427800ec024700844178000041eb0083
:1045cc00850078001e407800fefe07002a003700a8
:1045dc001e4290000482fb00e20f520003003200e6
:1045ec00e40f52000a003200230037002e0a90001c
:1045fc006402420042002000840078001e009000fb
:10460c00000807001e0090003cf40700040037006f
:10461c00c47322002e08900004000100000000006a
:10462c0004c6b300444798002e0a90000402e80028
:10463c0014427800544798002e0a90000482e80037
:10464c0014427800644798002e0a900063024200de
:10465c001442780074479800c46921001442780011
:10466c00e4024700844178000041eb0085007800ab
:10467c001e407800d3fe07000080fa000000060000
:10468c000600fa00200798002e02900063024200f8
:10469c0014427800044f78002e0290000402e800c7
:1046ac00144278008402fb002e0290000482e80081
:1046bc00144278000402fb004822dd000482420010
:1046cc00140798009e02900004002200848f520070
:1046dc0004003a00443a22002e009000040001002d
:1046ec00140037009e4278000582fb00e20f520056
:1046fc0008003200e40f52000a003200e10f5200b1
:10470c000c003a00446222002e00900004000100cc
:10471c0008003700e44f22002e0090000400010036
:10472c0004003700c46822002e0090000400010031
:10473c00000000000080fa00000006003a00fa00b9
:10474c00401f980004408000044f98000e0278002f
:10475c000403b00003000900001aeb004e1a90008d
:10476c000402e800144278008402fb004e1a900008
:10477c000482e800144278000402fb004822dd00a9
:10478c0004824200540798004e1a900063024200c3
:10479c00144278000402fb00640798006e02470084
:1047ac00840078005e009000f0060700000278009c
:1047bc00140798001e029000e00f5200890032008e
:1047cc004e1a90000402e800144278001477980006
:1047dc004e1a90000482e800144278002477980066
:1047ec004e1a90006302420014427800347798000d
:1047fc006e029000050020006600200007002000db
:10480c00860f5200878f5a0038003e00046001006a
:10481c00060037000b003700110037001700370077
:10482c001d0037002300370029003700b4c4b30043
:10483c00047798006e0f47001400200014079800ae
:10484c002a003700b4c4b300047798006e02470006
:10485c00048fe80024002000140798002300370080
:10486c0014c4b300047798006e024700640f420032
:10487c00a4002000140798001c00370034c4b300b7
:10488c00047798006e0247006e0f4200440020002f
:10489c00140798001500370034c4b300047798004f
:1048ac006e024700720f420044002000140798006b
:1048bc000e00370074c4b300047798006e024700f2
:1048cc00760f4200340020001407980007003700d0
:1048dc0034c4b300047798006e024700790f42008d
:1048ec004400200014079800000000008e72900015
:1048fc0014c4b30084cf52001d003a001e02900075
:10490c0004427800447798000042eb0054779800fa
:10491c000002eb00240798000002eb00240798002b
:10492c000a0037002e0290001e024200144278004a
:10493c002e039000e55c210085024300844a780038
:10494c002e0290000402e80024079800ae029000aa
:10495c001e029000848f5200f2ff39000002eb001f
:10496c0034b688001e029000b4b4880013003700df
:10497c000002eb00340798000002eb0034079800ab
:10498c000a0037003e029000e40242003e02900012
:10499c001e0242001442780085024700847298007f
:1049ac003e0290000402e80034079800be0290001a
:1049bc001e029000848f5200f2ff3900c46921005e
:1049cc0014427800050320008e8242008441780056
:1049dc000041eb00850078000e489000f9fd0700bf
:1049ec0001003700000000000080fa000000060003
:1049fc00ac00fa005097980004408000444798009f
:104a0c006c02470003000900001aeb005e92900054
:104a1c000402e800144278008402fb005e929000cd
:104a2c000482e800144278000402fb004822dd00f6
:104a3c0004824200340798003e009000db06070019
:104a4c0000027800044f980074024700840078003c
:104a5c003e009000450607000002780054079800bd
:104a6c005e029000e00f5200710032005e929000e6
:104a7c000402e80014427800544f98005e929000b3
:104a8c000482e80014427800644f98005e92900013
:104a9c006302420014427800744f98005e0290004a
:104aac00e40f52001e00360014c4b300444f9800ab
:104abc005e02900004427800045798005e02900059
:104acc004822de0004427800145798000002eb00e4
:104adc00040f78000002eb00040f78000700370089
:104aec00740247001e02420014427800e55c21006b
:104afc009e824200844a78001e0fe8009e027800d5
:104b0c005e029000848f5200f5ff39000002eb002a
:104b1c0034b688005e029000b4b488003b003700c5
:104b2c000e4a90000402fb006123b900d4ff2f0051
:104b3c00f5ff2f000602420087824a00d6002000b3
:104b4c0007002000860f5200878f5a001b003e0082
:104b5c0004600100130037001800370017003700fd
:104b6c0013003700150037000b0037001300370017
:104b7c001200370011003700100037000f0037000b
:104b8c000e0037000d0037000000370074c4b3006e
:104b9c00444f98000900370034c4b300444f9800c8
:104bac0006003700b4c4b300444f9800030037002c
:104bbc00b4c4b300444f9800000000000002eb00a6
:104bcc00140798000002eb00140798000b00370044
:104bdc001e029000e4024200740347001e02900083
:104bec00040243001442780085024700c44a98002e
:104bfc001e0290000402e800140798009e02900028
:104c0c005e029000848f5200f1ff3900c4692100cc
:104c1c0014427800ec024700844178000041eb001c
:104c2c00850078004e40900066fd070001003700bb
:104c3c00000000000080fa00000006001000fa00de
:104c4c007007980004408000044f78007e029000aa
:104c5c000402e800144278008402fb007e029000fb
:104c6c000482e800144278000402fb004822dd00b4
:104c7c0004824200140798001e0090004b060700a7
:104c8c0000027800444798004e429000e14f4200e9
:104c9c001b003200b4c4b300544798007e0290004d
:104cac000402e80014427800644798007e029000e9
:104cbc000482e80014427800744798007e02900049
:104ccc006302420014427800044f98004e42900058
:104cdc00144f98000042eb00244f9800c469210047
:104cec0014427800e5024700844178000041eb0053
:104cfc00850078001e40780032fd07000100370067
:104d0c00000000000080fa00000006002e00fa00ef
:104d1c006017980004408000044f7800650047003d
:104d2c00070009000058eb006e1290000402e80026
:104d3c00144278008402fb006e1290000482e8009a
:104d4c00144278000402fb004822dd000482420079
:104d5c00140798006d024700840078001e00900034
:104d6c00b805070000027800444798004e429000b6
:104d7c00e04f52003a0032006e1290000402e8003c
:104d8c0014427800644798006e1290000482e80088
:104d9c0014427800744798006e129000630242002f
:104dac0014427800044f98004e429000e44f520099
:104dbc0010003e0045c0b3004e42900004c25200a9
:104dcc00250020000522dd003444b0005447980033
:104ddc005e4a9000144f98006e4a9000244f980041
:104dec007e4a9000344f98000e529000444f980029
:104dfc001200370014c4b300544798004e42900080
:104e0c00144f98000042eb00244f98000042eb0036
:104e1c0004407800cef5b7006d024700840078009e
:104e2c00e05c21001df107000002eb0034b68800a5
:104e3c004e4290000482fb00b4b48800c469210087
:104e4c0014427800e5024700844178000041eb00f1
:104e5c00850078001e407800dafc0700010037005e
:104e6c00000000000080fa00000006000c00fa00b0
:104e7c00500798005e0290000402e800144278008b
:104e8c008402fb005e0290000482e8001442780069
:104e9c000402fb004822dd00048242001407980043
:104eac005e029000144278000402fb006c02620067
:104ebc0042a2de00444798000002eb00040f780089
:104ecc00070037001e02780064024200de029000e8
:104edc000482420014427800544798001e0fe800e8
:104eec004e4290000482fb00640212009e0f52009e
:104efc00f4ff3c004e4290000482fb00640212005e
:104f0c00840247000042eb00d4429800650247003f
:104f1c00840078001e0090000a0607000080fa004a
:104f2c00000006000c00fa000440800024479800a2
:104f3c006402470003000900001aeb0034b680003d
:104f4c00e8024200b4b48000848f52001000360096
:104f5c0014c0b3004447980034b6800084427800f3
:104f6c00b4b480000442780004c25200674242008c
:104f7c00344798004e429000844278003e429000a4
:104f8c000442420004c24200444798000200370029
:104f9c000042eb004447980014002000040f7800f6
:104fac000a00370035b68000e45c21000482420020
:104fbc0014427800640347001e034300044b78003e
:104fcc000502e80034b688001e0fe8001e027800c7
:104fdc00e70f5200f3ff3400c4692100144278003b
:104fec00e4024700844178000041eb008500780022
:104ffc002e40900073fc07000080fa0000000600b1
:10500c001200fa00000f980004408000140798006a
:10501c000002eb00040f78000e0a90001442780096
:10502c000402fb006102620004427800e04f52006f
:10503c002e0032000e0a9000144278000402fb008d
:10504c006e0262000482d100444798000c003700c5
:10505c0035b680001e0278000402e8000e0b9000aa
:10506c000402430014427800e65c210006834200ef
:10507c00044b78000502e80034b688001e0fe800e7
:10508c004e4290000482fb00670212009e0f5200f9
:10509c00efff3c00b5b48000c4b48000050178007b
:1050ac00e15c21000400780056050700c4b48000c0
:1050bc000400780091f107000f00370035b680002e
:1050cc001e0278000402e8000e0b9000040243005c
:1050dc0014427800e65c210006834200044b780001
:1050ec000502e80034b688001e0fe8001e027800a6
:1050fc00e60f5200f1ff3400846921003407980058
:10510c0004c6b300044f98003e029000144278008d
:10511c00144f98003e0290000402e80014427800fc
:10512c00244f9800d4b4800004427800344f980087
:10513c00c469210014427800844278001e02900059
:10514c000442780068034700854178000041eb0079
:10515c0086007800044078001afc07000080fa00f2
:10516c00000006000400fa0000c0200027ed070034
:10517c0000000000841c80004522de0067426200b3
:10518c000482fb00e30f5200faff3400815b200025
:10519c002000200079ec0700a1ff2f003000200038
:1051ac00e8ed070004408000cfa2de00048fbe00b3
:1051bc0004602000050020003e034200ae834a003c
:1051cc00047c20000500200006007800070378000e
:1051dc008403780005027800070060000402630075
:1051ec0005002000c022dd00040020000403be00e6
:1051fc006102b8000403730085837300423add003a
:10520c00ce32de00850272004232dd0004007800ee
:10521c0004602000050020003e034200ae834a00db
:10522c000602be00422bdd00ce23de008703730096
:10523c004223dd0086027800f40f20000482620015
:10524c000402700084027800c4ff21000482620012
:10525c006011b800840078000040eb00b2ec07004d
:10526c006011b800d1ff21000040eb00d9ec070021
:10527c0004602000050020003e034200ae834a007b
:10528c00047c20000500200006007800070378004d
:10529c0084037800050278000700600004026300b4
:1052ac0005002000c022dd00040020000403be0025
:1052bc006102b8000403730085837300423add0079
:1052cc00ce32de00850272004232dd00040078002e
:1052dc0004602000050020003e034200ae834a001b
:1052ec000602be00422bdd00ce23de0087037300d6
:1052fc004223dd0086027800f40f20000482620055
:10530c000402700084027800c4ff21000482620051
:10531c006011b8008400780010c0b30082ec070064
:10532c006011b800d1ff210010c0b300a9ec070038
:10533c0004602000050020003e034200ae834a00ba
:10534c00047c20000500200006007800070378008c
:10535c0084037800050278000700600004026300f3
:10536c0005002000c022dd00040020000403be0064
:10537c006102b8000403730085837300423add00b8
:10538c00ce32de00850272004232dd00040078006d
:10539c0004602000050020003e034200ae834a005a
:1053ac000602be00422bdd00ce23de008703730015
:1053bc004223dd0086027800f40f20000482620094
:1053cc000402700084027800c4ff21000482620091
:1053dc006011b8008400780020c0b30052ec0700c4
:1053ec006011b800d1ff210020c0b30079ec070098
:1053fc00310020000040eb008eec07004100200043
:10540c000040eb0083ec07003100200010c0b3001b
:10541c0088ec07004100200010c0b3007dec0700b1
:10542c003100200020c0b30082ec070041002000b6
:10543c0020c0b30077ec070000802a0073ec070053
:10544c0000000000851c8000040e20000482620015
:10545c00e00f5200fbff3a000080fa00000006004b
:10546c000400fa0000c0200021ed0700000000003d
:10547c00842280004522de00674262000482fb0029
:10548c00e30f5200faff3400815b20002000200063
:10549c0073ec0700a1ff2f00300020003ded07004a
:1054ac0004408000cfa2de00048fbe000460200008
:1054bc00050020003e034200ae834a00047c20001d
:1054cc0005002000060078000703780084037800ac
:1054dc00050278000700600004026300050020004c
:1054ec00c022dd00040020000403be006102b800ed
:1054fc000403730085837300423add00ce32de0074
:10550c00850272004232dd00040078000460200045
:10551c00050020003e034200ae834a000602be0096
:10552c00422bdd00ce23de00870373004223dd0017
:10553c0086027800f40f20000482620004027000de
:10554c0084027800c4ff2100048262006011b8005c
:10555c00840078000040eb00acec07006011b80050
:10556c00d1ff21000040eb00d3ec070004602000c9
:10557c00050020003e034200ae834a00047c20005c
:10558c0005002000060078000703780084037800eb
:10559c00050278000700600004026300050020008b
:1055ac00c022dd00040020000403be006102b8002c
:1055bc000403730085837300423add00ce32de00b3
:1055cc00850272004232dd00040078000460200085
:1055dc00050020003e034200ae834a000602be00d6
:1055ec00422bdd00ce23de00870373004223dd0057
:1055fc0086027800f40f200004826200040270001e
:10560c0084027800c4ff2100048262006011b8009b
:10561c008400780010c0b3007cec07006011b80067
:10562c00d1ff210010c0b300a3ec070004602000e0
:10563c00050020003e034200ae834a00047c20009b
:10564c00050020000600780007037800840378002a
:10565c0005027800070060000402630005002000ca
:10566c00c022dd00040020000403be006102b8006b
:10567c000403730085837300423add00ce32de00f2
:10568c00850272004232dd000400780004602000c4
:10569c00050020003e034200ae834a000602be0015
:1056ac00422bdd00ce23de00870373004223dd0096
:1056bc0086027800f40f200004826200040270005d
:1056cc0084027800c4ff2100048262006011b800db
:1056dc008400780020c0b3004cec07006011b800c7
:1056ec00d1ff210020c0b30073ec07003100200073
:1056fc000040eb0088ec0700410020000040eb006c
:10570c007dec07003100200010c0b30082ec0700d4
:10571c004100200010c0b30077ec070031002000de
:10572c0020c0b3007cec07004100200020c0b30077
:10573c0071ec070000802a006dec070000000000ef
:10574c0085228000040e200004826200e00f5200cb
:10575c00fbff3a000080fa00000006000a00fa0085
:10576c002007980031079800024f98000e4a9000cd
:10577c008482fb00a46b21000482420094427800d6
:10578c00254798000e489000240107000e4a90000f
:10579c008482fb002e4290008483fb002e03900039
:1057ac006a2ab9000402780007024200840242000f
:1057bc006446210004824200060a78000002eb00d5
:1057cc00040f7800110037000e4a90008482fb0011
:1057dc002e4290008483fb001e0278003e03900052
:1057ec0004024300144378006a2ab90004027800ca
:1057fc00070242004322dd009e0242006437210072
:10580c0004824200064a78001e0fe8001e0278004f
:10581c00e70f5200ecff34000080fa000000060095
:10582c000a00fa002007980031079800024f9800f0
:10583c000e4a90008482fb00346c210004824200ea
:10584c0094427800254798000e48900054010700b8
:10585c000e4a90008482fb002e4290008483fb0051
:10586c002e0390006a2ab900040278000702420055
:10587c00840242002459210004824200060a780066
:10588c000002eb00040f7800110037000e4a900064
:10589c008482fb002e4290008483fb001e02780061
:1058ac003e03900004024300144378006a2ab900b6
:1058bc0004027800070242004322dd009e024200ef
:1058cc00244a210004824200064a78001e0fe80098
:1058dc001e027800e70f5200ecff34000080fa0043
:1058ec00000006001000fa000002eb00040f780024
:1058fc00530037001e027800044278000440780000
:10590c000a01070000427800e04f52004a003a00ba
:10591c00000000001e027800044278000440780069
:10592c0099ea070000427800e04f5200f9ff32007c
:10593c00746b21001e024200144278004447980008
:10594c004e4290000403fb001e0278006a22b9004c
:10595c0004027800060242008402420064462100e0
:10596c000482420014027800340798000002eb0015
:10597c0014079800130037004e4290000403fb00fc
:10598c001e0278006a22b900040278000602420066
:10599c00c322dd001e029000848242006437210085
:1059ac000482420014427800680347009e02900073
:1059bc0085024300844a78001e0290000402e8002d
:1059cc00140798001e029000e70f5200eaff340003
:1059dc001e02780004427800e80347003e03900062
:1059ec00057c200085026300452bdd00be02900083
:1059fc004228dd00f50f20008502600005037300ce
:105a0c00c58f2f00050363008442780084c0b30067
:105a1c0087007800825f20000300200006007800d9
:105a2c0079ea07001e0278000442780004407800ee
:105a3c009c00070001003700000000001e0fe8006a
:105a4c00346b2100144278000482fb009e0f52003c
:105a5c00a8ff3c000080fa00000006001000fa00cd
:105a6c000002eb00040f7800530037001e02780090
:105a7c0004427800044078000d01070000427800d1
:105a8c00e04f52004a003a00000000001e0278006d
:105a9c000442780004407800f4ea070000427800e1
:105aac00e04f5200f9ff3200046c21001e0242004c
