:020000040000fa
:080000000001040000000000f3
:020000040000fa
:100008009801000098010000980100009801000084
:100018009801000098010000980100009801000074
:10002800980100009801000098010000e615000002
:1000380098010000980100002017000046170000f2
:100048009801000098010000980100009801000044
:100058009801000098010000980100009801000034
:100068009801000098010000980100009801000024
:1000780098010000a61700009801000098010000f0
:100088009801000098010000980100009801000004
:1000980098010000980100009801000098010000f4
:1000a80098010000980100009801000098010000e4
:1000b80098010000980100009801000098010000d4
:1000c8009801000098010000f61700009801000050
:1000d80098010000980100009801000098010000b4
:1000e80098010000980100009801000098010000a4
:0800f8009801000098010000ce
:020000040000fa
:100108009801000098010000980100009801000083
:100118009801000098010000980100009801000073
:10012800980100009801000098010000e615000001
:1001380098010000980100002017000046170000f1
:100148009801000098010000980100009801000043
:100158009801000098010000980100009801000033
:100168009801000098010000980100009801000023
:1001780098010000a61700009801000098010000ef
:100188009801000098010000980100009801000003
:1001980098010000980100009801000098010000f3
:1001a80098010000980100009801000098010000e3
:1001b80098010000980100009801000098010000d3
:1001c8009801000098010000f6170000980100004f
:1001d80098010000980100009801000098010000b3
:1001e80098010000980100009801000098010000a3
:0801f8009801000098010000cd
:020000040000fa
:10020000ef8020000e7f22000e0188000000000019
:1002100000012000200288000c000700e0302200ce
:100220000100200011000700000020000000e00095
:10023000020032000000020000000000c8150200a9
:10024000000000000040da000000fe004440a90069
:10025000c00020000000e000030032000000200089
:10026000a00188004440a800000006009101880019
:10027000800078000000eb0015003700e2804000ad
:1002800032a0b4009101ba00e280400032a0b40074
:100290009102ba00e280400032a0b4000002eb00fc
:1002a000472bde00f507b200602ce10004003a00a5
:1002b0000059eb008301e900fdff3e000400370018
:1002c0006128e100010032000082eb000400070019
:1002d0001101ba000200e000e8ff3a000000060049
:1002e0003159ba008301e9000c0032002159ba00eb
:1002f0008301e900080032000400e00003003a0036
:10030000e280400032a0b400f5ff370011d9ba00f6
:100310008301e900faff3a008100e800e180400033
:1003200032a0b400000006004211040000000000ea
:100330000040da000000fe00901c8800a11c88002c
:1003400000000600401bde0007002000e1cf520045
:1003500008003200e2cf52000a003200001b880081
:10036000161b8800221b88000003eb008483fb001f
:1003700012003700801a8800961a8800a21a880096
:10038000f9ff3700001a8800161a8800221a880020
:10039000f5ff370060352000e1cf52000400320045
:1003a00060362000e2cf520001003a0060342000a5
:1003b00011707b000603e8008100e800870f5300fe
:1003c000f4ff35006f426200e1cf52000a003200b4
:1003d000e2cf520011003200e0cf520018003a0084
:1003e0006f0262004322dd0075f82f00261b80009b
:1003f00086826200170037006f0262004322dd0030
:1004000075f82f00a21a80008282620004827200b6
:10041000a41a88005e63a800000006006f02620054
:100420004322dd0075f82f00261a800086826200c4
:1004300004827200241a88004e63a800000006009f
:100440006f0262004322dd0075f82f00221b80003e
:100450008282620004827200241b88006e63a800fe
:1004600000000600801c880000000600e04f5000dd
:1004700004003200e14f500002003a00f11b8800f6
:1004800000000600711c880000000600e14f5000cb
:1004900003003200e24f500005003a00020037002e
:1004a000f11a880000000600711a8800000006009a
:1004b000711b88000000060040118800311188007f
:1004c000000006000001eb005700070004003200a6
:1004d0000200200003f8230001f0a60066010700d7
:1004e00000000600889fbe008a9fbe008c1f780017
:1004f000f2000700f900330003866c006450e1004d
:100500002e0032006420e100330032006150e1002f
:100510002f0032006120e100310032008585550056
:10052000eb07b00009002000080420000500370098
:100530000804440089844c000a003100060343008b
:1005400087834b000001530081815b00f8ff33007b
:100550000203be000800a0000804440089844c0087
:10056000f6ff3900c639dd00830173000100320057
:10057000130020008904d1000884d3000998a30047
:10058000050032000800a7000300a0008904d10084
:100590000884d3008b05e8008904d1000884d300c7
:1005a0000001eb000281d2008900070001f0a100e8
:1005b0000cf0a70001f0a000d10037006420e1009a
:1005c000d30032000801be000200be00f7ff370072
:1005d0006120e100ce0032006000b800f3ff370078
:1005e0000000200001f82700f0ff3700839f68001b
:1005f0000100e00002003d0060001000e0801800f3
:100600000300e00002003d0060011100e0811900dc
:10061000050107004f00e00002003b0060001000f1
:10062000e080180000000600889fbe008a9fbe0080
:100630000003be008c00070085057800828152000f
:10064000020020006220e10004003a00f307b1003c
:10065000040035007718e100040035000600be00f4
:10066000140037006000b8000f003700f50f2000bd
:10067000faff2f008502d1000a85d3008301e9002b
:10068000fcff3b008184620000046500890f740058
:10069000f2ff32008582ea000a85ea008184620066
:1006a000000465004a00070007f0a70001f0a00061
:1006b0000081eb000200e0004f05be004f04be00c9
:1006c0000000060014002000480137000001be00b1
:1006d000650007000470a70003f0a1006509b100e0
:1006e000160032000d0035006828e10006003500d4
:1006f000f0ff2f00f1ff27000300e00013003b0094
:100700000100280000000500000040008180480032
:100710008502e900fcff3a0008003700f88f42002c
:1007200002003c008000eb00000005008100d100c9
:100730000080d3008502e800fcff3a000300e000df
:1007400002003b0060001000e0801800000006007e
:100750000001be00440007000470a70003f0a100e0
:1007600003f8a30013003a006509b100100032003d
:10077000090035006928e100020035000100280069
:100780000000050000004000818048008502e9006b
:10079000fcff3a0000000600f88f4200050035001b
:1007a0008100d1000080d3008502e800fcff3a0000
:1007b000000006008000eb00000005004f89de000d
:1007c00082017800240137006011b800320137003f
:1007d00081002000618055000b003d000b002000cf
:1007e00061fe2f000100e1001d00340082817100d4
:1007f000610164008904d1000884d3000000e8008e
:10080000faff3a00710020006100640003007000ec
:10081000020060000900320061044400e0844c00e2
:100820000988a500050032008b05e8006808e10092
:1008300002003a008904d1000884d300f20f20009e
:100840000258e10005003d00c75ddd00f907b20078
:100850008980750008007800000006000bf827006a
:100860008b00780000000500c70ade00f107b20027
:10087000f50fb20008003200e1cf42000200320062
:100880000170a00024000500810f700001003200fb
:100890000408050044000500810f700002003a00c2
:1008a000140005008502e9000000400081c04800f6
:1008b000fcff3b000170a000240005000004be0006
:1008c000e9ff07000003be000405be000200be00f1
:1008d000e5ff0700844f7500000006000200be001f
:1008e0006450e100050036006420e100020036009b
:1008f0000968a30001003a000800be000160a000e2
:100900004f0678004f05be004f04be0000000600f1
:10091000f0ff2f00f1ff2700f9ff3700811f78005b
:100920000100e00002003d0060001000e0801800bf
:100930000300e00002003d0060011100e0811900a9
:10094000490007004f00e00002003b00600010007b
:10095000e080180000000600889fbe008a9fbe004d
:100960008c1f7800d5ff0700dcff330003866c0086
:100970006450e100240032006420e10027003200ce
:100980006150e100220032006120e10021003200cc
:100990008b854200eb07b1000134b800003ab80083
:1009a0000804420089844a00013ab8000030b800c7
:1009b0008880400009014a00040033000000400024
:1009c00081804800020149008b05e900c909dd006a
:1009d000830170000100320013002000c814de0003
:1009e0004814dd004709de001200b200c808de002e
:1009f0000884700076ff070001f0a1000cf0a7004a
:100a000001f0a000beff37006120e100c0ff32000e
:100a10000801be000200be00f7ff37006150e10090
:100a2000fcff3a00baff37006022b800060220003f
:100a30000000d0008180d2000482d2008582d200e2
:100a40000000a0000202520083825a00030031001d
:100a50000202420083824a000000a1000603e9006e
:100a6000f3ff3a0000000600efff07000400be009d
:100a70000000060003f0a200889fbe008a9fbe000f
:100a80008c1f78008dff070094ff33006450e10055
:100a90004f0032006420e1005200320003826c00fb
:100aa00007003b000905d0000306d000820f540068
:100ab0000c065d0002003900020032008901780056
:100ac000030678008582550004003d000003fd0008
:100ad0008103fd008502ea008b854200840f7200cd
:100ae00002003b0060001000e08018006011b800b8
:100af0000005eb007a28e1000a00390006007800c2
:100b0000c75ddd00f707b200878075002d00370054
:100b1000828171000a017800610560008180d10046
:100b20000080d3008502e900f9ff3b000604400085
:100b30008784480002003b0060041400e0841c002d
:100b40000988a300070032008a8171008281710048
:100b5000610164008904d1000884d3008b05e8009a
:100b6000170037000978a30013003a000b00e000db
:100b7000130034008b05e9000804440089844c000c
:100b80000a4474000978a3000d003a000b00e0004d
:100b9000070034008b05e9000804440089844c00f8
:100ba00001003a000b0020000978a300f7ff320093
:100bb0000001eb0002003700828171000a01780019
:100bc00003ff07000cf0a70001f0a0004cff370066
:100bd0006420e10002003a00838f6c004cff330078
:100be0000801be000200be0045ff3700889fbe001e
:100bf0008a9fbe00841f780030ff07004f007800f6
:100c000011003300f0ff2f00838f6c0006003b00c3
:100c1000040565000a00a7000800370009f0a600d7
:100c20001000200008003700820f5400838f5c0002
:100c3000030039001000200001003e0000002000e9
:100c400009f0a7000000ea004f05be004f04be00f7
:100c50000000e00000000600881f78000304780010
:100c60000300e00007003d0060001000e080180075
:100c700060011900e081190002003b0001f02d0025
:100c8000030037000400070008f0a70001f0a000ef
:100c90004f04780000000600889fbe008a9fbe00b7
:100ca000008270000402710004827100260032008c
:100cb0000004be000200be006011b8006b092000f5
:100cc000950220000182cf000a0039000541b100e1
:100cd0000082cf00070039000541b1000982cf0032
:100ce000040039000541b1000882cf00010039003d
:100cf0000541b10005425200120032000a003b00db
:100d000082817100610164008100d1000080d30004
:100d10008984d3000884d3008b05e8000442e800ee
:100d2000f7ff3a00070037000804440089844c00ac
:100d300000004800818048008b05e9000442e9007a
:100d4000f9ff3a00a2fe07004f05be004f04be00a7
:100d5000000006000002780002003700315a7800d7
:100d60000201e900e00f5100fcff3a00000006001c
:100d70000002780084027800050278000043eb004e
:100d8000b44f1300fbff3a0031427800845a7800d8
:100d9000e04f5200fcff3a0000000600000278001d
:100da0008042eb00b4cf1200fdff3a000080ea0061
:080db0000000420000000600f3
:020000040000fa
:100db8002e000000200000003a00000073740000bc
:080dc8006172000074000000dc
:020000040000fa
:100dd0000000fa00043a80000480a1000490a00002
:100de00004a0a00004b0a000043a88009140a9002b
:100df0004187a80000000000053a8000040022009e
:100e000004826200e00f5200fbff32008940a9001b
:100e1000440580000480a1000490a00004a0a0006c
:100e2000440588009140a8000080fa0000000600f8
:100e30000800fa0020079800310798006022b800e7
:100e4000048fbe006022b800048fbe00040037008b
:100e500014002000050020001e0f42005e974a008b
:100e60002e029000be0290001e03be00840f5300ad
:100e7000858f5b00f6ff35000080fa000000060059
:100e80000e00fa004007980051079800620798008a
:100e90006e029000eb0242000042eb00844a7800b0
:100ea0000042eb00044f7800a400200014079800d3
:100eb0004e029000de029000e00f5200e08f5a00d8
:100ec00008003a001e029000ee0290008482420068
:100ed00004c3b300844a78001e0290000402e900b3
:100ee000140798004e029000de029000e00f5200be
:100ef000e08f5a0029003d004e029000de02900073
:100f000060021200e0821a0044079800550798001a
:100f100000c2eb00044f7800200037004e02900022
:100f2000de02900024079800350798002e029000fa
:100f3000be029000a2002000030020000400be00ba
:100f400076fe07000002be002407980035079800cf
:100f50001e029000ee029000848242002e02900059
:100f6000044278000443b000844a78001e029000d6
:100f70000402e900140798004e029000de0290007f
:100f8000a2002000030020000400be0097fd07001f
:100f90000002be0044079800550798004e029000da
:100fa000de029000e00f5200e08f5a00dbff3c00b1
:100fb0001e427800e14f420008003a001e029000f5
:100fc000ee02900084824200d4c2b300844a7800ca
:100fd0001e0290000402e900140798001e0290000f
:100fe0000402e800040078000080fa000000060017
:100ff0000800fa00100798002107980032079800af
:101000000e8fe8001e02780014427800be029000a5
:10101000844a78003e0290008402e8001e02e80044
:1010200014427800844a78003e0290008482e800ee
:101030001e82e80014427800844a78003e02900044
:10104000e30242001e03780063024300144278006a
:10105000844a78000080fa00000006000200fa00ce
:10106000d222a900d242a9003516800004f02f0038
:101070000482720034168800d642a900d622a90044
:10108000900120000100200069ff07004416800045
:10109000040f7800d622a80035168000f40f200037
:1010a00004826200341688001e027800441688000c
:1010b000d642a80090012000010020005cff07003c
:1010c0001e02780048a2de000442780004c2ea0052
:1010d000044078000080fa00000006000600fa00d4
:1010e00010079800414798001e029000e802420055
:1010f0000042eb00844a78000002eb00040f780005
:10110000140037001e0278009e0290008482420084
:101110004e42900061426200844a78001e027800cc
:101120009e029000848242001e0278001e039000fe
:1011300004024300144278000443b000844a78005b
:101140004e4290000402fb000482d1004447980004
:101150001e0fe8001e027800e70f5200e9ff34007e
:101160000080fa00000006000000fa000002eb0018
:10117000f41688001602a900b41080000410a10023
:101180000420a100b410880016a2a900b409200010
:10119000f410880017e2a8001942a8000080fa00a5
:1011a000000006000000fa00350480000420200042
:1011b00004826200e00f520002003a0014c0b30043
:1011c000020037008720a9000042eb0004407800ad
:1011d0000080fa00000006000200fa00004f7800cc
:1011e0009e4278000582fb00d410880000000000b9
:1011f000ecff070000427800e04f5200fcff3a008d
:101200000080fa00000006000200fa00000f7800db
:10121000050037001e027800144278001e0fe80017
:1012200004407800ecff07001e02780014427800aa
:10123000e04f5200f7ff3a000080fa00000006007d
:101240000600fa0010079800210798000002eb0042
:10125000040f78000002eb00040f7800080037004c
:101260001e029000144278009e0290008502e80061
:101270001507980004407800d7ff07001e0fe8000c
:101280002e0290009e027800848f5200f4ff3500f9
:101290000080fa00000006000000fa000002eb00e7
:1012a00024088800240880000440a0000450a00006
:1012b000240888000453270014088800a404800030
:1012c00004c0a10004d0a00004e0a100a404880090
:1012d0008460a9008c60a80005e1a8000080fa00e5
:1012e000000006000000fa000002eb0084088800fd
:1012f000840880000440a1000450a10084088800f4
:101300004406200064088800b40480000480a00023
:101310000490a10004a0a000b404880084c0a90027
:101320008cc0a80011e1a8000080fa0000000600af
:101330000000fa000002eb00940888009408800086
:101340000440a0000450a00094088800047122000a
:1013500074088800b404800004c0a10004d0a10077
:1013600004e0a000b404880084e0a9008ce0a80098
:1013700013e1a8000080fa00000006000000fa0057
:101380000002eb00f4088800f40880000440a0008c
:101390000450a000f4088800843e2000d40888008f
:1013a000f40480000440a0000450a0000460a100e8
:1013b000f404880086a0a9008ea0a8001fe1a80060
:1013c0000080fa00000006000200fa00c602a80031
:1013d0000042eb00044f780044168000044278007d
:1013e00061426200844278001e42780004c24200da
:1013f000044f780010002000010020008cfe070040
:101400004416800004427800614262008442780001
:101410001e42780004c24200044f780010002000f1
:101420000100200082fe070044168000044278007c
:1014300061426200844278001e42780004c2420089
:10144000044f7800100020000100200078fe070003
:101450001e427800e14f52000200340014c0b30075
:10146000010037000042eb00044078000080fa00e1
:10147000000006000200fa00c622a8000042eb00ad
:10148000044f7800441680000402d10061426200db
:10149000844278001e42780004c24200044f780063
:1014a000100020000100200061fe070044168000ab
:1014b0000402d10061426200844278001e4278003a
:1014c00004c24200044f78001000200001002000f8
:1014d00057fe0700441680000402d10061426200fa
:1014e000844278001e42780004c24200044f780013
:1014f00010002000010020004dfe07001e42780071
:10150000e14f52000200340014c0b3000100370064
:101510000042eb00044078000080fa000000060062
:101520000200fa00c602a800c622a80044168000e5
:1015300004427800634f6200448020001442780027
:101540000402fb00cfa2de003600200007002000ce
:10155000860f5200878f5a0058003e000460010039
:101560001600370028003700010037003900370027
:101570001e427800e34f520006003a00044080000b
:101580001540800061025200e0825a000440880049
:10159000154088001e427800e04f520040003a009b
:1015a000044080001540800061024200e0824a0051
:1015b0000440880015408800400037001e42780033
:1015c000e24f520006003a000440800015408000bf
:1015d00061025200e0825a000440880015408800f1
:1015e0001e427800e14f52002f003a000440800074
:1015f0001540800061024200e0824a0004408800f9
:10160000154088002d0037001e427800e04f520040
:1016100006003a000440800015408000610252003c
:10162000e0825a0004408800154088001e4278007d
:10163000e34f52001e003a00044080001540800035
:1016400061024200e0824a000440880015408800a0
:101650001a0037001e427800e14f520006003a009f
:10166000044080001540800061025200e0825a0070
:1016700004408800154088001e427800e24f520066
:101680000d003a00044080001540800061024200d5
:10169000e0824a00044088001540880007003700b7
:1016a00000000000050037000000000003003700c4
:1016b0000000000001003700000000001e4078001c
:1016c00004e8b7000080fa00000006000000fa00fd
:1016d00004408000154080000403780044408000ee
:1016e00055408000040278000402530064408800e2
:1016f0000440800015408000444088005540880028
:101700000080fa00000006000c00fa005007980064
:1017100004408000154080004e2bdd004222de0098
:1017200004027300c2aade00048fbe001e00be00c9
:1017300022fc07000002be000200200003f023008c
:101740000400be0084fc07000002be000400be00ce
:10175000defb07000002be00240798003507980052
:101760005e0190002e009000be009000c4fd0700b6
:1017700000027800044f98000e4a90000440780060
:101780000080fa00000006000800fa000440800013
:10179000154080004e2bdd004222de000402730063
:1017a000c2aade00048fbe001e00be0003fc0700bc
:1017b0000002be000200200003f023000400be006f
:1017c00065fc07000002be000400be00bffb07006e
:1017d0000002be0024079800350798002e029000f2
:1017e000be0290000400be000080fa000000060067
:1017f0000200fa006440800042a2de00040f78007c
:101800001e027800cfa2de000400be00ebfb070042
:101810000002be000200200003f023000400be000e
:101820004dfc07000002be000400be00a7fb07003d
:101830000002be00040f780064408000cfa2de00ea
:101840000400be00ddfb07000002be00325c2f007a
:1018500083f823000400be0022fb07000002be0044
:101860000400be0099fb07000002be0004027800dd
:10187000040078000080fa00000006000000fa0072
:10188000e442a900e462a900dec2a9009516800026
:10189000f40f20000482620094168800e842a90038
:1018a000e862a900d762a800d742a900d722a90000
:1018b000d702a900e2c2a9004006200001002000d2
:1018c0005bfd0700d762a900400620000100200050
:1018d00057fd0700d762a800d742a900d722a90068
:1018e000d702a900e2c2a8004006200001002000a3
:1018f0004ffd0700d762a9000071220001002000ff
:101900004bfd07000080fa00000006000200fa000c
:10191000004f7800e442a900e462a900dec2a900f9
:1019200095168000f40f200004826200941688004f
:10193000e842a900e862a900d762a8009e02fb0065
:10194000040820008482620014c0b300e08f5200bb
:1019500001003c000042eb000482fb0061026200d7
:101960004a22dd00b6168000f5bf2f008502630015
:1019700004827200b41688009e02fb00040420005a
:101980008482620014c0b300e08f520001003c006a
:101990000042eb000482fb00610262004922dd008c
:1019a000b6168000f5df2f00850263000482720006
:1019b000b41688009e02fb000402200084826200ac
:1019c00014c0b300e08f520001003c000042eb0065
:1019d0000482fb00610262004822dd00b61680002e
:1019e000f5ef2f008502630004827200b4168800b0
:1019f0001e02fb00f002620014c0b300e08f520030
:101a000001003c000042eb000482fb006102620026
:101a10004622dd0016178000f5fb2f0085026300cb
:101a20000482720014178800400620000100200084
:101a3000fffc0700d762a90040062000010020003b
:101a4000fbfc0700d762a8001e02fb004422dd0059
:101a5000044f78009e02fb0004082000848262008c
:101a600014c0b300e08f520001003c000042eb00c4
:101a70000482fb00610262004a22dd00b61680008b
:101a8000f5bf2f008502630004827200b41688003f
:101a90009e02fb00040420008482620014c0b30094
:101aa000e08f520001003c000042eb000482fb008a
:101ab000610262004922dd00b6168000f5df2f00ca
:101ac0008502630004827200b41688009e02fb0047
:101ad000040220008482620014c0b300e08f520030
:101ae00001003c000042eb000482fb006102620046
:101af0004822dd00b6168000f5ef2f008502630056
:101b000004827200b41688001e02fb00f00262001c
:101b100014c0b300e08f520001003c000042eb0013
:101b20000482fb00610262004622dd00161780007d
:101b3000f5fb2f00850263000482720014178800f1
:101b40004006200001002000b9fc0700d762a90070
:101b50004006200001002000b5fc07000080fa00cc
:101b6000000006000000fa00e442a900e462a900b7
:101b7000dec2a90095168000f40f200004826200e6
:101b800094168800e842a900e862a900d762a8007c
:101b9000d742a900d722a900d702a800e2c2a90013
:101ba0004006200001002000a1fc0700d762a90028
:101bb00040062000010020009dfc0700d762a8001d
:101bc000d742a900d722a900d702a800e2c2a900e3
:101bd000400620000100200095fc0700d762a90004
:101be000400620000100200091fc0700d762a800f9
:101bf000d742a800d722a800d702a800e2c2a800b6
:101c0000400620000100200089fc0700d762a900df
:101c1000400620000100200085fc0700e842a900e2
:101c2000e862a900d762a800d742a900d722a9007c
:101c3000d702a900e2c2a90040062000010020004e
:101c40007bfc0700d762a9004006200001002000ad
:101c500077fc0700d762a800d742a800d722a800c7
:101c6000d702a900e2c2a90040062000010020001e
:101c70006ffc0700d762a900400620000100200089
:101c80006bfc0700fdfe0700e842a900e862a9001e
:101c9000d762a800d742a900d722a900d702a9007d
:101ca000e2c2a900400620000100200060fc0700fd
:101cb000d762a90040062000010020005cfc07005c
:101cc000d762a800d742a900d722a800d702a8004f
:101cd000e2c2a900400620000100200054fc0700d9
:101ce000d762a900400620000100200050fc070038
:101cf00000c8b30005ff070080bb200001002000e2
:101d00004bfc07000080fa00000006000800fa0003
:101d1000881f7800300798000002eb002407980025
:101d200014002000040f780000c8b300f7fe07007d
:101d30002e0290000402e80014079800ca00370041
:101d4000e842a800e862a900d762a8001e0290003d
:101d50000402e900be0290000482420014427800ae
:101d60008402fb00040820008482620014c0b300d7
:101d7000e08f520001003c000042eb000482fb00b7
:101d8000610262004a22dd00b6168000f5bf2f0016
:101d90008502630004827200b41688001e0290005f
:101da0000402e900be02900004824200144278005e
:101db0008402fb00040420008482620014c0b3008b
:101dc000e08f520001003c000042eb000482fb0067
:101dd000610262004922dd00b6168000f5df2f00a7
:101de0008502630004827200b41688001e0290000f
:101df0000402e900be02900004824200144278000e
:101e00008402fb00040220008482620014c0b3003c
:101e1000e08f520001003c000042eb000482fb0016
:101e2000610262004822dd00b6168000f5ef2f0047
:101e30008502630004827200b41688001e029000be
:101e40000402e900be0290000482420014427800bd
:101e50000402fb00f002620014c0b300e08f5200e5
:101e600001003c000042eb000482fb0061026200c2
:101e70004622dd0016178000f5fb2f008502630067
:101e80000482720014178800e00120000100200085
:101e9000e7fb0700d762a900e00120000100200055
:101ea000e3fb0700d762a8001e0290000402e900cd
:101eb000be02900004824200144278000402fb003b
:101ec000e802620014c0b300e08f520001003c0041
:101ed0000042eb000482fb00610262004a22dd0046
:101ee000b6168000f5bf2f008502630004827200e1
:101ef000b41688001e0290000402e900be029000a1
:101f000004824200144278000402fb00e4026200f2
:101f100014c0b300e08f520001003c000042eb000f
:101f20000482fb00610262004922dd00b6168000d7
:101f3000f5df2f008502630004827200b41688006a
:101f40001e0290000402e900be02900004824200da
:101f5000144278000402fb00e202620014c0b300e5
:101f6000e08f520001003c000042eb000482fb00c5
:101f7000610262004822dd00b6168000f5ef2f00f6
:101f80008502630004827200b41688001e0290006d
:101f90000402e900be02900004824200144278006c
:101fa0000402fb00e102620014c0b300e08f5200a3
:101fb00001003c000042eb000482fb006102620071
:101fc0004622dd0016178000f5fb2f008502630016
:101fd0000482720014178800e00120000100200034
:101fe00093fb0700d762a900e00120000100200058
:101ff0008ffb07001e0290006f026200e00f52008c
:1020000016003a001e027800e20f5200090032006a
:10201000e30f52000c003200e10f52000f003a00b3
:1020200000ccb30039fe070024002000040f780024
:102030000a00370000c9b30034fe07003400200056
:10204000040f78000500370000cdb3002ffe070015
:1020500044002000040f7800000000001e029000e1
:102060000402e800140798001e0490003e0090004f
:102070004afb070000027800840278002e029000dc
:10208000048242000402e800840f54002cff39004f
:102090004f0478000080fa00000006000400fa00f7
:1020a0000002eb00040f78000002eb001407980018
:1020b000e4c2a900e4e2a900e502a800007d200036
:1020c000010020005afb0700c4032900040f780018
:1020d000f4fb2d00140798009e0090001e0078006d
:1020e000f5f807000080fa00000006000200fa0080
:1020f000000f78008740a9004511800004402000af
:1021000004826200e00f5200030032001e027800d9
:102110005411880004003700f40f20001e026200f2
:102120005411880000000000341180006202620037
:10213000e00f5200fcff3a00000000003504800070
:102140000440200004826200e00f5200fbff3200d6
:1021500054118000040f78000080fa00000006008f
:102160000000fa0026c2a9000002eb00541188000a
:10217000000000003411800061026200e00f520094
:10218000fcff32003411800061026200e00f520057
:102190000c00320026c2a900451180000440200036
:1021a00004826200e00f52000300320054118000ec
:1021b0000442780004003700541180000442780083
:1021c0000100370000c2eb00044078000080fa00f4
:1021d000000006000000fa0024142100010820007d
:1021e000f008200004000100241421003100200028
:1021f00030082000040001002414210031012000d7
:1022000040082000040001002414210011012000d6
:102210005008200004000100241421003101200096
:102220006008200004000100241421003101200076
:102230002008200004000100241421008104200053
:102240001008200004000100241421008000eb008d
:102250000008200004000100241421008000eb008d
:10226000f0082000040001000080fa0000000600d1
:102270000000fa00e5a2a90088ff07000080fa002c
:10228000000006000200fa00004f78001147980095
:10229000e5a2a900e9a2a8009e4278000582fb0001
:1022a0000400780091ff07001e4290000482fb00aa
:1022b000040078008dff0700e5a2a900e9a2a900ab
:1022c0000080fa00000006000400fa002047980091
:1022d000e5a2a900e9a2a8002e4290000482fb001a
:1022e0000400780081ff07009dff0700004278008e
:1022f000044f7800e5a2a900e9a2a9001e427800d7
:10230000044078000080fa00000006000200fa0095
:102310000040eb00ecff070000427800044f78001b
:102320001e4278008482fb00f407200004826200d1
:1023300044a2de00144798001e4290006a22b900b1
:1023400004027800144798009e4278006fc2620031
:102350009e42900004c24200144798001e42900022
:10236000044078000080fa00000006000200fa0035
:1023700010c0b300d4ff070000427800044f78007b
:102380001e4278008482fb00f40720000482620071
:1023900044a2de00144798001e4290006a22b90051
:1023a00004027800144798009e4278006fc26200d1
:1023b0009e42900004c24200144798001e429000c2
:1023c000044078000080fa00000006000200fa00d5
:1023d00020c0b300bcff070000427800044f780023
:1023e0001e4278008482fb00f40320000482620015
:1023f00044a2de00144798001e4290006a22b900f1
:1024000004027800144798009e4278006fc2620070
:102410009e42900004c24200144798001e42900061
:10242000044078000080fa00000006000200fa0074
:1024300030c0b300a4ff070000427800044f7800ca
:102440001e427800044078000080fa000000060078
:102450000200fa0040c0b3009bff07000042780072
:10246000044f78001e4278008482fb00f4072000ad
:102470000482620044a2de00144798001e429000cd
:102480006a22b90004027800144798009e4278003e
:102490006fc262009e42900004c24200144798003e
:1024a0001e429000044078000080fa000000060000
:1024b0000200fa0050c0b30083ff0700004278001a
:1024c000044f78001e4278008482fb00f40720004d
:1024d0000482620044a2de00144798001e4290006d
:1024e0006a22b90004027800144798009e427800de
:1024f0006fc262009e42900004c2420014479800de
:102500001e429000044078000080fa00000006009f
:102510000200fa0060c0b3006bff070000427800c1
:10252000044f78009e4278000582fb004422de00c2
:10253000144798001e4290006a22b90004027800f5
:10254000144798009e4278006fc262009e4290003d
:1025500004c24200144798001e42900004407800d4
:102560000080fa00000006005e00fa00602f98006c
:102570006a02470022000900001aeb00d4f426008a
:10258000e546260054079800650798001496270032
:102590000500200074079800050f98000002eb006a
:1025a000140f98004455270055362700240f980033
:1025b000350f98004416260095072000440f980018
:1025c000550f98000002eb00640f98007e02470050
:1025d0007655260047e62600068abe0064024200c1
:1025e0005636270047162600068abe0064024200bf
:1025f00095072000050a78000482e8008402200084
:102600000e0242004685260057272700068abe0094
:10261000640242003647260017962700068abe004d
:10262000640242008002eb00050a78000482e800a0
:102630006424270095462600141f9800251f980043
:102640001496270005002000341f9800451f9800ad
:102650000002eb00541f9800c40320000e02420049
:102660003615260047572700068abe00640242003e
:102670002647260017962700068abe0064024200fd
:102680008002eb00050a78000482e8003455270038
:10269000e546260034279800452798001496270021
:1026a0000500200054279800652798000002eb00e1
:1026b0007427980015ff070000427800044f780047
:1026c0002aff070000427800144798003fff0700e8
:1026d00000427800244798008dff070000427800f0
:1026e0000482fb002407980071ff07000042780075
:1026f0006447980056ff070000427800744798002e
:102700004aff070000427800044f9800ae02900094
:10271000047d200004824200cfa2de0006052000d6
:102720000e034300060178000400be00d4f9070040
:1027300000027800144f98001e4a90000402fb002b
:10274000050520008e824200048242008400780049
:102750006e28900086f907006e2890008ff9070018
:1027600000027800ee2a900004824200220020003d
:10277000c16d28000400780076f907006e429000d1
:102780000402fb00cfa2de00060520000e0343007a
:10279000060178000400be00b9f9070000027800c5
:1027a000144f98001e4a90000402fb00050520000b
:1027b0008e82420004824200840078006e289000dd
:1027c0006bf907006e28900074f90700000278008a
:1027d000ee2a90000482420022002000c16d2800f1
:1027e000040078005bf907007e4290000402fb00c1
:1027f000cfa2de00060520000e034300060178008c
:102800000400be009ef9070000027800144f9800f3
:102810001e4a90000402fb00050520008e82420043
:1028200004824200840078006e28900050f907006e
:102830006e28900059f9070000027800ee2a9000f7
:102840000482420022002000e16d2800040078008c
:1028500040f907002e4290000402fb00cfa2de00e8
:10286000060520000e034300060178000400be00a8
:1028700083f9070000027800144f98001e4a900068
:102880000402fb00050520008e8242000482420003
:10289000840078006e28900035f907006e289000bb
:1028a0003ef9070000027800ee2a90000482420000
:1028b00022002000016e28000400780025f907009e
:1028c0001e4290000402fb00cfa2de00060520009d
:1028d0000e034300060178000400be0068f90700fb
:1028e00000027800144f98001e4a90000402fb007a
:1028f000050520008e824200048242008400780098
:102900006e2890001af907006e28900023f907003e
:1029100000027800ee2a900004824200220020008b
:10292000016e2800040078000af907001e427800b2
:102930000402fb00cfa2de00060520000e034300c8
:10294000060178000400be004df90700000278007f
:10295000144f98001e4a90000402fb000505200059
:102960008e82420004824200840078006e2890002b
:10297000fff807006e28900008f9070000027800b1
:10298000ee2a90000482420022002000e16d28001f
:1029900004007800eff807006a0347000e4a900031
:1029a0000402fb000402e9006a22b9000402780074
:1029b00004024300840078006e289000ecf80700c1
:1029c0000080fa00000006000000fa00e582a9007d
:1029d000b2fd07000080fa00000006000000fa00c7
:1029e000e582a900e982a90060002000bffd070080
:1029f000e582a900e982a8000080fa000000060034
:102a00000800fa0010079800210798003207980084
:102a1000f2ff0700e582a900e982a900200020005a
:102a2000b2fd07001e0290004822de00040078007c
:102a3000aefd07009e029000f40f200004826200a9
:102a400004007800a9fd07000002eb00040f7800e5
:102a5000090037002e029000144278000402fb00a7
:102a6000ae0290008502e800250798000400780077
:102a70009efd07001e0fe8003e0290009e027800b7
:102a8000848f5200f3ff3500e582a900e982a80097
:102a90000080fa00000006000800fa001007980005
:102aa0002107980032079800e582a900e982a90071
:102ab000300020008dfd07001e0290004822de003d
:102ac0000400780089fd07009e029000f40f2000aa
:102ad000048262000400780084fd07000002eb001d
:102ae000040f7800080037009dfd070000427800c1
:102af000ae029000844a78002e0290000402e800a2
:102b0000240798001e0fe8003e0290009e02780005
:102b1000848f5200f4ff3500e582a900e982a80005
:102b20000080fa00000006000200fa00e582a90019
:102b3000e982a900500020006cfd070088fd070015
:102b400000427800044f7800e582a900e982a800dd
:102b50001e427800044078000080fa000000060061
:102b60000600fa000e82e80042002000840078008f
:102b70000000eb00c8ff07000e8fe8001e0278007f
:102b80001402be000400be000080fa00000006002f
:102b90000400fa00000f7800110798000082eb0093
:102ba00044158800effb0700b1fd0700baf90700e4
:102bb000ccf90700def90700f0f90700206e2800c5
:102bc00052fc070053060700ffff37003600f800ed
:102bd000809fbe00829fbe00849fbe00869fbe0075
:102be0003400f80000002000a00188005400fa0022
:102bf0008460a900cda2a900841680004d22de00c9
:102c00006142620015c0b30004c25200614262001a
:102c10000482fb00610262004d22dd008616800006
:102c2000f5ff2d008502630004827200841688007f
:102c30000af9070000427800044f78006022b800cb
:102c40001407980025079800660247001b0009003a
:102c5000001aeb000e82e8000400780042fe070034
:102c60000a0037000e82e800040078004bf80700e5
:102c7000000278008e82e8000482420022002000d8
:102c8000e16d28000400780032f807000e82e800a9
:102c90000400780041f8070000027800ff0f52009e
:102ca000f0ff3600e40320000e024200040078002a
:102cb00095fa070000427800144798001e429000e1
:102cc0000402fb00e50320008e8242008482420061
:102cd0000e82e800850078000400780024f80700e0
:102ce0000e82e800040078002cf80700000278004b
:102cf0008e82e8000482420022002000e16d28005c
:102d00000400780013f80700548020001442780073
:102d10000402fb00cfa2de00e60320000e03430006
:102d2000060178000400be0055f807000002780094
:102d3000144798001e4290000402fb00e5032000a7
:102d40008e824200848242000e82e8008500780074
:102d50000400780006f807000a0037000e82e80039
:102d6000040078000df80700000278008e82e80069
:102d70000482420022002000e16d28000400780057
:102d8000f4f707000e82e8000400780003f807005b
:102d900000027800f5022000850f5200efff360098
:102da000a40420000e0242009e4078000400780037
:102db000caf80700a50420008e8242000e82e800b7
:102dc0008500780004007800e9f707000a00370062
:102dd0000e82e80004007800f0f707000002780097
:102de0008e82e8000482420022002000e16d28006b
:102df00004007800d7f707000e82e800040078008e
:102e0000e6f7070000027800f5032000850f520066
:102e1000efff36000e82e80004007800bbfb0700dd
:102e20000080fa003400f9004f03be004f02be00dc
:102e30004f01be004f00be003600f9000040060002
:102e40003600f800809fbe00829fbe00849fbe00b7
:102e5000869fbe003400f80000002000a00188001a
:102e60000000fa0084c0a900adf907000080fa0054
:102e70003400f9004f03be004f02be004f01be00f8
:102e80004f00be003600f900004006003600f80092
:102e9000809fbe00829fbe00849fbe00869fbe00b2
:102ea0003400f80000002000a00188000000fa00b3
:102eb00084e0a900d202a900b41680000442780080
:102ec0006142620015c0b30004c252006142620058
:102ed0000482fb0061026200b6168000e5ff2f004d
:102ee0008502630004827200b4168800cdc2a90076
:102ef000841680004e22de006142620015c0b300dd
:102f000004c25200614262000482fb00610262005e
:102f10004e22dd0086168000f5ff2b00850263003f
:102f20000482720084168800e8f907000080fa0025
:102f30003400f9004f03be004f02be004f01be0037
:102f40004f00be003600f900004006003600f800d1
:102f5000809fbe00829fbe00849fbe00869fbe00f1
:102f60003400f80000002000a00188000a00fa00e8
:102f700086a0a9001efa070000027800040f78005e
:102f800001fa07000002be00140798002507980008
:102f900006b02c0037ff2f001e029000ae029000fa
:102fa0000402530085825b003407980045079800af
:102fb0008002eb001e0278001e019000ae0190001e
:102fc0003e009000ce009000ed0407000080fa0063
:102fd0003400f9004f03be004f02be004f01be0097
:102fe0004f00be003600f900004006003600f80031
:102ff000809fbe00829fbe00849fbe00869fbe0051
:103000003400f80000002000a00188000400fa004d
:103010008940a90004408000154080000e0178001e
:103020000400be00f2f70700420020008e00780086
:103030000000eb0072fe07000080fa003400f90087
:103040004f03be004f02be004f01be004f00be0046
:103050003600f900004006004000fa00889fbe00dc
:10306000401f9800217f9800621f9800731f9800ee
:1030700072024700040078001b0307002e7a9000bc
:10308000246f9800a1020700000278000402e80003
:10309000341798007e1a9000050020000400be003e
:1030a000c9f507000004be002e5a90000482fb0000
:1030b000cfa2de000400be00c0f507000002be0083
:1030c0000401be000800be0006f507000002be00b5
:1030d00034079800450798003e009000ce0090000d
:1030e000f8f407000002be00340798004507980076
:1030f0003e009000ce00900095f507000002be0053
:103100000442780004407800790307000002780048
:10311000040f78001e027800e10f420002003a001e
:103120000042eb00a00037001e0278004417980010
:103130000002eb0014079800110037002e5a90008f
:103140008482fb001e02900004aab90004027800e9
:10315000ee1a900004824200840078001e0078007d
:10316000420407001e0078001603070000027800e2
:10317000040f78001e0290000402e8001407980073
:103180001e029000cfa2de000400be008bf50700f7
:103190000002be0018c0b3003e019000ce019000b6
:1031a0000400be0047f5070000027800e00f52005f
:1031b000010035000044eb00e04f5400dfff3a000f
:1031c0008a03070000027800540798005e0290000e
:1031d000e10f420002003a000042eb0072003700ab
:1031e0004e189000edf6070000027800e30f520041
:1031f0000e003e000042eb002467980024022000ed
:103200000e024200ce18900004007800d8f60700a5
:10321000240220000e024200840078005e0090002c
:103220009903070014c0b3005f003700f4c0b30077
:10323000246798004e189000d8f607000002780026
:103240000402e800050020000400be005ef507004f
:103250000004be003e5a90000482fb00cfa2de00b4
:103260000400be0055f507000002be000401be00c8
:103270000800be009bf407000002be00640798002f
:10328000750798006e009000fe0090008df4070016
:103290000002be000400be000cf507000002be00e4
:1032a0000402780064179800c40220000e02420055
:1032b000040f98000e0a90001442780034679800ba
:1032c0000e0a90000402e800144278004467980057
:1032d0000e0a90000482e8001442780054679800b7
:1032e000240220000e024200840078005e0090005c
:1032f000650307000002eb00140798002500370063
:103300003a03070000027800540798000002eb001f
:1033100024079800120037003e5a90008482fb0078
:103320001e02900004aab900840278002e029000c8
:1033300004824200ce1a90000482420014427800b7
:10334000e60220000e034300ae0290008502430017
:10335000844a78002e0290000402e80024079800b6
:103360003e5a90008482fb002e029000848f52000f
:10337000e9ff3c00e40220000e02420084007800d5
:103380005e009000400307001e0290000402e80067
:10339000140798009e0290006e129000848f5200d5
:1033a000d7ff390014c0b300044078004f04be00ba
:1033b0000080fa00000006002c00fa005017980068
:1033c0006602470004007800470207005e10900084
:1033d0000102070000027800040f7800760247001f
:1033e000840078001e007800340307006e0a900005
:1033f00004007800e50207000042eb0064579800e3
:1034000076024700840078001e0078001e03070043
:103410006e529000ef4f52000200320014c0b30011
:103420001e0037007e5290008402fb000e5a90006e
:103430000402fb004822dd000482420024079800b9
:103440000002eb00140798007e4a90000482fb0003
:103450001e0f42000042eb00046798000b0037008b
:10346000040220000e024200840078001e00780052
:10347000050307007e4a90000482fb001e0f4200f5
:103480001e0290000402e800140798009e029000bb
:103490002e029000848f5200f1ff39000440780022
:1034a0000080fa00000006002400fa0000179800cf
:1034b0001117980066024700040078000a0207000e
:1034c0000e109000c4010700000278002407980045
:1034d00076024700840078002e009000f702070073
:1034e0006e0a9000040f78000002eb0014079800a9
:1034f0006e4a90008482fb001e02900004aab9006c
:10350000040278009e129000048242008400780039
:103510001e0078006e0307001e00780029020700d5
:1035200000027800040f78001e027800e10f4200cc
:1035300009003a001e0290008402e8006e4a9000e2
:103540000482fb0004aab900040278000400780099
:103550000080fa00000006001e0290000402e8004d
:1035600014079800e2ff37003000fa006017980057
:10357000711798006802470004007800da0107001c
:103580000042eb00044f78006e109000920107009b
:103590000002780024079800780247008400780031
:1035a0002e009000c50207000e5a9000ef4f520007
:1035b00032003a001e5a90008402fb002e5a9000fe
:1035c0000402fb00848242003e5a90000402fb0089
:1035d00068024200042add004022dd003407980022
:1035e00014002000140798001e0037001e5290009f
:1035f0008482fb001e02900004aab9000402780035
:10360000840278002e0290000482420025022000ed
:103610008e8242008500780004007800a70207002f
:103620001e0290008402e9001e5290000482fb00fa
:1036300004aab90004027800fe12900084824200bd
:10364000240220000e02420004427800844a7800de
:103650001e5290001e4f42001e0290000402e8001d
:10366000140798003e0290008402e8001e029000b9
:10367000848f5200ddff3c000400370078024700d1
:103680007417980044c0b300044f78001e427800bd
:10369000044078000080fa00000006001e00fa00d6
:1036a000600f98000e82e800040078008e01070089
:1036b0006e0890004801070000027800040f7800af
:1036c00072024700840078001e0078007b02070029
:1036d0002e5a9000044078000080fa000000060096
:1036e0002a00fa00889fbe00201798003117980022
:1036f000421798006a024700040078007a01070028
:103700002e10900034010700000278002407980072
:103710007a024700840078002e00900067020700bc
:103720000e129000040f78004e1290000500200049
:103730000400be0024f407000004be002e529000d6
:103740000482fb00cfa2de000400be001bf40700d1
:103750000002be000401be000800be0061f30700c5
:103760000002be0034079800450798003e00900014
:10377000ce00900053f307000002be00340798000b
:10378000450798000002eb0014079800110037006d
:103790002e5290008482fb001e02900004aab90001
:1037a00004027800be129000048242008400780077
:1037b0001e007800ad0207001e007800810107009e
:1037c00000027800040f78001e0290000402e80056
:1037d000140798001e029000cfa2de000400be0075
:1037e000f6f307000002be0018c0b3003e019000cf
:1037f000ce0190000400be00b2f307000002780082
:10380000e00f5200010035000044eb00e04f54008f
:10381000dfff3a004f04be000080fa0000000600ff
:103820003e00fa00889fbe00501f9800611f98005c
:1038300072024700040078002b0107000042eb00f1
:10384000246798005e189000e300070000027800eb
:1038500034079800440220000e02420084007800e1
:103860003e009000150207004e629000ef4f52009c
:1038700021003a005e6290008402fb006e629000bc
:103880000402fb00848242007e6290000402fb007e
:1038900068024200042add004022dd00440798004f
:1038a00014002000040f78000f0037003e5a9000eb
:1038b0008482fb001e02780004aab900040278008a
:1038c000840278003e02900004824200250220001b
:1038d0008e824200120020008500780004007800eb
:1038e00047fc07001e0fe8004e0290000402e800ab
:1038f0009e0f5200edff3c00240220000e02420009
:1039000012002000840078003e0090003cfc07007c
:10391000f7010700b501070000027800540798007e
:103920005e029000e10f420002003a000042eb000c
:10393000720037006e18900018f50700000278003a
:10394000e30f52000e003e000042eb004467980077
:10395000440220000e024200ee189000040078009d
:1039600003f50700440220000e02420084007800a4
:103970005e009000c401070014c0b3005f00370070
:10398000f4c0b300446798006e18900003f5070078
:10399000000278000402e800050020000400be00d8
:1039a00089f307000004be003e5a90000482fb0029
:1039b000cfa2de000400be0080f307000002be00bc
:1039c0000401be000800be00c6f207000002be00ef
:1039d00064079800750798006e009000fe00900044
:1039e000b8f207000002be000400be0037f3070073
:1039f0000002be000402780074179800e402200060
:103a00000e024200040f98000e0a90001442780043
:103a1000546798000e0a90000402e80014427800ef
:103a2000646798000e0a90000482e800144278004f
:103a300074679800440220000e024200840078005f
:103a40005e009000900107000002eb001407980050
:103a50002500370065010700000278005407980030
:103a60000002eb0024079800120037003e5a900035
:103a70008482fb001e02900004aab9008402780030
:103a80002e02900004824200ee1a9000048242004e
:103a900014427800060320000e034300ae0290009b
:103aa00085024300844a78002e0290000402e80058
:103ab000240798003e5a90008482fb002e0290005a
:103ac000848f5200e9ff3c00040320000e024200f4
:103ad000840078005e0090006b0107001e029000d9
:103ae0000402e800140798009e0290007e129000e5
:103af000848f5200d7ff390014c0b300044078000f
:103b00004f04be000080fa00000006001e00fa000c
:103b10006402470004007800730007000002eb0015
:103b2000040f7800ae0290003e0290000482420032
:103b300014079800150037001e029000f402470099
:103b400085007800040078005c0107004e52900068
:103b5000e04f5200160032004e529000ef4f5200dc
:103b6000050032004e0a90009e0f520002003600ff
:103b70004e0a9000040f78005e4a90000482fb0019
:103b80009e02900004824200140798009e0290005a
:103b90002e0390003e029000040343004e0290006a
:103ba00004024300848f5200e3ff39000100370014
:103bb000000000001e027800e00f520002003a00f0
:103bc000f4ff2100010037001e0278000400780095
:103bd0000080fa00000006002000fa00700f980034
:103be00064024700040078003f0007000082eb00f9
:103bf000040f7800ae0290003e0290000482420062
:103c000014079800170037001e029000f4024700c6
:103c10008500780004007800280107004e529000cb
:103c2000e04f5200180032004e529000ef4f520009
:103c300007003200ce0a90007e0a9000848f520066
:103c400003003a001e029000040f78000f003700b6
:103c50005e4a90000482fb009e02900004824200b3
:103c6000140798009e0290002e0390003e029000e0
:103c7000040343004e02900004024300848f52006c
:103c8000e1ff390001003700000000001e0278004b
:103c9000040078000080fa00000006001000fa001e
:103ca00004012000040f7800445f200014079800ee
:103cb00004e120002407980084be20003407980007
:103cc00044c0b300044f980094c0b300144f980050
:103cd000020120008e0078000000eb0048fb070086
:103ce0000080fa00000006000200fa00000f7800d1
:103cf000020120009e0078000000eb0066fb070038
:103d00000080fa00000006001600fa000002eb0036
:103d1000140f98000042eb0044579800dfff0700a3
:103d20000e82e80004007800efff07001e029000fa
:103d3000040f7800060037007202470022002000be
:103d4000840078001e0078002dfb07001e8fe8001d
:103d50009e0278001e0390002e0290000402430091
:103d6000848f5200f4ff39009e0290002e029000d2
:103d700004824200040f78000800370074024700f4
:103d800012002000840078001e0078001cfb070051
:103d90003e4a90000482fb001e0f42009e02780003
:103da0001e0390002e029000040343003e02900088
:103db00004024300848f5200f0ff39000080fa00b3
:103dc000000006001600fa00200f98000e82e8009e
:103dd00004007800c4ff07009e0290002e0a9000a5
:103de0000402420004824200048fe800720247008d
:103df00022002000840078001e00780026fb0700c7
:103e00001e0a9000040078000080fa0000000600fe
:103e10001600fa00100f9800210f98000e82e8009b
:103e200004007800b0ff07009e0290001e0a900078
:103e30000402420004824200048fe800740247003a
:103e400022002000840078001e007800ecfa0700b1
:103e50000080fa00000006001600fa006402470025
:103e600004007800a0ff07000082eb00040f780038
:103e70002e0290000482e800140798001200370018
:103e80007402470022002000840078001e00900089
:103e900001fb07002e0a9000e00f520007003a00d5
:103ea0009e0290002e029000048252000402d10073
:103eb000040f78001e0fe900090037001e02900071
:103ec0000482e800140798009e0290002e039000e0
:103ed0003e02900004024300848f5200e8ff390044
:103ee0001e027800040078000080fa00000006003e
:103ef0000a00fa00004f98000002eb002407980027
:103f000019003700d4ff070000027800340798003a
:103f10003e029000e10f420002003a003e02900093
:103f2000170037002e029000e00f5200040032000c
:103f3000be0090001e007800b5ff070002003700a9
:103f40003e029000140798008080eb003e00900035
:103f5000afff07003e029000040f78002e02900091
:103f60000402e800240798000e4a90008482fb00b7
:103f70002e029000848f5200e2ff3c001e0290004f
:103f8000040078000080fa00000006001600fa0025
:103f9000200f9800640247000400780052ff0700d9
:103fa0002e0a9000040f7800010037000000000086
:103fb0001e00780083ff07000002780014079800b5
:103fc0008000eb001e00780091ff07001e029000a9
:103fd000040f78001e029000e10f4200f3ff3a0048
:103fe000000000000080fa00000006001600fa0041
:103ff00064024700040078003bff07000082eb00ea
:10400000040f7800ae0290003e029000048242004d
:1040100014079800100037007402470012002000b7
:10402000840078001e0090009bfa07004e5290001a
:10403000e04f520003003a001e029000040f780087
:104040000d0037005e4a90000482fb009e02900043
:1040500004824200140798009e0290002e039000f4
:104060003e029000040343004e029000040243000d
:10407000848f5200e8ff39001e02780004007800a7
:104080000080fa00000006001400fa00000f9800fb
:10409000110f98000e00780013ff07001e4a9000d1
:1040a0000482fb00040178009e0890000e08900036
:1040b00053fa07000080fa00000006001400fa001e
:1040c000000f9800110f98000e00780006ff0700ff
:1040d0001e4a90000482fb00040178009e089000b4
:1040e0000e0890006cfa07000080fa00000006003d
:1040f0002200fa006602470004007800fafe07007a
:104100000082eb00040f78000082eb001407980097
:104110000042eb0074579800be0290004e029000df
:1041200004824200240798001b00370076024700f3
:1041300012002000840078002e00900056fa07003c
:104140006e529000e04f520005003a001e027800c7
:10415000e10f420002003a002e029000040f7800a6
:104160006e529000e04f5200060032001e027800ae
:10417000e10f4200030032002e0290001407980065
:104180000d0037007e4a90000482fb00ae029000d2
:104190000482420024079800be0290004e02900064
:1041a000848242005e029000848242002e029000cf
:1041b000848f5200ddff3e001e029000e10f42009e
:1041c0001d003a000042eb0025003700780247004e
:1041d000840078001e009000b8ff07000e5a90007f
:1041e000e04f520002003a0014c0b3001c00370038
:1041f00078024700840078001e007800a2ff0700c4
:104200007702470012002000840078001e00900012
:10421000fbf907007e4a90000482fb009e0290009a
:1042200004824200140798007e4a90000482fb003a
:104230001e0f42000100370000000000be02900087
:104240004e029000848242005e029000848242000e
:104250001e029000848f5200dcff3e0014c0b300a9
:10426000044078000080fa00000006001600fa0002
:10427000100f9800210f98000e82e80004007800cb
:1042800099fe07009e0290002e0290008482420058
:104290003e029000048342002e4a90008482fb007c
:1042a0001e0a900004aab90004027800040f43001b
:1042b0002e4a90000482fb0004017800ae089000b2
:1042c0001e007800cef907000080fa00000006000a
:1042d0001600fa00100f9800210f98000e82e800d7
:1042e0000400780080fe07009e0290002e029000dd
:1042f000848242003e029000048342002e4a9000d5
:104300008482fb001e0a900004aab900040278000f
:10431000040f43002e4a90000482fb000401780041
:10432000ae0890001e007800dbf907000080fa005c
:10433000000006000800fa00204798003147980066
:1043400022079800634798002e4290000482fb00e9
:104350004822dd000408b000040f78003e429000bf
:104360000482fb001e0f42006e419000ae009000e0
:104370001e007800900007000080fa000000060090
:104380002800fa00600f9800710f9800021798003b
:1043900013179800241798003517980034c0b300fd
:1043a000044f78006402470003000900001aeb0084
:1043b0007c024700140798001e0290001442780007
:1043c000444798001e0290000402e800144278005e
:1043d000544798001e0290000482e80014427800be
:1043e00064479800040220000e024200140798005f
:1043f0001e02900014427800744798001e0290003c
:104400000402e80014427800044f98001e02900055
:104410000482e80014427800144f980064024700b8
:104420008041eb00040178009e40780010c0b3008a
:10443000c0ff07006c02470003000900001aeb00f0
:104440002e1290000402ea00241798004402200073
:104450000e024200140798001e02900014427800d9
:10446000444f98001e0290000402e80014427800b5
:10447000544f98002e1290000402ea00241798006e
:10448000440220000e024200140798001e02900011
:1044900014427800644f98001e0290000402e80065
:1044a00014427800744f9800640220000e0242000b
:1044b000140798001e0290001442780024579800b8
:1044c0001e0290000402e80014427800345798005d
:1044d0006c02470013c0b300040178009e407800ce
:1044e00020c0b30093ff07007402470003000900d7
:1044f000001aeb007402470023c0b30004017800e7
:104500009e40780030c0b3008aff07000080fa00a8
:10451000000006000000fa0000c02000d1ef0700f4
:1045200000000000841c80004522de00674262001b
:104530000482fb00e30f5200faff3400b14920006f
:10454000000520007cef0700310020000040eb0058
:10455000ceef0700410020000040eb00c3ef070052
:104560003100200010c0b300c8ef07004100200058
:1045700010c0b300bdef07003100200020c0b30021
:10458000c2ef07004100200020c0b300b7ef0700d2
:1045900000802a00b3ef070000000000851c8000a7
:1045a000040e200004826200e00f5200fbff3a007c
:1045b0000080fa00000006000600fa00000f7800f4
:1045c00011079800424798004e4290009e039000c9
:1045d000057c20009e826200452bdd009e02780053
:1045e0004228dd00f50f20008502600005037300fe
:1045f000c58f2f00050363008442780084c0b30098
:1046000087007800825f2000030020000600780009
:0c4610004cef07000080fa0000000600dc
:020000040000fa
:10461c00000800000e000000020000000000000076
:10462c0000ffff0000000000000000000000000080
:04463c00000000007a
:020000040000fa
:0200000401f009
:04000000e7bf000056
:020000040000fa
:0200000401f009
:04000400ff7f00007a
:020000040000fa
:0200000401f009
:040008004fff0000a6
:020000040000fa
:0200000401f009
:04000c00ffff0000f2
:020000040000fa
:0200000401f009
:04001000ffff0000ee
:020000040000fa
:0200000401f009
:04001400ffff0000ea
:020000040000fa
:0200000401f009
:04001800ffff0000e6
:00000001FF
