:020000040000fa
:080000000001040000000000f3
:020000040000fa
:10000800c0010000c0010000c0010000c0010000e4
:10001800c0010000c0010000c0010000c0010000d4
:10002800c0010000c0010000c00100004e1b00001c
:10003800c0010000c0010000601c0000861c000018
:10004800c0010000c0010000c0010000c0010000a4
:10005800c0010000c0010000c0010000c001000094
:10006800c0010000c0010000c0010000c001000084
:10007800c0010000f01c0000b21d0000c00100001b
:10008800c0010000c0010000c0010000da1d00002e
:10009800c0010000c0010000c0010000c001000054
:1000a800c0010000c0010000c0010000c001000044
:1000b800c0010000c00100002a1e0000c0010000ad
:1000c800c0010000c0010000721e0000c001000055
:1000d800c0010000c0010000c0010000c001000014
:1000e800c0010000c0010000c0010000c001000004
:0800f800c0010000c00100007e
:020000040000fa
:10010800c0010000c0010000c0010000c0010000e3
:10011800c0010000c0010000c0010000c0010000d3
:10012800c0010000c0010000c00100004e1b00001b
:10013800c0010000c0010000601c0000861c000017
:10014800c0010000c0010000c0010000c0010000a3
:10015800c0010000c0010000c0010000c001000093
:10016800c0010000c0010000c0010000c001000083
:10017800c0010000f01c0000b21d0000c00100001a
:10018800c0010000c0010000c0010000da1d00002d
:10019800c0010000c0010000c0010000c001000053
:1001a800c0010000c0010000c0010000c001000043
:1001b800c0010000c00100002a1e0000c0010000ac
:1001c800c0010000c0010000721e0000c001000054
:1001d800c0010000c0010000c0010000c001000013
:1001e800c0010000c0010000c0010000c001000003
:0801f800c0010000c00100007d
:020000040000fa
:10020000cf6a21000e7f22000e018800000000004e
:1002100000012000200288000c00070020fb2300c2
:100220000100200011000700000020000000e00095
:10023000020032000000020000000000181b020053
:10024000000000000040da000000fe004440a90069
:10025000200b20000000e00003003200000020001e
:10026000a00188004440a800000006009101880019
:10027000800078000000eb0015003700e2804000ad
:1002800032a0b4009101ba00e280400032a0b40074
:100290009102ba00e280400032a0b4000002eb00fc
:1002a000472bde00f507b200602ce10004003a00a5
:1002b0000059eb008301e900fdff3e000400370018
:1002c0006128e100010032000082eb000400070019
:1002d0001101ba000200e000e8ff3a000000060049
:1002e0003159ba008301e9000c0032002159ba00eb
:1002f0008301e900080032000400e00003003a0036
:10030000e280400032a0b400f5ff370011d9ba00f6
:100310008301e900faff3a008100e800e180400033
:1003200032a0b40000000600680a040000000000cb
:10033000f4150400000000001e210400000000006d
:100340005620040000000000c0250400000000004a
:100350005825040000000000fc24040000000000f8
:100360007c21040000000000f023040000000000d5
:10037000d02204000000000052240400000000000d
:100380000040da000000fe00901c8800a11c8800dc
:1003900000000600e14f500006003200e24f50001e
:1003a00006003200e04f500009003a00701b800048
:1003b00003003700f01a800001003700701a800037
:1003c000680060000000e9004f00de000000060049
:1003d0000040eb00000006000002eb008180fb0003
:1003e00009003700e04f510003003200653720005c
:1003f000e14f5100010032006538200065487a0065
:100400000402e8000000e800810f5200f5ff35000b
:1004100000000600401bde0007002000e1cf520074
:1004200008003200e2cf52000a003200001b8800b0
:10043000161b8800221b88000003eb008483fb004e
:1004400012003700801a8800961a8800a21a8800c5
:10045000f9ff3700001a8800161a8800221a88004f
:10046000f5ff370060352000e1cf52000400320074
:1004700060362000e2cf520001003a0060342000d4
:1004800011707b000603e8008100e800870f53002d
:10049000f4ff35006f426200e1cf520003003200ea
:1004a000e2cf520013003a0009003700ef02620069
:1004b000c32add00a61a800074f82f00040263002e
:1004c00005027200a41a88005e63a80000000600fe
:1004d000ef026200c32add00261a800074f82f00a4
:1004e0000402630005027200241a88004e63a8000b
:1004f00000000600ef026200c32add00261b800018
:1005000074f82f000402630005027200241b8800a7
:100510006e63a80000000600889fbe00401cde003d
:10052000090020000003fb00cfb3de00e50f5300fd
:10053000e08f5b001e003e000660010005003700f2
:10054000070037000a0037000d00370010003700a1
:1005500013003700011888001818880016003700ab
:100560004118880058188800621888001300370066
:100570008118880098188800a21888000f0037009a
:10058000c1188800d8188800e21888000b003700ce
:1005900001198800181988002219880007003700ff
:1005a0004119880058198800621988000300370033
:1005b0000118880018188800221888004f04be000f
:1005c00000000600401ade0005002000e04f500049
:1005d00006003200e14f500004003a00c1198800c3
:1005e000d4198800e21988000000060081198800eb
:1005f00094198800a219880000000600801c880059
:1006000000000600e04f500004003200e14f5000af
:1006100002003a00f11b880000000600711c8800ef
:1006200000000600e14f500003003200e24f50008e
:1006300005003a0002003700f11a880000000600a9
:10064000711a880000000600711b88000000060077
:1006500090228800a122880000000600e14f50008f
:1006600006003200e24f500006003200e04f50001a
:1006700009003a007021800003003700f02080005c
:100680000100370070208000680060000000e90071
:100690004f00de00000006000040eb0000000600f6
:1006a0000002eb008180fb0009003700e04f5100a1
:1006b0000300320065432000e14f51000100320089
:1006c0006544200065487a000402e8000000e80064
:1006d000810f5200f5ff350000000600401bde00d0
:1006e00007002000e1cf520008003200e2cf5200a4
:1006f0000a0032000021880016218800222188008b
:100700000003eb008483fb00120037008020880088
:1007100096208800a2208800f9ff3700002088007a
:100720001620880022208800f5ff37006041200055
:10073000e1cf52000400320060422000e2cf5200bc
:1007400001003a006040200011707b000603e800c1
:100750008100e800870f5300f4ff35006f4262000c
:10076000e1cf520003003200e2cf520013003a0002
:1007700009003700ef026200c32add00a6208000d6
:1007800074f82f000402630005027200a4208800a0
:100790001e64a80000000600ef026200c32add000c
:1007a0002620800074f82f00040263000502720006
:1007b000242088000e64a80000000600ef026200fa
:1007c000c32add002621800074f82f000402630094
:1007d00005027200242188002e64a8000000060093
:1007e000889fbe00401cde00090020000003fb00c3
:1007f000cfb3de00e50f5300e08f5b001e003e002c
:100800000660010005003700070037000a003700c6
:100810000d0037001000370013003700011e88005c
:10082000181e880016003700411e8800581e8800d8
:10083000621e880013003700811e8800981e880001
:10084000a21e88000f003700c11e8800d81e880035
:10085000e21e88000b003700011f8800181f880067
:10086000221f880007003700411f8800581f88009a
:10087000621f880003003700011e8800181e8800d0
:10088000221e88004f04be0000000600401ade0051
:1008900005002000e04f500006003200e14f5000fc
:1008a00004003a00c11f8800d41f8800e21f88009e
:1008b00000000600811f8800941f8800a21f880086
:1008c000000006008022880000000600e04f500073
:1008d00004003200e14f500002003a00f12188008c
:1008e000000006007122880000000600e14f500061
:1008f00003003200e24f500005003a0002003700ca
:10090000f120880000000600712088000000060029
:1009100071218800000006009623ef008760a9007f
:10092000c01c8800e7826000cc2add00060580003c
:10093000f4ff280004026300050272000405880029
:10094000e8806000c308de00e1806000cb08dd00c5
:100950007404800004b0a1000102720074048800d5
:10096000000006005624ef0088c0a900c0228800bd
:10097000e7826000c82add0036058000f48f2f0072
:10098000040263000502720034058800e8806000fc
:10099000c308de00e1806000c608dd00840480003a
:1009a0000460a100010272008404880000000600b7
:1009b00040118800311188000000060003f0a200f9
:1009c000889fbe008a9fbe008c1f780057010700d9
:1009d0005e0133006450e1004f0032006420e1000a
:1009e0005200320003826c0007003b000905d00072
:1009f0000306d000820f54000c065d00020039008f
:100a000002003200890178000306780085825500d3
:100a100004003d000003fd008103fd008502ea00a3
:100a20008b854200840f720002003b0060001000c2
:100a3000e08018006011b8000005eb007a28e100a2
:100a40000a00390006007800c75ddd00f707b20034
:100a5000878075002d003700828171000a017800bf
:100a6000610560008180d1000080d3008502e9002b
:100a7000f9ff3b00060440008784480002003b0069
:100a800060041400e0841c000988a3000700320001
:100a90008a81710082817100610164008904d10042
:100aa0000884d3008b05e800170037000978a300fd
:100ab00013003a000b00e000130034008b05e9003e
:100ac0000804440089844c000a4474000978a30097
:100ad0000d003a000b00e000070034008b05e90030
:100ae0000804440089844c0001003a000b002000f7
:100af0000978a300f7ff32000001eb000200370085
:100b0000828171000a017800cd0007000cf0a70077
:100b100001f0a000160137006420e10002003a0055
:100b2000838f6c00160133000801be000200be0076
:100b30000f0137000001eb005700070004003200ee
:100b40000200200003f8230001f0a6009cff07002c
:100b500000000600889fbe008a9fbe008c1f7800a0
:100b6000f2000700f900330003866c006450e100d6
:100b70002e0032006420e100330032006150e100b9
:100b80002f0032006120e1003100320085855500e0
:100b9000eb07b00009002000080420000500370022
:100ba0000804440089844c000a0031000603430015
:100bb00087834b000001530081815b00f8ff330005
:100bc0000203be000800a0000804440089844c0011
:100bd000f6ff3900c639dd008301730001003200e1
:100be000130020008904d1000884d3000998a300d1
:100bf000050032000800a7000300a0008904d1000e
:100c00000884d3008b05e8008904d1000884d30050
:100c10000001eb000281d2008900070001f0a10071
:100c20000cf0a70001f0a000d10037006420e10023
:100c3000d30032000801be000200be00f7ff3700fb
:100c40006120e100ce0032006000b800f3ff370001
:100c50000000200001f82700f0ff3700839f6800a4
:100c60000100e00002003d0060001000e08018007c
:100c70000300e00002003d0060011100e081190066
:100c8000050107004f00e00002003b00600010007b
:100c9000e080180000000600889fbe008a9fbe000a
:100ca0000003be008c000700850578008281520099
:100cb000020020006220e10004003a00f307b100c6
:100cc000040035007718e100040035000600be007e
:100cd000140037006000b8000f003700f50f200047
:100ce000faff2f008502d1000a85d3008301e900b5
:100cf000fcff3b008184620000046500890f7400e2
:100d0000f2ff32008582ea000a85ea0081846200ef
:100d1000000465004a00070007f0a70001f0a000ea
:100d20000081eb000200e0004f05be004f04be0052
:100d30000000060014002000ea0037000001be0099
:100d4000650007000470a70003f0a1006509b10069
:100d5000160032000d0035006828e100060035005d
:100d6000f0ff2f00f1ff27000300e00013003b001d
:100d700001002800000005000000400081804800bc
:100d80008502e900fcff3a0008003700f88f4200b6
:100d900002003c008000eb00000005008100d10053
:100da0000080d3008502e800fcff3a000300e00069
:100db00002003b0060001000e08018000000060008
:100dc0000001be00440007000470a70003f0a1006a
:100dd00003f8a30013003a006509b10010003200c7
:100de000090035006928e1000200350001002800f3
:100df0000000050000004000818048008502e900f5
:100e0000fcff3a0000000600f88f420005003500a4
:100e10008100d1000080d3008502e800fcff3a0089
:100e2000000006008000eb00000005004f89de0096
:100e300082017800c60037006011b800d400370086
:100e400081002000618055000b003d000b00200058
:100e500061fe2f000100e1001d003400828171005d
:100e6000610164008904d1000884d3000000e80017
:100e7000faff3a0071002000610064000300700076
:100e8000020060000900320061044400e0844c006c
:100e90000988a500050032008b05e8006808e1001c
:100ea00002003a008904d1000884d300f20f200028
:100eb0000258e10005003d00c75ddd00f907b20002
:100ec0008980750008007800000006000bf82700f4
:100ed0008b00780000000500c70ade00f107b200b1
:100ee000f50fb20008003200e1cf420002003200ec
:100ef0000170a00024000500810f70000100320085
:100f00000408050044000500810f700002003a004b
:100f1000140005008502e9000000400081c048007f
:100f2000fcff3b000170a000240005000004be008f
:100f3000e9ff07000003be000405be000200be007a
:100f4000e5ff0700844f7500000006000200be00a8
:100f50006450e100050036006420e1000200360024
:100f60000968a30001003a000800be000160a0006b
:100f70004f0678004f05be004f04be00000006007b
:100f8000f0ff2f00f1ff2700f9ff3700811f7800e5
:100f90000100e00002003d0060001000e080180049
:100fa0000300e00002003d0060011100e081190033
:100fb000490007004f00e00002003b006000100005
:100fc000e080180000000600889fbe008a9fbe00d7
:100fd0008c1f7800d5ff0700dcff330003866c0010
:100fe0006450e100240032006420e1002700320058
:100ff0006150e100220032006120e1002100320056
:101000008b854200eb07b1000134b800003ab8000c
:101010000804420089844a00013ab8000030b80050
:101020008880400009014a000400330000004000ad
:1010300081804800020149008b05e900c909dd00f3
:10104000830170000100320013002000c814de008c
:101050004814dd004709de001200b200c808de00b7
:101060000884700076ff070001f0a1000cf0a700d3
:1010700001f0a000beff37006120e100c0ff320098
:101080000801be000200be00f7ff37006150e1001a
:10109000fcff3a00baff37006022b80006022000c9
:1010a0000000d0008180d2000482d2008582d2006c
:1010b0000000a0000202520083825a0003003100a7
:1010c0000202420083824a000000a1000603e900f8
:1010d000f3ff3a0000000600efff07000400be0027
:1010e00000000600889fbe008a9fbe00841f780013
:1010f0008eff07004f00780011003300f0ff2f0033
:10110000838f6c0006003b00040565000a00a70001
:101110000800370009f0a600100020000800370082
:10112000820f5400838f5c00030039001000200000
:1011300001003e000000200009f0a7000000ea00c6
:101140004f05be004f04be000000e0000000060096
:10115000881f7800030478000300e00007003d00ca
:1011600060001000e080180060011900e0811900a3
:1011700002003b0001f02d000300370004000700cf
:1011800008f0a70001f0a0004f047800000006005e
:10119000889fbe008a9fbe0000827000040271001a
:1011a00004827100260032000004be000200be006e
:1011b0006011b8006b092000950220000182cf0069
:1011c0000a0039000541b1000082cf000700390054
:1011d0000541b1000982cf00040039000541b1008a
:1011e0000882cf00010039000541b10005425200dc
:1011f000120032000a003b0082817100610164002c
:101200008100d1000080d3008984d3000884d300fa
:101210008b05e8000442e800f7ff3a0007003700ba
:101220000804440089844c00000048008180480084
:101230008b05e9000442e900f9ff3a0000ff0700ce
:101240004f05be004f04be000000060000027800fb
:1012500002003700315a78000201e900e00f510026
:10126000fcff3a00000006000002780084027800cb
:10127000050278000043eb00b44f1300fbff3a0077
:1012800031427800845a7800e04f5200fcff3a0067
:1012900000000600000278008042eb00b4cf12008c
:1012a000fdff3a000080ea00000042000000060056
:020000040000fa
:1012b000646f00006e5f000061760000746f0000d4
:1012c0005f310000006f0000735f0000310000001c
:1012d000763100002e300000003100002e3000007a
:1012e00000630000616e0000310000006d610000cd
:1012f000726b00005f64000069730000746100009d
:101300006e63000065000000737900006e630000ea
:10131000687200006f6e0000697a0000617400005e
:10132000696f00006e000000737900006e630000ba
:10133000685f00007a6f00006e650000006f0000bb
:1013400076650000725f000072690000736500003e
:101350005f7a00006f6e0000655f00006c6f000038
:10136000770000006f760000657200005f72000079
:1013700069730000655f00007a6f00006e65000011
:101380005f68000069670000680000006465000095
:10139000665f000064690000616700005f72000022
:1013a0006576000000640000656600005f64000070
:1013b00069610000675f000067720000757a0000d5
:1013c00000640000656600005f6400006961000061
:1013d000675f00006c750000646900000064000035
:1013e000656600005f64000069610000675f0000df
:1013f0006e65000067610000620000002e000000c2
:10140000200000003a0000007374000061720000c8
:041410007400000064
:020000040000fa
:101414000000fa000180200020002200ae12070024
:101424002180200030002200ab12070061802000e0
:1014340040002200a8120700a180200050002200d2
:10144400a5120700e180200060002200a21207001c
:1014540001812000700022009f12070021812000da
:10146400800022009c12070041812000900022008d
:101474009912070084a62000829f20008181200009
:10148400a00022000400010084a6200082cc2000d9
:1014940081ae2000b00022000400010084a62000d8
:1014a40082f9200081db2000c0002200040001003a
:1014b40084a620008226210081082100d000220079
:1014c400040001000080fa0000000600fc00fa009d
:1014d40030bf980041bf980052bf98006602470091
:1014e400840078003eb890007b1207000002eb00f5
:1014f400040f78001c003700660347001e027800c2
:101504006622b9000402780004024300140798001c
:10151400660347001e0278006622b90004027800c0
:101524006402420004024300240798001e02900053
:101534001402be001e0378004233dd000603470098
:10154400e607b000048bbe002e02900094027800df
:101554001e0278000402420004024700e40cb000ba
:10156400050a78001e0fe8001e027800f30f5200ef
:10157400e1ff3400e50c20008e824200e4072000e5
:101584000e024200deb990004eb99000850078004a
:10159400040078007a1807000080fa0000000600b2
:1015a4000200fa00000f78001e0278006123b900df
:1015b400f4ff2d00f5ff2f000602420087824a0047
:1015c400c600200007002000860f5200878f5a00b3
:1015d4004c003e0004600100490037000b00370056
:1015e4000e003700110037001400370017003700d1
:1015f4001a0037001d003700200037002300370091
:10160400290037002f003700350037000180200003
:1016140020002200301207003a0037002180200009
:10162400300022002c1207003600370061802000b1
:10163400400022002812070032003700a180200059
:1016440050002200241207002e003700e180200001
:1016540060002200201207002a00370001812000c8
:10166400700022001c120700260037002181200090
:101674008000220018120700220037004181200058
:1016840090002200141207001e003700859f2000de
:10169400848120000501780084007800a0002200e5
:1016a4008aff07001700370085cc200084ae200095
:1016b4000501780084007800b000220083ff070051
:1016c4001000370085f9200084db20000501780034
:1016d40084007800c00022007cff07000900370066
:1016e4008526210084082100050178008400780003
:1016f400d000220075ff0700000000000100370041
:10170400000000000080fa00000006000000fa005b
:10171400043a80000480a1000490a00004a0a0006a
:1017240004b0a000043a88009140a9004187a800b1
:1017340000000000053a80000400220004826200d8
:10174400e00f5200fbff32008940a90044058000ed
:101754000480a1000490a00004a0a0004405880017
:101764009140a8000080fa00000006000800fa007a
:1017740020079800310798006022b800048fbe004b
:101784006022b800048fbe0004003700140020005b
:10179400050020001e0f42005e974a002e029000b2
:1017a400be0290001e03be00840f5300858f5b00b1
:1017b400f6ff35000080fa00000006000e00fa0073
:1017c4004007980051079800620798006e02900045
:1017d400eb0242000042eb00844a78000042eb0036
:1017e400044f7800a4002000140798004e029000d3
:1017f400de029000e00f5200e08f5a0008003a0029
:101804001e029000ee0290008482420004c3b300e2
:10181400844a78001e0290000402e900140798002c
:101824004e029000de029000e00f5200e08f5a005a
:1018340029003d004e029000de029000600212007a
:10184400e0821a00440798005507980000c2eb0094
:10185400044f7800200037004e029000de02900012
:1018640024079800350798002e029000be029000cd
:10187400a2002000030020000400be00c2fd0700f7
:101884000002be0024079800350798001e0290004d
:10189400ee029000848242002e02900004427800fe
:1018a4000443b000844a78001e0290000402e90058
:1018b400140798004e029000de029000a20020005f
:1018c400030020000400be00e3fc07000002be0089
:1018d40044079800550798004e029000de029000dd
:1018e400e00f5200e08f5a00dbff3c001e427800fc
:1018f400e14f420008003a001e029000ee02900000
:1019040084824200d4c2b300844a78001e0290004c
:101914000402e900140798001e0290000402e80083
:10192400040078000080fa00000006000800fa00b5
:101934001007980021079800320798000e8fe800de
:101944001e02780014427800be029000844a780097
:101954003e0290008402e8001e02e800144278006f
:10196400844a78003e0290008482e8001e82e800e7
:1019740014427800844a78003e029000e302420058
:101984001e0378006302430014427800844a7800fe
:101994000080fa00000006000200fa00d222a9002a
:1019a400d242a9003516800004f02f000482720090
:1019b40034168800d642a900d622a900900120003e
:1019c4000100200069ff070044168000040f78001e
:1019d400d622a8001e02780048a2de000442780045
:1019e400044078000080fa00000006000400fa00b9
:1019f40020479800314798002e4290000482ea0064
:101a04002447980085692100954278002e42900071
:101a140004c262000400780098f6b70085692100ca
:101a2400954278003e42900004c27200040078009f
:101a340098f6b700846921001442780004cfea00c4
:101a4400d222a900d242a9003516800004f02f004a
:101a54000482720034168800d642a900d622a80057
:101a640035168000f40f20000482620034168800ca
:101a74001e02fb004822dd0044168800d642a8005e
:101a8400900120000100200038ff0700d642a90081
:101a9400900120000100200034ff07000080fa00bc
:101aa400000006000600fa0010079800414798005d
:101ab4001e029000e80242000042eb00844a7800d3
:101ac4000002eb00040f7800140037001e027800b7
:101ad4009e029000848242004e4290006142620065
:101ae400844a78001e0278009e029000848242009c
:101af4001e0278001e039000040243001442780082
:101b04000443b000844a78004e4290000402fb0073
:101b14000482d100444798001e0fe8001e0278009a
:101b2400e70f5200e9ff34000080fa0000000600cd
:101b34000000fa000002eb00f41688001602a90067
:101b4400b41080000410a1000420a100b410880087
:101b540016a2a900b4092000f410880017e2a80016
:101b64001942a8000080fa00000006000000fa00f4
:101b7400350480000420200004826200e00f52003b
:101b840002003a0014c0b300020037008720a90005
:101b94000042eb00044078000080fa0000000600d8
:101ba4000200fa00004f78009e4278000582fb0094
:101bb400d410880000000000ecff07000042780009
:101bc400e04f5200fcff3a000080fa0000000600db
:101bd4000200fa00000f7800050037001e027800aa
:101be400144278001e0fe80004407800ecff070060
:101bf4001e02780014427800e04f5200f7ff3a00ca
:101c04000080fa00000006000600fa0010079800a1
:101c1400210798000002eb00040f78000002eb009b
:101c2400040f7800080037001e0290001442780068
:101c34009e0290008502e800150798000440780091
:101c4400d7ff07001e0fe8002e0290009e027800c6
:101c5400848f5200f4ff35000080fa000000060073
:101c64000000fa000002eb00240888002408800029
:101c74000440a0000450a0002408880004352c006f
:101c840014088800a404800004c0a10004d0a000ab
:101c940004e0a100a40488008460a9008c60a8006a
:101ca40005e1a8000080fa00000006000000fa0028
:101cb4000002eb0084088800840880000440a1002e
:101cc4000450a10084088800a40a20006408880045
:101cd400b40480000480a1000490a00004a0a0002b
:101ce400b404880084c0a9008cc0a80011e1a80035
:101cf4000080fa00000006000000fa000002eb0079
:101d040094088800940880000440a0000450a000b7
:101d140094088800e449220074088800b404800010
:101d240004c0a00004d0a10004e0a000b404880012
:101d340084e0a9008ce0a80013e1a8000080fa0068
:101d4400000006000000fa000002eb00f40888001e
:101d5400f40880000440a0000450a000f4088800a7
:101d6400241c2000d4088800f40480000440a1004e
:101d74000450a1000460a000f404880086a0a90017
:101d84008ea0a8001fe1a8000080fa000000060051
:101d94000000fa000002eb00040988000409800036
:101da4000440a0000450a00004098800840c200012
:101db400e4088800f40480000480a0000490a000db
:101dc40004a0a100f404880086c0a9008ec0a80065
:101dd40021e1a8000080fa00000006000200fa00d9
:101de400c602a800c622a800441680000442780057
:101df400634f6200e4692100144278000402fb008e
:101e0400cfa2de003600200007002000860f52001b
:101e1400878f5a0058003e00046001001600370006
:101e24002800370001003700390037001e427800cf
:101e3400e34f520006003a00d4b48000e5b48000b9
:101e440061025200e0825a00d4b48800e5b48800ec
:101e54001e427800e04f520040003a00d4b48000a3
:101e6400e5b4800061024200e0824a00d4b48800f4
:101e7400e5b48800400037001e427800e24f52006b
:101e840006003a00d4b48000e5b480006102520038
:101e9400e0825a00d4b48800e5b488001e42780079
:101ea400e14f52002f003a00d4b48000e5b4800022
:101eb40061024200e0824a00d4b48800e5b488009c
:101ec4002d0037001e427800e04f520006003a0011
:101ed400d4b48000e5b4800061025200e0825a006c
:101ee400d4b48800e5b488001e427800e34f520061
:101ef4001e003a00d4b48000e5b4800061024200c0
:101f0400e0824a00d4b48800e5b488001a0037009f
:101f14001e427800e14f520006003a00d4b480001b
:101f2400e5b4800061025200e0825a00d4b4880013
:101f3400e5b488001e427800e24f52000d003a00da
:101f4400d4b48000e5b4800061024200e0824a001b
:101f5400d4b48800e5b4880007003700000000000e
:101f640005003700000000000300370000000000f7
:101f740001003700000000001e4078009ef6b70004
:101f84000080fa00000006000000fa0006b5800098
:101f940017b580000082eb008082eb00840f5300b1
:101fa400858f5b0004003a00d4b48000e5b480005f
:101fb40004b5880015b58800d4b48000e5b4800069
:101fc4000403780004b5800015b58000040278008d
:101fd4000402530024b58800d4b48000e5b4800022
:101fe40004b5880015b588000080fa0000000600da
:101ff4000c00fa0050079800d4b48000e5b48000c7
:102004004e2bdd004222de0004027300c2aade0071
:10201400048fbe001e00be0083fb07000003be0049
:1020240014408000254080000401be000600be006c
:10203400e4fb07000002be000400be003efb0700f4
:102044000002be0024079800350798005e01900046
:102054002e009000be009000d8fd0700000278001a
:10206400044f98000e4a9000044078000080fa0063
:10207400000006000800fa00d4b48000e5b4800033
:102084004e2bdd004222de0004027300c2aade00f1
:10209400048fbe001e00be0063fb07000003be00e9
:1020a40014408000254080000401be000600be00ec
:1020b400c4fb07000002be000400be001efb0700b4
:1020c4000002be0024079800350798002e029000f5
:1020d400be0290000400be000080fa00000006006a
:1020e4000800fa0020079800310798002e0090009d
:1020f400be0090004cfb07000003be0014408000ab
:10210400254080000401be000600be0090fa0700ce
:102114000002be000400be0007fb07000002be0070
:10212400048fbe001e03be00423add00ce32de0044
:10213400850272004232dd00048fbe001e02be0022
:102144000400be000080fa00000006000200fa004d
:1021540024b5800042a2de00040f78001e0278003d
:10216400cfa2de000400be002ffb07000003be0068
:1021740014408000254080000401be000600be001b
:1021840090fb07000002be000400be00eafa07004c
:102194000002be00040f78001e027800cfa2de0009
:1021a4000400be0020fb07000002be00d2cc2c00bd
:1021b400c3dc23000400be0065fa07000002be0071
:1021c4000400be00dcfa07000002be00040278002e
:1021d400040078000080fa00000006000000fa0005
:1021e400e442a900e462a900dec2a90095168000b9
:1021f400f40f20000482620094168800e842a900cb
:10220400e862a900d762a800d742a900d722a90092
:10221400d702a900e2c2a900400620000100200064
:1022240052fd0700d762a9004006200001002000eb
:102234004efd0700d762a800d742a900d722a90003
:10224400d702a900e2c2a800400620000100200035
:1022540046fd0700d762a90000712200010020009a
:1022640042fd07000080fa00000006000200fa00a8
:10227400004f7800e442a900e462a900dec2a9008c
:1022840095168000f40f20000482620094168800e2
:10229400e842a900e862a900d762a8009e02fb00f8
:1022a400040820008482620014c0b300e08f52004e
:1022b40001003c000042eb000482fb00610262006a
:1022c4004a22dd00b6168000f5bf2f0085026300a8
:1022d40004827200b41688009e02fb0004042000ed
:1022e4008482620014c0b300e08f520001003c00fd
:1022f4000042eb000482fb00610262004922dd001f
:10230400b6168000f5df2f00850263000482720098
:10231400b41688009e02fb0004022000848262003e
:1023240014c0b300e08f520001003c000042eb00f7
:102334000482fb00610262004822dd00b6168000c0
:10234400f5ef2f008502630004827200b416880042
:102354001e02fb00f002620014c0b300e08f5200c2
:1023640001003c000042eb000482fb0061026200b9
:102374004622dd0016178000f5fb2f00850263005e
:102384000482720014178800400620000100200017
:10239400f6fc0700d762a9004006200001002000d7
:1023a400f2fc0700d762a8001e02fb004422dd00f5
:1023b400044f78009e02fb0004082000848262001f
:1023c40014c0b300e08f520001003c000042eb0057
:1023d4000482fb00610262004a22dd00b61680001e
:1023e400f5bf2f008502630004827200b4168800d2
:1023f4009e02fb00040420008482620014c0b30027
:10240400e08f520001003c000042eb000482fb001c
:10241400610262004922dd00b6168000f5df2f005c
:102424008502630004827200b41688009e02fb00d9
:10243400040220008482620014c0b300e08f5200c2
:1024440001003c000042eb000482fb0061026200d8
:102454004822dd00b6168000f5ef2f0085026300e8
:1024640004827200b41688001e02fb00f0026200af
:1024740014c0b300e08f520001003c000042eb00a6
:102484000482fb00610262004622dd001617800010
:10249400f5fb2f0085026300048272001417880084
:1024a4004006200001002000b0fc0700d762a9000c
:1024b4004006200001002000acfc07000080fa0068
:1024c400000006000000fa00e442a900e462a9004a
:1024d400dec2a90095168000f40f20000482620079
:1024e40094168800e842a900e862a900d762a8000f
:1024f400d742a900d722a900d702a800e2c2a900a6
:10250400400620000100200098fc0700d762a900c3
:10251400400620000100200094fc0700d762a800b8
:10252400d742a900d722a900d702a800e2c2a90075
:1025340040062000010020008cfc0700d762a9009f
:10254400400620000100200088fc0700d762a80094
:10255400d742a800d722a800d702a800e2c2a80048
:10256400400620000100200080fc0700d762a9007b
:1025740040062000010020007cfc0700e842a9007e
:10258400e862a900d762a800d742a900d722a9000f
:10259400d702a900e2c2a9004006200001002000e1
:1025a40072fc0700d762a900400620000100200049
:1025b4006efc0700d762a800d742a800d722a80063
:1025c400d702a900e2c2a9004006200001002000b1
:1025d40066fc0700d762a900400620000100200025
:1025e40062fc0700fdfe0700e842a900e862a900ba
:1025f400d762a800d742a900d722a900d702a90010
:10260400e2c2a900400620000100200057fc070098
:10261400d762a900400620000100200053fc0700f7
:10262400d762a800d742a900d722a800d702a800e1
:10263400e2c2a90040062000010020004bfc070074
:10264400d762a900400620000100200047fc0700d3
:1026540000c8b30005ff070080bb20000100200074
:1026640042fc07000080fa00000006000800fa009f
:10267400881f7800300798000002eb0024079800b8
:1026840014002000040f780000c8b300f7fe070010
:102694002e0290000402e80014079800ca003700d4
:1026a400e842a800e862a900d762a8001e029000d0
:1026b4000402e900be029000048242001442780041
:1026c4008402fb00040820008482620014c0b3006a
:1026d400e08f520001003c000042eb000482fb004a
:1026e400610262004a22dd00b6168000f5bf2f00a9
:1026f4008502630004827200b41688001e029000f2
:102704000402e900be0290000482420014427800f0
:102714008402fb00040420008482620014c0b3001d
:10272400e08f520001003c000042eb000482fb00f9
:10273400610262004922dd00b6168000f5df2f0039
:102744008502630004827200b41688001e029000a1
:102754000402e900be0290000482420014427800a0
:102764008402fb00040220008482620014c0b300cf
:10277400e08f520001003c000042eb000482fb00a9
:10278400610262004822dd00b6168000f5ef2f00da
:102794008502630004827200b41688001e02900051
:1027a4000402e900be029000048242001442780050
:1027b4000402fb00f002620014c0b300e08f520078
:1027c40001003c000042eb000482fb006102620055
:1027d4004622dd0016178000f5fb2f0085026300fa
:1027e4000482720014178800e00120000100200018
:1027f400defb0700d762a900e001200001002000f1
:10280400dafb0700d762a8001e0290000402e90068
:10281400be02900004824200144278000402fb00cd
:10282400e802620014c0b300e08f520001003c00d3
:102834000042eb000482fb00610262004a22dd00d8
:10284400b6168000f5bf2f00850263000482720073
:10285400b41688001e0290000402e900be02900033
:1028640004824200144278000402fb00e402620085
:1028740014c0b300e08f520001003c000042eb00a2
:102884000482fb00610262004922dd00b61680006a
:10289400f5df2f008502630004827200b4168800fd
:1028a4001e0290000402e900be029000048242006d
:1028b400144278000402fb00e202620014c0b30078
:1028c400e08f520001003c000042eb000482fb0058
:1028d400610262004822dd00b6168000f5ef2f0089
:1028e4008502630004827200b41688001e02900000
:1028f4000402e900be0290000482420014427800ff
:102904000402fb00e102620014c0b300e08f520035
:1029140001003c000042eb000482fb006102620003
:102924004622dd0016178000f5fb2f0085026300a8
:102934000482720014178800e001200001002000c6
:102944008afb0700d762a900e001200001002000f3
:1029540086fb07001e0290006f026200e00f520027
:1029640016003a001e027800e20f520009003200fd
:10297400e30f52000c003200e10f52000f003a0046
:1029840000ccb30039fe070024002000040f7800b7
:102994000a00370000c9b30034fe070034002000e9
:1029a400040f78000500370000cdb3002ffe0700a8
:1029b40044002000040f7800000000001e02900074
:1029c4000402e800140798001e0490003e009000e2
:1029d4002ffa070000027800840278002e0290008b
:1029e400048242000402e800840f54002cff3900e2
:1029f4004f0478000080fa00000006000400fa008a
:102a04000002eb00040f78000002eb0014079800aa
:102a1400e4c2a900e4e2a900e502a800007d2000c8
:102a24000100200051fb0700c4032900040f7800b3
:102a3400f4fb2d00140798009e0090001e007800ff
:102a4400daf707000080fa00000006000200fa002e
:102a5400000f78008740a900451180000440200041
:102a640004826200e00f5200030032001e0278006c
:102a74005411880004003700f40f20001e02620085
:102a840054118800000000003411800062026200ca
:102a9400e00f5200fcff3a00000000003504800003
:102aa4000440200004826200e00f5200fbff320069
:102ab40054118000040f78000080fa000000060022
:102ac4000000fa0026c2a9000002eb00541188009d
:102ad400000000003411800061026200e00f520027
:102ae400fcff32003411800061026200e00f5200ea
:102af4000c00320026c2a9004511800004402000c9
:102b040004826200e00f520003003200541180007e
:102b14000442780004003700541180000442780015
:102b24000100370000c2eb00044078000080fa0086
:102b3400000006000000fa00445f210001082000a4
:102b4400f008200004000100445f2100310020004f
:102b54003008200004000100445f210031012000fe
:102b64004008200004000100445f210011012000fe
:102b74005008200004000100445f210031012000be
:102b84006008200004000100445f2100310120009e
:102b94002008200004000100445f2100810420007b
:102ba4001008200004000100445f21008000eb00b5
:102bb4000008200004000100445f21008000eb00b5
:102bc400f0082000040001000080fa000000060064
:102bd4000000fa00e5a2a90088ff07000080fa00bf
:102be400000006000200fa00004f78001147980028
:102bf400e5a2a900e9a2a8009e4278000582fb0094
:102c04000400780091ff07001e4290000482fb003c
:102c1400040078008dff0700e5a2a900e9a2a9003d
:102c24000080fa00000006000400fa002047980023
:102c3400e5a2a900e9a2a8002e4290000482fb00ac
:102c44000400780081ff07009dff07000042780020
:102c5400044f7800e5a2a900e9a2a9001e42780069
:102c6400044078000080fa00000006000200fa0028
:102c74000040eb00ecff070000427800044f7800ae
:102c84001e4278008482fb00f40720000482620064
:102c940044a2de00144798001e4290006a22b90044
:102ca40004027800144798009e4278006fc26200c4
:102cb4009e42900004c24200144798001e429000b5
:102cc400044078000080fa00000006000200fa00c8
:102cd40010c0b300d4ff070000427800044f78000e
:102ce4001e4278008482fb00f40720000482620004
:102cf40044a2de00144798001e4290006a22b900e4
:102d040004027800144798009e4278006fc2620063
:102d14009e42900004c24200144798001e42900054
:102d2400044078000080fa00000006000200fa0067
:102d340020c0b300bcff070000427800044f7800b5
:102d44001e4278008482fb00f403200004826200a7
:102d540044a2de00144798001e4290006a22b90083
:102d640004027800144798009e4278006fc2620003
:102d74009e42900004c24200144798001e429000f4
:102d8400044078000080fa00000006000200fa0007
:102d940030c0b300a4ff070000427800044f78005d
:102da4001e427800044078000080fa00000006000b
:102db4000200fa0040c0b3009bff07000042780005
:102dc400044f78001e4278008482fb00f407200040
:102dd4000482620044a2de00144798001e42900060
:102de4006a22b90004027800144798009e427800d1
:102df4006fc262009e42900004c2420014479800d1
:102e04001e429000044078000080fa000000060092
:102e14000200fa0050c0b30083ff070000427800ac
:102e2400044f78001e4278008482fb00f4072000df
:102e34000482620044a2de00144798001e429000ff
:102e44006a22b90004027800144798009e42780070
:102e54006fc262009e42900004c242001447980070
:102e64001e429000044078000080fa000000060032
:102e74000200fa0060c0b3006bff07000042780054
:102e8400044f78009e4278000582fb004422de0055
:102e9400144798001e4290006a22b9000402780088
:102ea400144798009e4278006fc262009e429000d0
:102eb40004c24200144798001e4290000440780067
:102ec4000080fa00000006005e00fa00602f9800ff
:102ed4006a02470022000900001aeb00d4f426001d
:102ee400e5462600540798006507980014962700c5
:102ef4000500200074079800050f98000002eb00fd
:102f0400140f98004455270055362700240f9800c5
:102f1400350f98004416260095072000440f9800aa
:102f2400550f98000002eb00640f98007e024700e2
:102f34007655260047e62600068abe006402420053
:102f44005636270047162600068abe006402420051
:102f540095072000050a78000482e8008402200016
:102f64000e0242004685260057272700068abe0027
:102f7400640242003647260017962700068abe00e0
:102f8400640242008002eb00050a78000482e80033
:102f94006424270095462600141f9800251f9800d6
:102fa4001496270005002000341f9800451f980040
:102fb4000002eb00541f9800c40320000e024200dc
:102fc4003615260047572700068abe0064024200d1
:102fd4002647260017962700068abe006402420090
:102fe4008002eb00050a78000482e80034552700cb
:102ff400e5462600342798004527980014962700b4
:103004000500200054279800652798000002eb0073
:103014007427980015ff070000427800044f7800d9
:103024002aff070000427800144798003fff07007a
:1030340000427800244798008dff07000042780082
:103044000482fb002407980071ff07000042780007
:103054006447980056ff07000042780074479800c0
:103064004aff070000427800044f9800ae02900027
:10307400047d200004824200cfa2de000605200069
:103084000e034300060178000400be00cbf90700dc
:1030940000027800144f98001e4a90000402fb00be
:1030a400050520008e8242000482420084007800dc
:1030b4006e2890006bf807006e28900074f80700e3
:1030c40000027800ee2a90000482420022002000d0
:1030d400e19f2800040078005bf807006e4290002e
:1030e4000402fb00cfa2de00060520000e0343000d
:1030f400060178000400be00b0f907000002780061
:10310400144f98001e4a90000402fb00050520009d
:103114008e82420004824200840078006e2890006f
:1031240050f807006e28900059f807000002780054
:10313400ee2a90000482420022002000e19f280031
:103144000400780040f807007e4290000402fb006f
:10315400cfa2de00060520000e034300060178001e
:103164000400be0095f9070000027800144f98008f
:103174001e4a90000402fb00050520008e824200d6
:1031840004824200840078006e28900035f807001d
:103194006e2890003ef8070000027800ee2a9000a6
:1031a400048242002200200001a0280004007800cc
:1031b40025f807002e4290000402fb00cfa2de0097
:1031c400060520000e034300060178000400be003b
:1031d4007af9070000027800144f98001e4a900004
:1031e4000402fb00050520008e8242000482420096
:1031f400840078006e2890001af807006e2890006a
:1032040023f8070000027800ee2a900004824200ae
:103214002200200021a02800040078000af80700fa
:103224001e4290000402fb00cfa2de00060520002f
:103234000e034300060178000400be005ff9070096
:1032440000027800144f98001e4a90000402fb000c
:10325400050520008e82420004824200840078002a
:103264006e289000fff707006e28900008f807000a
:1032740000027800ee2a900004824200220020001e
:1032840021a0280004007800eff707001e42780010
:103294000402fb00cfa2de00060520000e0343005b
:1032a400060178000400be0044f90700000278001b
:1032b400144f98001e4a90000402fb0005052000ec
:1032c4008e82420004824200840078006e289000be
:1032d400e4f707006e289000edf70700000278007d
:1032e400ee2a9000048242002200200001a028005f
:1032f40004007800d4f707006a0347000e4a9000e0
:103304000402fb000402e9006a22b9000402780006
:1033140004024300840078006e289000d1f707006f
:103324000080fa00000006000000fa00e582a9000f
:10333400b2fd07000080fa00000006000000fa0059
:10334400e582a900e982a90060002000bffd070012
:10335400e582a900e982a8000080fa0000000600c6
:103364000800fa0010079800210798003207980017
:10337400f2ff0700e582a900e982a90020002000ed
:10338400b2fd07001e0290004822de00040078000f
:10339400aefd07009e029000f40f2000048262003c
:1033a40004007800a9fd07000002eb00040f780078
:1033b400080037001e027800ae029000048242002a
:1033c400144278000402fb00040078009ffd07000b
:1033d4001e0fe8003e0290009e027800848f520087
:1033e400f4ff3500e582a900e982a8000080fa0014
:1033f400000006000800fa00881f780010079800f3
:103404002107980032079800e582a900e982a90003
:10341400300020008dfd07001e0290004822de00cf
:103424000400780089fd07009e029000f40f20003c
:10343400048262000400780084fd07000002eb00af
:10344400040f7800070037001e027800ae029000d7
:10345400048442009afd070000427800044c78007e
:103464001e0fe8003e0290009e027800848f5200f6
:10347400f5ff3500e582a900e982a8004f04780031
:103484000080fa00000006000200fa00e582a900ac
:10349400e982a900500020006cfd070088fd0700a8
:1034a40000427800044f7800e582a900e982a80070
:1034b4001e427800044078000080fa0000000600f4
:1034c4000600fa000e82e800420020008400780022
:1034d4000000eb00c7ff07000e8fe8001e02780013
:1034e4001402be000400be000080fa0000000600c2
:1034f4000600fa004047980074408000e00f520034
:1035040002003a000042eb0045003700d9fa0700f8
:103514000002be00048fbe004e4290000402fb0075
:103524006102620004427800e04f52001b00320046
:10353400844080006123b9005440800065408000cd
:103544000602420087824a00be0f5200ae8f5a0024
:103554003200340056408000674080008440800080
:10356400cfa2de000402530085825b00be0f52002e
:10357400ae8f5a0029003d00544080006540800011
:103584000400be00d6fa07000002be00d4b48800ce
:10359400e5b4880014c0b300210037004e42900007
:1035a4000402fb0062026200e00f52001b003200c2
:1035b400364080004740800084408000cfa2de0077
:1035c4000402530085825b00be0f5200ae8f5a0086
:1035d40012003d00844080006123b9003440800023
:1035e400454080000602420087824a00be0f520016
:1035f400ae8f5a00090034003440800045408000fa
:103604000400be00b6fa07000002be00d4b488006d
:10361400e5b4880014c0b300010037000042eb0099
:10362400044078000080fa00000006000400fa005c
:10363400000f7800110798000082eb004415880001
:10364400a0fb070062fd070037ff0700530c0700cb
:10365400a1692100100022001f0a07006cf707006f
:103664002af8070031c0b30030c4b300dff8070004
:10367400970507005506070079f907008bf907003d
:103684009df90700aff90700c1f9070040a0280021
:10369400f6fb0700ffff37003600f800809fbe00ee
:1036a400829fbe00849fbe00869fbe003400f80047
:1036b40000002000a00188005400fa008460a900e2
:1036c400cda2a900841680004d22de006142620072
:1036d40015c0b30004c25200614262000482fb00c0
:1036e400610262004d22dd0086168000f5ff2d0088
:1036f400850263000482720084168800a6f807001d
:1037040000427800044f78005afa07000002be0015
:103714000400be00cf1107001e02fb000400780065
:10372400571107001e4078004b1107006022b800b3
:103734001407980025079800660247001b0009003b
:10374400001aeb000e82e80004007800defd07009a
:103754000a0037000e82e80004007800ccf6070067
:10376400000278008e82e8000482420022002000d9
:1037740001a0280004007800b3f607000e82e800d8
:1037840004007800c2f6070000027800ff0f520020
:10379400f0ff3600e40320000e024200040078002b
:1037a40013fa070000427800144798001e42900064
:1037b4000402fb00e50320008e8242008482420062
:1037c4000e82e8008500780004007800a5f6070062
:1037d4000a0037000e82e80004007800acf6070007
:1037e400000278008e82e800048242002200200059
:1037f40001a028000400780093f607000e82e80078
:1038040004007800a2f6070000027800f502200008
:10381400850f5200efff36001ec2ea00a504200007
:103824008e82420084407800050078009df80700ed
:10383400a50420008e8242000e82e80085007800f4
:103844000400780087f607000a0037000e82e800bb
:10385400040078008ef60700000278008e82e800eb
:10386400048242002200200001a028000400780005
:1038740075f607000e82e8000400780084f607005d
:1038840000027800f5032000850f5200efff360098
:103894000e82e8000400780074fb07000080fa0040
:1038a4003400f9004f03be004f02be004f01be00ba
:1038b4004f00be003600f900004006003600f80054
:1038c400809fbe00829fbe00849fbe00869fbe0074
:1038d4003400f80000002000a00188000000fa0075
:1038e40084c0a9003df907000080fa003400f90003
:1038f4004f03be004f02be004f01be004f00be008a
:103904003600f900004006003600f800809fbe0033
:10391400829fbe00849fbe00869fbe003400f800d4
:1039240000002000a00188000200fa0084e0a90041
:10393400d202a900b41680000442780061426200f9
:1039440015c0b30004c25200614262000482fb004d
:1039540061026200b6168000e5ff2f008502630055
:1039640004827200b4168800cdc2a90084168000b7
:103974004e22de006142620015c0b30004c2520050
:10398400614262000482fb00610262004e22dd009b
:1039940086168000f5ff2b00850263000482720006
:1039a4008416880078f90700fbf7070000427800c6
:1039b400044f78001e407800cdfe07000080fa0016
:1039c4003400f9004f03be004f02be004f01be0099
:1039d4004f00be003600f900004006003600f80033
:1039e400809fbe00829fbe00849fbe00869fbe0053
:1039f4003400f80000002000a00188001800fa003c
:103a040086a0a900d1f9070000027800040f78000d
:103a140098f907000002be001407980025079800d3
:103a240034408000454080003407980045079800e2
:103a34005440800065408000540798006507980052
:103a44005e039000ee0390003e029000ce029000d0
:103a54000603420087834a001e029000ae029000d3
:103a64000402530085825b0074079800050f9800d8
:103a74000002eb00140f9800c7f70700004278001b
:103a8400445798004e5290000402fb0084017800d1
:103a94001e0178001e009000ae0090000d1007007b
:103aa40000027800340f98001e0278008402780027
:103ab40005f0a7008502ea003e0a9000848f5200b8
:103ac400030034008040eb0000c4b300c7f70700d4
:103ad4004e5290000402fb0015002000851f780060
:103ae400840378001e0b9000be0a90001e0278002a
:103af4001e019000ae0190007e0090008e089000a0
:103b0400b90007008f87e9004e5290000402fb00c1
:103b140025002000851f7800840378001e0b900088
:103b2400be0a90001e0278001e019000ae019000b3
:103b34007e0090008e089000ab0007008f87e9009c
:103b44000080fa003400f9004f03be004f02be00ab
:103b54004f01be004f00be003600f90000400600d1
:103b64003600f800809fbe00829fbe00849fbe0086
:103b7400869fbe003400f80000002000a0018800e9
:103b84000000fa0086c0a900310607008e0607006f
:103b94000080fa003400f9004f03be004f02be005b
:103ba4004f01be004f00be003600f9000040060081
:103bb4003600f800809fbe00829fbe00849fbe0036
:103bc400869fbe003400f80000002000a001880099
:103bd4000a00fa008760a9009603a9009623a900a9
:103be400841c80006e026200ee0f520002003a0054
:103bf40096c3a9000e003700041c80004222de0098
:103c0400f57f200005026200040f78000e82e800b0
:103c140004007800ca0607000e82e80084007800d9
:103c24001e007800e60007008ee3a9007ee3a900e9
:103c34000080fa003400f9004f03be004f02be00ba
:103c44004f01be004f00be003600f90000400600e0
:103c54003600f800809fbe00829fbe00849fbe0095
:103c6400869fbe003400f80000002000a0018800f8
:103c74000a00fa0088c0a9005604a9005624a90025
:103c8400842280006e026200ee0f520002003a00ad
:103c940056c4a9000a003700042280004222de0034
:103ca400f57f200005026200040f78000e82e80010
:103cb40004007800ab0607004ee4a9003ee4a90026
:103cc4000080fa003400f9004f03be004f02be002a
:103cd4004f01be004f00be003600f9000040060050
:103ce4003600f800809fbe00829fbe00849fbe0005
:103cf400869fbe003400f80000002000a001880068
:103d04000000fa008940a900a469210042002000b3
:103d1400840078000043210091fd07000080fa0030
:103d24003400f9004f03be004f02be004f01be0035
:103d34004f00be003600f900004006000800fa00fb
:103d4400204798003147980022079800634798005d
:103d5400744798002e4290000482fb004822dd0044
:103d64000408b000040f78003e4290000482fb0077
:103d74001e0f42007e429000e14f520005003a00bf
:103d84006e419000ae0090001e0078004e050700c2
:103d9400040037006e419000ae0090001e007800d1
:103da4007a0507000080fa00000006000800fa0007
:103db4002047980021079800624798000458200083
:103dc400040f78002e4290000482fb001e0f420074
:103dd4006e419000ae0090001e0078003a05070086
:103de4000080fa00000006002c00fa00600f980022
:103df400710f980002179800131798002417980061
:103e04003517980046179800276f980004408000e3
:103e1400044f78006402470003000900001aeb0015
:103e24007c024700140798001e0290001442780098
:103e3400444798001e0290000402e80014427800ef
:103e4400544798001e0290000482e800144278004f
:103e540064479800040220000e02420014079800f0
:103e64001e02900014427800744798001e029000cd
:103e74000402e80014427800044f98001e029000e7
:103e84000482e80014427800144f9800e4024700ca
:103e94000efa970023c0b300050178009e40780015
:103ea40010c0b300a5ff07006c024700030009001f
:103eb400001aeb002e1290000402ea002417980066
:103ec400440220000e024200140798001e029000d3
:103ed40014427800444f98001e0290000402e80047
:103ee40014427800544f98002e1290000402ea0005
:103ef40024179800440220000e0242001407980080
:103f04001e02900014427800644f98001e02900034
:103f14000402e80014427800744f98006402200000
:103f24000e024200140798001e029000144278000a
:103f3400045798001e0290000402e800144278001e
:103f440014579800840220000e02420014079800bf
:103f54001e02900014427800245798001e0290001c
:103f64000402e8001442780034579800ec02470039
:103f74000efa970013c0b300050178009e40780044
:103f840020c0b3006dff070074024700030009005e
:103f9400001aeb002e6a900044579800f402470080
:103fa4000efa97008041eb00050178009e407800ee
:103fb40030c0b30061ff07000080fa000000060073
:103fc4000400fa00000f780011079800047820001c
:103fd4009e02620004602000848f52002f003a0089
:103fe4000471220044b588001e02900094427800b7
:103ff40004c4b30084cf520004003a00e411220048
:104004001e00900004000100250037001e029000ed
:10401400144278008402fb00040f200084826200b2
:1040240004022000848f520004003a006405220038
:104034001e00900004000100190037001e029000c9
:10404400144278008402fb00040e20000482620003
:10405400e00f520004003a00045c22001e009000ad
:10406400040001000e0037001e0290009442780004
:1040740004c6b30084cf5200050032001e02900033
:104084009442780004c7b30084cf520004003a007d
:1040940084552200040001000100370000000000e4
:1040a4000080fa00000006001600fa00200f9800b5
:1040b40004408000044f78002e0a900063024200fe
:1040c40014427800144798002e0a90000402e80075
:1040d400144278008402fb002e0a90000482e80057
:1040e400144278000402fb004822dd0004824200ee
:1040f400140798002e0a9000144278008402fb00f2
:10410400340f20008482620004022000848f520055
:1041140020003a001e029000e4b388001e42900082
:104124000482fb00f4b388002e0a9000640242006b
:10413400144278000402fb00d4b388000002eb00b0
:1041440034b5880004c6b300444f98002e0a90008a
:104154000402e80014427800544f98002e0a90009c
:104164000482e80014427800644f98002e0a9000fc
:104174006302420014427800744f98006c024700b6
:104184000041eb00840078001e40780007ff070020
:10419400270037001e4290000482fb00e20f520009
:1041a40003003200e40f52000a00320020003700fe
:1041b4002e0a90006402420042002000840078002d
:1041c4001e009000ea0707001e009000f4f40700a8
:1041d40004003700c44f22002e08900004000100a0
:1041e4000000000004c6b300444798002e0a900063
:1041f4000402e80014427800544798002e0a900004
:104204000482e80014427800644798002e0a900063
:104214006302420014427800744798006402470025
:104224000041eb00840078001e407800dffe0700a8
:104234000080fa00000006000600fa00200798003b
:104244002e0290006302420014427800044f78006a
:104254002e0290000402e800144278008402fb005d
:104264002e0290000482e800144278000402fb004d
:104274004822dd0004824200140798009e02900048
:1042840004002200848f520004003a00c417220064
:104294002e00900004000100140037009e427800b4
:1042a4000582fb00e20f520008003200e40f5200c6
:1042b4000a003200e10f52000c003a00043f2200d1
:1042c4002e0090000400010008003700042d220095
:1042d4002e00900004000100040037002445220051
:1042e4002e00900004000100000000000080fa008d
:1042f400000006003a00fa00401f980004408000c5
:10430400044f98000e0278000403b0000300090073
:10431400001aeb004e1a90000402e80014427800e0
:104324008402fb004e1a90000482e80014427800d4
:104334000402fb004822dd00048242005407980076
:104344004e1a900063024200144278000402fb00fb
:10435400640798006e024700840078005e009000b5
:10436400dd06070000027800140798001e02900082
:10437400e00f5200860032004e1a90000402e8005a
:1043840014427800147798004e1a90000482e800d2
:1043940014427800247798004e1a90006302420079
:1043a40014427800347798006e02900005002000d3
:1043b4006600200007002000860f5200878f5a00f5
:1043c40038003e0004600100060037000b0037008f
:1043d40011003700170037001d0037002300370095
:1043e40029003700b4c4b300047798006e0f470067
:1043f40014002000140798002a003700b4c4b30046
:10440400047798006e024700048fe800240020001f
:10441400140798002300370014c4b30004779800ed
:104424006e024700640f4200a400200014079800a5
:104434001c00370034c4b300047798006e024700b0
:104444006e0f420044002000140798001500370046
:1044540034c4b300047798006e024700720f420020
:1044640044002000140798000e00370074c4b30001
:10447400047798006e024700760f42003400200053
:10448400140798000700370034c4b3000477980079
:104494006e024700790f4200440020001407980080
:1044a400000000008e72900014c4b30084cf520048
:1044b4001d003a001e0290000442780044779800e0
:1044c4000042eb00547798000002eb0024079800a8
:1044d4000002eb00240798000a0037002e02900027
:1044e4001e024200144278002e039000255b210036
:1044f40085024300844a78002e0290000402e800fa
:1045040024079800ae0290001e029000848f52008f
:10451400f2ff39000002eb0034b588001e0290005f
:10452400d4b38800130037000002eb00340798006e
:104534000002eb00340798000a0037003e029000a6
:10454400e40242003e0290001e024200144278003f
:1045540085024700847298003e0290000402e8003d
:1045640034079800be0290001e029000848f52000f
:10457400f2ff3900040320000e0242000041eb0068
:10458400840078000e48900008fe07000100370000
:10459400000000000080fa0000000600ac00fa00f1
:1045a4005097980004408000444798006c024700ec
:1045b40003000900001aeb005e9290000402e80078
:1045c400144278008402fb005e9290000482e800aa
:1045d400144278000402fb004822dd0004824200f9
:1045e400340798003e009000cb06070000027800d4
:1045f400044f980074024700840078003e00900045
:104604003506070000027800540798005e02900007
:10461400e00f52006e0032005e9290000402e80047
:1046240014427800544f98005e9290000482e8008f
:1046340014427800644f98005e9290006302420036
:1046440014427800744f98005e029000e40f520008
:104654001e00360014c4b300444f98005e0290005c
:1046640004427800045798005e0290004822de005d
:1046740004427800145798000002eb00040f7800fd
:104684000002eb00040f78000700370074024700b3
:104694001e02420014427800255b21009e824200e3
:1046a400844a78001e0fe8009e0278005e029000a3
:1046b400848f5200f5ff39000002eb0034b5880006
:1046c4005e029000d4b388003b0037000e4a90008d
:1046d4000402fb006123b900d4ff2f00f5ff2f0073
:1046e4000602420087824a00d6002000070020000c
:1046f400860f5200878f5a001b003e0004600100a1
:104704001300370018003700170037001300370074
:10471400150037000b003700130037001200370074
:1047240011003700100037000f0037000e0037006b
:104734000d0037000000370074c4b300444f9800e4
:104744000900370034c4b300444f98000600370012
:10475400b4c4b300444f980003003700b4c4b3009a
:10476400444f9800000000000002eb00140798007a
:104774000002eb00140798000b0037001e029000a3
:10478400e4024200740347001e0290000402430046
:104794001442780085024700c44a98001e02900023
:1047a4000402e800140798009e0290005e02900044
:1047b400848f5200f1ff39006c0247000041eb0086
:1047c400840078004e40900078fd07000100370017
:1047d400000000000080fa00000006001000fa004b
:1047e4007007980004408000044f78007e02900017
:1047f4000402e800144278008402fb007e02900068
:104804000482e800144278000402fb004822dd0020
:1048140004824200140798001e0090003e06070020
:1048240000027800444798004e429000e14f420055
:1048340018003200b4c4b300544798007e029000bc
:104844000402e80014427800644798007e02900055
:104854000482e80014427800744798007e029000b5
:104864006302420014427800044f98004e429000c4
:10487400144f98000042eb00244f98006502470053
:104884000041eb00840078001e40780047fd0700db
:1048940001003700000000000080fa00000006005c
:1048a4002e00fa006017980004408000044f78003e
:1048b4006502470007000900005aeb006e129000e1
:1048c4000402e800144278008402fb006e12900097
:1048d4000482e800144278000402fb004822dd0050
:1048e40004824200140798006d0247008400780097
:1048f4001e009000ae0507000002780044479800af
:104904004e429000e04f5200370032006e12900089
:104914000402e80014427800644798006e12900084
:104924000482e80014427800744798006e129000e4
:104934006302420014427800044f98004e429000f3
:10494400e44f520010003e0045c0b3004e429000b8
:1049540004c25200250020000522dd003444b000ca
:10496400544798005e4a9000144f98006e4a900095
:10497400244f98007e4a9000344f98000e529000c5
:10498400444f98001200370014c4b30054479800f1
:104994004e429000144f98000042eb00244f9800c0
:1049a4000042eb0004007800b2f5b7006d02470046
:1049b40084007800205b21002af207000002eb004b
:1049c40034b588004e4290000482fb00d4b38800c2
:1049d400650247000041eb00840078001e40780027
:1049e400f2fc070001003700000000000080fa001c
:1049f400000006000c00fa00500798005e029000c8
:104a04000402e800144278008402fb005e02900075
:104a14000482e800144278000402fb004822dd000e
:104a240004824200140798005e0290001442780049
:104a34000402fb006c02620042a2de0044479800bc
:104a44000002eb00040f7800070037001e02780014
:104a540064024200de0290000482420014427800a4
:104a6400544798001e0fe8004e4290000482fb0059
:104a7400640212009e0f5200f4ff3c004e4290006c
:104a84000482fb0064021200840247000042eb002f
:104a9400d442980065024700840078001e0090000c
:104aa400030607000080fa00000006000c00fa006c
:104ab4000440800024479800640247000300090072
:104ac400001aeb0034b58000e8024200d4b3800041
:104ad400848f52001000360014c0b300444798007d
:104ae40034b5800084427800d4b380000442780056
:104af40004c2520067424200344798004e4290007c
:104b0400844278003e4290000442420004c24200c3
:104b140044479800020037000042eb0044479800e5
:104b240014002000040f78000a00370035b5800017
:104b3400245b21000482420014427800640347008d
:104b44001e034300044b78000502e80034b58800d6
:104b54001e0fe8001e027800e70f5200f3ff340036
:104b6400640247000041eb00840078002e4090006e
:104b74008efc07000080fa00000006001200fa0014
:104b8400000f980004408000140798000002eb0016
:104b9400040f78000e0a9000144278000402fb000f
:104ba4006102620004427800e04f52002e0032009d
:104bb4000e0a9000144278000402fb006e026200a8
:104bc4000482d100444798000c00370035b58000ba
:104bd4001e0278000402e8000e0b90000402430059
:104be40014427800265b210006834200044b7800bf
:104bf4000502e80034b588001e0fe8004e4290001c
:104c04000482fb00670212009e0f5200efff3c007b
:104c1400d5b38000e4b3800005017800215b210056
:104c24000400780052050700e4b380000400780013
:104c34005bf207000f00370035b580001e027800d4
:104c44000402e8000e0b90000402430014427800b2
:104c5400265b210006834200044b78000502e8002d
:104c640034b588001e0fe8001e027800e60f5200db
:104c7400f1ff3400c46721003407980004c6b30070
:104c8400044f98003e02900014427800144f98009c
:104c94003e0290000402e80014427800244f980079
:104ca400f4b3800004427800344f98001e02900050
:104cb40004427800e80247000041eb0085007800d8
:104cc4000440780039fc07000080fa000000060068
:104cd4000400fa0000c0200047ee070000000000b6
:104ce400841c80004522de00674262000482fb00cf
:104cf400e30f5200faff3400815b20002000200003
:104d0400a0ed0700a1ff2f003000200001ef0700f5
:104d140004408000cfa2de00048fbe0004602000a7
:104d2400050020003e034200ae834a00047c2000bc
:104d3400050020000600780007037800840378004b
:104d440005027800070060000402630005002000eb
:104d5400c022dd00040020000403be006102b8008c
:104d64000403730085837300423add00ce32de0013
:104d7400850272004232dd000400780004602000e5
:104d8400050020003e034200ae834a000602be0036
:104d9400422bdd00ce23de00870373004223dd00b7
:104da40086027800f40f200004826200040270007e
:104db40084027800c4ff2100048262006011b800fc
:104dc400840078000040eb00d2ed07006011b800c9
:104dd400d1ff21000040eb00f9ed07000460200042
:104de400050020003e034200ae834a00047c2000fc
:104df400050020000600780007037800840378008b
:104e0400050278000700600004026300050020002a
:104e1400c022dd00040020000403be006102b800cb
:104e24000403730085837300423add00ce32de0052
:104e3400850272004232dd00040078000460200024
:104e4400050020003e034200ae834a000602be0075
:104e5400422bdd00ce23de00870373004223dd00f6
:104e640086027800f40f20000482620004027000bd
:104e740084027800c4ff2100048262006011b8003b
:104e84008400780010c0b300a2ed07006011b800e0
:104e9400d1ff210010c0b300c9ed07000460200059
:104ea400050020003e034200ae834a00047c20003b
:104eb40005002000060078000703780084037800ca
:104ec400050278000700600004026300050020006a
:104ed400c022dd00040020000403be006102b8000b
:104ee4000403730085837300423add00ce32de0092
:104ef400850272004232dd00040078000460200064
:104f0400050020003e034200ae834a000602be00b4
:104f1400422bdd00ce23de00870373004223dd0035
:104f240086027800f40f20000482620004027000fc
:104f340084027800c4ff2100048262006011b8007a
:104f44008400780020c0b30072ed07006011b8003f
:104f5400d1ff210020c0b30099ed070031002000eb
:104f64000040eb00aeed0700410020000040eb00e4
:104f7400a3ed07003100200010c0b300a8ed070026
:104f84004100200010c0b3009ded07003100200057
:104f940020c0b300a2ed07004100200020c0b300f0
:104fa40097ed070000802a0093ed07000000000041
:104fb400851c8000040e200004826200e00f520071
:104fc400fbff3a000080fa00000006000400fa002b
:104fd40000c020003aee0700000000008422800098
:104fe4004522de00674262000482fb00e30f5200a8
:104ff400faff3400815b20002000200093ed0700bd
:10500400d1ff2f003000200055ee0700044080003f
:10501400cfa2de00048fbe00046020000500200043
:105024003e034200ae834a00047c200005002000b9
:1050340006007800070378008403780005027800ee
:10504400070060000402630005002000c022dd00a8
:10505400040020000403be006102b80004037300ce
:1050640085837300423add00ce32de008502720091
:105074004232dd00040078000460200005002000b6
:105084003e034200ae834a000602be00422bdd000e
:10509400ce23de00870373004223dd0086027800fe
:1050a400f40f20000482620004027000840278007d
:1050b400c4ff2100048262006011b80084007800fb
:1050c4000040eb00c5ed07006011b800d1ff2100de
:1050d4000040eb00eced0700046020000500200018
:1050e4003e034200ae834a00047c200005002000f9
:1050f400060078000703780084037800050278002e
:10510400070060000402630005002000c022dd00e7
:10511400040020000403be006102b800040373000d
:1051240085837300423add00ce32de0085027200d0
:105134004232dd00040078000460200005002000f5
:105144003e034200ae834a000602be00422bdd004d
:10515400ce23de00870373004223dd00860278003d
:10516400f40f2000048262000402700084027800bc
:10517400c4ff2100048262006011b800840078003a
:1051840010c0b30095ed07006011b800d1ff2100f5
:1051940010c0b300bced070004602000050020002f
:1051a4003e034200ae834a00047c20000500200038
:1051b400060078000703780084037800050278006d
:1051c400070060000402630005002000c022dd0027
:1051d400040020000403be006102b800040373004d
:1051e40085837300423add00ce32de008502720010
:1051f4004232dd0004007800046020000500200035
:105204003e034200ae834a000602be00422bdd008c
:10521400ce23de00870373004223dd00860278007c
:10522400f40f2000048262000402700084027800fb
:10523400c4ff2100048262006011b8008400780079
:1052440020c0b30065ed07006011b800d1ff210054
:1052540020c0b3008ced0700310020000040eb00bb
:10526400a1ed0700410020000040eb0096ed07008f
:105274003100200010c0b3009bed07004100200066
:1052840010c0b30090ed07003100200020c0b3002f
:1052940095ed07004100200020c0b3008aed07000f
:1052a40000802a0086ed07000000000085228000af
:1052b400040e200004826200e00f5200fbff3a005b
:1052c4000080fa00000006000a00fa002007980097
:1052d40031079800024f98000e4a90008482fb0028
:1052e4008468210004824200944278002547980093
:1052f4000e489000240107000e4a90008482fb00af
:105304002e4290008483fb002e0390006a2ab90089
:10531400040278000702420084024200a4442100ef
:1053240004824200060a78000002eb00040f7800b1
:10533400110037000e4a90008482fb002e42900038
:105344008483fb001e0278003e03900004024300a5
:10535400144378006a2ab900040278000702420064
:105364004322dd009e024200a43521000482420053
:10537400064a78001e0fe8001e027800e70f52006c
:10538400ecff34000080fa00000006000a00fa0076
:105394002007980031079800024f98000e4a9000a9
:1053a4008482fb0014692100048242009442780044
:1053b400254798000e489000540107000e4a9000bb
:1053c4008482fb002e4290008483fb002e03900015
:1053d4006a2ab900040278000702420084024200eb
:1053e4006457210004824200060a78000002eb00a0
:1053f400040f7800110037000e4a90008482fb00ed
:105404002e4290008483fb001e0278003e0390002d
:1054140004024300144378006a2ab90004027800a5
:10542400070242004322dd009e024200644821003c
:1054340004824200064a78001e0fe8001e0278002b
:10544400e70f5200ecff34000080fa000000060071
:105454001000fa000002eb00040f7800530037003c
:105464001e02780004427800044078000a01070014
:1054740000427800e04f52004a003a000000000069
:105484001e0278000442780004407800c0eb070054
:1054940000427800e04f5200f9ff320054682100c6
:1054a4001e02420014427800444798004e42900085
:1054b4000403fb001e0278006a22b900040278008b
:1054c4000602420084024200a444210004824200f5
:1054d40014027800340798000002eb0014079800c7
:1054e400130037004e4290000403fb001e027800b4
:1054f4006a22b9000402780006024200c322dd00d9
:105504001e02900084824200a435210004824200dd
:1055140014427800680347009e029000850243000d
:10552400844a78001e0290000402e80014079800e0
:105534001e029000e70f5200eaff34001e027800ba
:1055440004427800e80347003e039000057c2000f5
:1055540085026300452bdd00be0290004228dd0079
:10556400f50f20008502600005037300c58f2f002e
:10557400050363008442780084c0b3008700780088
:10558400825f20000300200006007800a0eb0700e3
:105594001e02780004427800044078009c00070052
:1055a40001003700000000001e0fe800146821000d
:1055b400144278000482fb009e0f5200a8ff3c00b6
:1055c4000080fa00000006001000fa000002eb0060
:1055d400040f7800530037001e027800044278005c
:1055e400044078000d01070000427800e04f5200ab
:1055f4004a003a00000000001e02780004427800cd
:105604000440780014ec070000427800e04f520098
:10561400f9ff3200e46821001e02420014427800bf
:10562400444798004e4290000403fb001e02780099
:105634006a22b90004027800060242008402420091
:105644006457210004824200140278003407980051
:105654000002eb0014079800130037004e4290003c
:105664000403fb001e0278006a22b90004027800d9
:1056740006024200c322dd001e0290008482420022
:105684006448210004824200144278006803470001
:105694009e02900085024300844a78001e02900016
:1056a4000402e800140798001e029000e70f52005d
:1056b400eaff34001e02780004427800e803470041
:1056c4003e039000057c200085026300452bdd002d
:1056d400be0290004228dd00f50f20008502600024
:1056e40005037300c58f2f0005036300844278000f
:1056f40084c0b30087007800825f2000030020008c
:1057040006007800f4eb07001e02780004427800db
:10571400044078009f0007000100370000000000eb
:105724001e0fe80014682100144278000482fb0074
:105734009e0f5200a8ff3c000080fa000000060003
:105744000200fa00000f78001e0278000041eb000e
:1057540081c0b300040078001eeb07000080fa004b
:10576400000006000200fa00000f78001e02780014
:105774000041eb0081c0b30004007800c7eb0700d0
:105784000080fa00000006000200fa00004f7800d2
:105794001e4278008482fb00846821000482420057
:1057a400144278000442e8008668210086824200a0
:1057b400844a78001e4278008482fb0084682100b9
:1057c4000482420094427800046821001442780064
:1057d40084cf52000c0039001e4278008482fb0002
:1057e40084682100848242000042eb00844a7800ed
:1057f4001e4278008482fb002468210084824200d7
:1058040014c0b300844a78000080fa000000060047
:105814000200fa00004f78001e4278008482fb00e8
:105824005468210004824200144278000442e800d3
:105834005668210086824200844a78001e4278001d
:105844008482fb0054682100048242009442780060
:10585400046821001442780084cf52000c003900ff
:105864001e4278008482fb00546821008482420036
:105874000042eb00844a78001e4278008482fb00d8
:1058840024682100848242000042eb00844a7800ac
:105894000080fa00000006000200fa00004f7800c1
:1058a4001e4278008482fb002468210004824200a6
:1058b40014427800e14f520002003a000042eb002b
:1058c4000f0037001e4278008482fb0054682100d8
:1058d40004824200944278001e4278000483fb0054
:1058e40084682100040243001442780084cf5200eb
:1058f400020031000042eb000100370014c0b30085
:10590400044078000080fa00000006000200fa005b
:10591400004f78001e4278008482fb001469210045
:1059240004824200144278000442e800166921000f
:1059340086824200844a78001e4278008482fb00fa
:105944001469210004824200944278000468210012
:105954001442780084cf52000c0039001e427800b3
:105964008482fb0014692100848242000042eb001f
:10597400844a78001e4278008482fb00b4682100c7
:105984008482420014c0b300844a78000080fa0084
:10599400000006000200fa00004f78001e42780062
:1059a4008482fb00e46821000482420014427800ef
:1059b4000442e800e668210086824200844a7800b6
:1059c4001e4278008482fb00e468210004824200c5
:1059d40094427800046821001442780084cf520075
:1059e4000c0039001e4278008482fb00e468210028
:1059f400848242000042eb00844a78001e42780010
:105a04008482fb00b4682100848242000042eb00df
:105a1400844a78000080fa00000006000200fa00c0
:105a2400004f78001e4278008482fb00b468210095
:105a34000482420014427800e14f520002003a000e
:105a44000042eb000f0037001e4278008482fb0006
:105a5400e468210004824200944278001e427800e7
:105a64000483fb00146921000402430014427800fb
:105a740084cf5200020031000042eb0001003700e5
:105a840014c0b300044078000080fa00000006004f
:105a94004000fa00889fbe00401f9800217f9800b4
:105aa400621f9800731f9800720247000400780078
:105ab4008d0507002e7a9000246f9800b30207002a
